{"contracts/ExPopulusCardGameLogic.sol":{"ExPopulusCardGameLogic":{"abi":[{"inputs":[{"internalType":"address","name":"_cards","type":"address"},{"internalType":"address","name":"_token","type":"address"}],"stateMutability":"nonpayable","type":"constructor"},{"inputs":[{"internalType":"address","name":"owner","type":"address"}],"name":"OwnableInvalidOwner","type":"error"},{"inputs":[{"internalType":"address","name":"account","type":"address"}],"name":"OwnableUnauthorizedAccount","type":"error"},{"anonymous":false,"inputs":[{"indexed":false,"internalType":"address","name":"player","type":"address"},{"indexed":false,"internalType":"uint256","name":"gameHash","type":"uint256"},{"components":[{"internalType":"uint8","name":"attack","type":"uint8"},{"internalType":"uint8","name":"health","type":"uint8"},{"internalType":"uint8","name":"ability","type":"uint8"}],"indexed":false,"internalType":"struct ExPopulusCardGameLogic.CardData[]","name":"playerDeck","type":"tuple[]"},{"components":[{"internalType":"uint8","name":"attack","type":"uint8"},{"internalType":"uint8","name":"health","type":"uint8"},{"internalType":"uint8","name":"ability","type":"uint8"}],"indexed":false,"internalType":"struct ExPopulusCardGameLogic.CardData[]","name":"enemyDeck","type":"tuple[]"},{"indexed":false,"internalType":"uint8","name":"result","type":"uint8"}],"name":"BattleResult","type":"event"},{"anonymous":false,"inputs":[{"indexed":true,"internalType":"address","name":"previousOwner","type":"address"},{"indexed":true,"internalType":"address","name":"newOwner","type":"address"}],"name":"OwnershipTransferred","type":"event"},{"inputs":[{"internalType":"uint256[3]","name":"ids","type":"uint256[3]"}],"name":"battle","outputs":[],"stateMutability":"nonpayable","type":"function"},{"inputs":[],"name":"cards","outputs":[{"internalType":"contract ExPopulusCards","name":"","type":"address"}],"stateMutability":"view","type":"function"},{"inputs":[{"internalType":"uint256","name":"data","type":"uint256"}],"name":"decodeState","outputs":[{"components":[{"internalType":"bool","name":"abilityUsed","type":"bool"},{"internalType":"bool","name":"frozen","type":"bool"},{"internalType":"bool","name":"shielded","type":"bool"},{"internalType":"uint8","name":"health","type":"uint8"},{"internalType":"uint8","name":"ability","type":"uint8"},{"internalType":"uint8","name":"attack","type":"uint8"},{"internalType":"uint8","name":"index","type":"uint8"},{"internalType":"uint8","name":"length","type":"uint8"}],"internalType":"struct ExPopulusCardGameLogic.State","name":"","type":"tuple"}],"stateMutability":"pure","type":"function"},{"inputs":[{"components":[{"internalType":"bool","name":"abilityUsed","type":"bool"},{"internalType":"bool","name":"frozen","type":"bool"},{"internalType":"bool","name":"shielded","type":"bool"},{"internalType":"uint8","name":"health","type":"uint8"},{"internalType":"uint8","name":"ability","type":"uint8"},{"internalType":"uint8","name":"attack","type":"uint8"},{"internalType":"uint8","name":"index","type":"uint8"},{"internalType":"uint8","name":"length","type":"uint8"}],"internalType":"struct ExPopulusCardGameLogic.State","name":"state","type":"tuple"}],"name":"encodeState","outputs":[{"internalType":"uint256","name":"","type":"uint256"}],"stateMutability":"pure","type":"function"},{"inputs":[{"internalType":"uint256","name":"","type":"uint256"},{"internalType":"uint256","name":"","type":"uint256"}],"name":"gameTurns","outputs":[{"internalType":"uint256","name":"","type":"uint256"}],"stateMutability":"view","type":"function"},{"inputs":[{"internalType":"uint256","name":"gameHash","type":"uint256"}],"name":"getGameTurns","outputs":[{"components":[{"components":[{"internalType":"bool","name":"abilityUsed","type":"bool"},{"internalType":"bool","name":"frozen","type":"bool"},{"internalType":"bool","name":"shielded","type":"bool"},{"internalType":"uint8","name":"health","type":"uint8"},{"internalType":"uint8","name":"ability","type":"uint8"},{"internalType":"uint8","name":"attack","type":"uint8"},{"internalType":"uint8","name":"index","type":"uint8"},{"internalType":"uint8","name":"length","type":"uint8"}],"internalType":"struct ExPopulusCardGameLogic.State","name":"playerState","type":"tuple"},{"components":[{"internalType":"bool","name":"abilityUsed","type":"bool"},{"internalType":"bool","name":"frozen","type":"bool"},{"internalType":"bool","name":"shielded","type":"bool"},{"internalType":"uint8","name":"health","type":"uint8"},{"internalType":"uint8","name":"ability","type":"uint8"},{"internalType":"uint8","name":"attack","type":"uint8"},{"internalType":"uint8","name":"index","type":"uint8"},{"internalType":"uint8","name":"length","type":"uint8"}],"internalType":"struct ExPopulusCardGameLogic.State","name":"enemyState","type":"tuple"}],"internalType":"struct ExPopulusCardGameLogic.Turn[]","name":"","type":"tuple[]"}],"stateMutability":"view","type":"function"},{"inputs":[{"components":[{"internalType":"bool","name":"abilityUsed","type":"bool"},{"internalType":"bool","name":"frozen","type":"bool"},{"internalType":"bool","name":"shielded","type":"bool"},{"internalType":"uint8","name":"health","type":"uint8"},{"internalType":"uint8","name":"ability","type":"uint8"},{"internalType":"uint8","name":"attack","type":"uint8"},{"internalType":"uint8","name":"index","type":"uint8"},{"internalType":"uint8","name":"length","type":"uint8"}],"internalType":"struct ExPopulusCardGameLogic.State","name":"playerState","type":"tuple"},{"components":[{"internalType":"bool","name":"abilityUsed","type":"bool"},{"internalType":"bool","name":"frozen","type":"bool"},{"internalType":"bool","name":"shielded","type":"bool"},{"internalType":"uint8","name":"health","type":"uint8"},{"internalType":"uint8","name":"ability","type":"uint8"},{"internalType":"uint8","name":"attack","type":"uint8"},{"internalType":"uint8","name":"index","type":"uint8"},{"internalType":"uint8","name":"length","type":"uint8"}],"internalType":"struct ExPopulusCardGameLogic.State","name":"enemyState","type":"tuple"}],"name":"getTurn","outputs":[{"internalType":"uint256","name":"","type":"uint256"}],"stateMutability":"pure","type":"function"},{"inputs":[],"name":"owner","outputs":[{"internalType":"address","name":"","type":"address"}],"stateMutability":"view","type":"function"},{"inputs":[{"internalType":"address","name":"","type":"address"}],"name":"records","outputs":[{"internalType":"uint256","name":"wins","type":"uint256"},{"internalType":"uint256","name":"losses","type":"uint256"},{"internalType":"uint256","name":"draws","type":"uint256"},{"internalType":"uint256","name":"streak","type":"uint256"}],"stateMutability":"view","type":"function"},{"inputs":[],"name":"renounceOwnership","outputs":[],"stateMutability":"nonpayable","type":"function"},{"inputs":[{"internalType":"address","name":"_cards","type":"address"}],"name":"setCards","outputs":[],"stateMutability":"nonpayable","type":"function"},{"inputs":[{"internalType":"address","name":"_token","type":"address"}],"name":"setToken","outputs":[],"stateMutability":"nonpayable","type":"function"},{"inputs":[],"name":"token","outputs":[{"internalType":"contract ExPopulusToken","name":"","type":"address"}],"stateMutability":"view","type":"function"},{"inputs":[{"internalType":"address","name":"newOwner","type":"address"}],"name":"transferOwnership","outputs":[],"stateMutability":"nonpayable","type":"function"},{"inputs":[{"internalType":"uint256[3]","name":"ids","type":"uint256[3]"}],"name":"validate","outputs":[],"stateMutability":"view","type":"function"}],"evm":{"bytecode":{"linkReferences":{},"object":"60806040526000196001553480156200001757600080fd5b5060405162001ff838038062001ff88339810160408190526200003a916200010c565b33806200006157604051631e4fbdf760e01b81526000600482015260240160405180910390fd5b6200006c816200009f565b50600280546001600160a01b039384166001600160a01b0319918216179091556003805492909316911617905562000144565b600080546001600160a01b038381166001600160a01b0319831681178455604051919092169283917f8be0079c531659141344cd1fd0a4f28419497f9722a3daafe3b4186f6b6457e09190a35050565b80516001600160a01b03811681146200010757600080fd5b919050565b600080604083850312156200012057600080fd5b6200012b83620000ef565b91506200013b60208401620000ef565b90509250929050565b611ea480620001546000396000f3fe608060405234801561001057600080fd5b50600436106100f55760003560e01c8063715018a611610097578063e350e5c911610066578063e350e5c914610303578063f2fde38b14610316578063fc0c546a14610329578063ff0b17d61461033c57600080fd5b8063715018a6146102b75780638da5cb5b146102bf578063bec8f3c2146102d0578063e1beb977146102f057600080fd5b80634537a22e116100d35780634537a22e14610148578063469e90671461022457806358a4903f1461027957806363c5633e146102a457600080fd5b8063144fa6d7146100fa5780632a74b2e01461010f57806338f73fa214610122575b600080fd5b61010d610108366004611906565b61034f565b005b61010d61011d366004611969565b610386565b610135610130366004611ace565b610d2e565b6040519081526020015b60405180910390f35b610217610156366004611b05565b604080516101008082018352600080835260208084018290528385018290526060808501839052608080860184905260a080870185905260c080880186905260e09788019590955287519586018852600160f88a901c81168114875260f78a901c811681149487019490945260f689901c84169093149685019690965260ff60ee88901c81169185019190915260e687901c81169584019590955260de86901c85169083015260d685901c84169082015260ce9390931c9091169082015290565b60405161013f9190611b99565b610259610232366004611906565b60046020526000908152604090208054600182015460028301546003909301549192909184565b60408051948552602085019390935291830152606082015260800161013f565b60025461028c906001600160a01b031681565b6040516001600160a01b03909116815260200161013f565b61010d6102b2366004611969565b610d58565b61010d610fe5565b6000546001600160a01b031661028c565b6102e36102de366004611b05565b610ff9565b60405161013f9190611ba8565b6101356102fe366004611c0b565b611350565b61010d610311366004611906565b611381565b61010d610324366004611906565b6113b8565b60035461028c906001600160a01b031681565b61013561034a366004611c2d565b61140c565b610357611510565b6003805473ffffffffffffffffffffffffffffffffffffffff19166001600160a01b0392909216919091179055565b3233146103da5760405162461bcd60e51b815260206004820152600c60248201527f6f6e6c792077616c6c657473000000000000000000000000000000000000000060448201526064015b60405180910390fd5b6103e381610d58565b60006103f0600154611556565b600081815260056020526040812091925061040a846115b6565b9050600061048d600260009054906101000a90046001600160a01b03166001600160a01b031663d8fc7a626040518163ffffffff1660e01b8152600401606060405180830381865afa158015610464573d6000803e3d6000fd5b505050506040513d601f19601f820116820180604052508101906104889190611c4a565b6115b6565b90506000604051806101000160405280600015158152602001600015158152602001600015158152602001846000815181106104cb576104cb611c9f565b60200260200101516020015160ff168152602001846000815181106104f2576104f2611c9f565b60200260200101516040015160ff1681526020018460008151811061051957610519611c9f565b60200260200101516000015160ff168152602001600060ff168152602001845160ff16815250905060006040518061010001604052806000151581526020016000151581526020016000151581526020018460008151811061057d5761057d611c9f565b60200260200101516020015160ff168152602001846000815181106105a4576105a4611c9f565b60200260200101516040015160ff168152602001846000815181106105cb576105cb611c9f565b6020908102919091018101515160ff908116835260008383018190528751909116604093840152825161010080820185528282528184018390528185018390526060808301849052608080840185905260a080850186905260c080860187905260e080870188905289519586018a5287865297850187905297840186905291830185905282018490528101839052938401829052918301529192505b85518460c0015160ff16108015610685575084518360c0015160ff16105b15610bc457835115801561069857508251155b156108175760018085528352600254608080860151908501516040517f6887eee800000000000000000000000000000000000000000000000000000000815260ff9283166004820152911660248201526001600160a01b0390911690636887eee890604401602060405180830381865afa15801561071a573d6000803e3d6000fd5b505050506040513d601f19601f8201168201806040525081019061073e9190611cb5565b1561074d575082905081610753565b50819050825b6000806000610765856080015161172f565b151560208701529015156040870152925082156107b35760e084015160ff1660c0850152896107948888610d2e565b8154600181018355600092835260209092209091015550610bc4915050565b836020015161080f576107c9846080015161172f565b91151560408701529250905081156107f35760e085015160ff1660c0860152896107948888610d2e565b80801561080257508460400151155b1561080f57600160208601525b5050506108cf565b8351610883576001845260808401516000906108329061172f565b1515602087015290151560408701529050801561087d5760e084015160ff1660c0850152876108618686610d2e565b8154600181018355600092835260209092209091015550610bc4565b506108cf565b82516108cf5760018352608083015160009061089e9061172f565b151560208801529015156040860152905080156108cd5760e085015160ff1660c0860152876108618686610d2e565b505b8360200151806108e0575082604001515b156109bd578260a0015160ff16846060015160ff161161099c5760c0840180519061090a82611ce8565b60ff1660ff168152505085518460c0015160ff1603610949578661092e8585610d2e565b81546001810183556000928352602090922090910155610bc4565b61099784878660c0015160ff168151811061096657610966611c9f565b6020026020010151602081015160ff908116606084015260408201518116608084015290511660a082015260009052565b610b83565b8260a00151846060018181516109b29190611d07565b60ff16905250610b83565b8260200151806109ce575083604001515b15610a55578360a0015160ff16836060015160ff1611610a3f5760c083018051906109f882611ce8565b60ff1660ff16815250508260e0015160ff168360c0015160ff1603610a22578661092e8585610d2e565b61099783868560c0015160ff168151811061096657610966611c9f565b8360a00151836060018181516109b29190611d07565b8260a0015160ff16846060015160ff1611610a815760c08401805190610a7a82611ce8565b60ff169052505b8360a0015160ff16836060015160ff1611610aad5760c08301805190610aa682611ce8565b60ff169052505b85518460c0015160ff161480610ad057508260e0015160ff168360c0015160ff16145b15610ae0578661092e8585610d2e565b8260a0015160ff16846060015160ff1611610b1757610b1284878660c0015160ff168151811061096657610966611c9f565b610b34565b8260a0015184606001818151610b2d9190611d07565b60ff169052505b8360a0015160ff16836060015160ff1611610b665761099783868560c0015160ff168151811061096657610966611c9f565b8360a0015183606001818151610b7c9190611d07565b60ff169052505b86610b8e8585610d2e565b81546001810183556000928352602080842090910191909155850181905260408501526000602084018190526040840152610667565b336000908152600460209081526040808320815160808101835281548152600182015493810193909352600281015491830191909152600301546060820152875160c087015191929160ff16148015610c24575086518560c0015160ff16145b15610c455760408201805190610c3982611d20565b90525060009050610c9d565b87518660c0015160ff1603610c765760208201805190610c6482611d20565b90525050600060608201526002610c9d565b815182610c8282611d20565b90525060608201805190610c9582611d20565b905250600190505b3360009081526004602090815260409182902084518082559185015160018201559184015160028301556060840151600390920191909155610ce29060ff83166117f0565b7f6aeaa88470c08aa431fe4452b98ae2afdd6dc449509ae67ba2487e570951abbd338b8a8a85604051610d19959493929190611d92565b60405180910390a15050505050505050505050565b600080610d3a8461140c565b90506000610d478461140c565b60801c919091179150505b92915050565b60025481516040516331a9108f60e11b8152600481019190915233916001600160a01b031690636352211e90602401602060405180830381865afa158015610da4573d6000803e3d6000fd5b505050506040513d601f19601f82011682018060405250810190610dc89190611de2565b6001600160a01b031614158015610ddf5750805115155b80610e72575060025460208201516040516331a9108f60e11b8152600481019190915233916001600160a01b031690636352211e90602401602060405180830381865afa158015610e34573d6000803e3d6000fd5b505050506040513d601f19601f82011682018060405250810190610e589190611de2565b6001600160a01b031614158015610e725750602081015115155b80610f05575060025460408083015190516331a9108f60e11b8152600481019190915233916001600160a01b031690636352211e90602401602060405180830381865afa158015610ec7573d6000803e3d6000fd5b505050506040513d601f19601f82011682018060405250810190610eeb9190611de2565b6001600160a01b031614158015610f055750604081015115155b15610f525760405162461bcd60e51b815260206004820152601660248201527f796f75206d757374206f776e20616c6c2063617264730000000000000000000060448201526064016103d1565b602081015181511480610f69575060408101518151145b8015610f755750805115155b80610f95575060408101516020820151148015610f955750602081015115155b15610fe25760405162461bcd60e51b815260206004820152601260248201527f696473206d75737420626520756e69717565000000000000000000000000000060448201526064016103d1565b50565b610fed611510565b610ff76000611894565b565b600081815260056020908152604080832080548251818502810185019093528083526060949383018282801561104e57602002820191906000526020600020905b81548152602001906001019080831161103a575b505050505090506000815167ffffffffffffffff8111156110715761107161192a565b60405190808252806020026020018201604052801561113657816020015b61112360408051610140810182526000918101828152606082018390526080820183905260a0820183905260c0820183905260e0820183905261010082018390526101208201929092529081908152604080516101008101825260008082526020828101829052928201819052606082018190526080820181905260a0820181905260c0820181905260e082015291015290565b81526020019060019003908161108f5790505b50905060005b825181101561134857604051806040016040528061122e85848151811061116557611165611c9f565b6020026020010151604080516101008082018352600080835260208084018290528385018290526060808501839052608080860184905260a080870185905260c080880186905260e09788019590955287519586018852600160f88a901c81168114875260f78a901c811681149487019490945260f689901c84169093149685019690965260ff60ee88901c81169185019190915260e687901c81169584019590955260de86901c85169083015260d685901c84169082015260ce9390931c9091169082015290565b8152602001611315608086858151811061124a5761124a611c9f565b6020026020010151901b604080516101008082018352600080835260208084018290528385018290526060808501839052608080860184905260a080870185905260c080880186905260e09788019590955287519586018852600160f88a901c81168114875260f78a901c811681149487019490945260f689901c84169093149685019690965260ff60ee88901c81169185019190915260e687901c81169584019590955260de86901c85169083015260d685901c84169082015260ce9390931c9091169082015290565b81525082828151811061132a5761132a611c9f565b6020026020010181905250808061134090611d20565b91505061113c565b509392505050565b6005602052816000526040600020818154811061136c57600080fd5b90600052602060002001600091509150505481565b611389611510565b6002805473ffffffffffffffffffffffffffffffffffffffff19166001600160a01b0392909216919091179055565b6113c0611510565b6001600160a01b038116611403576040517f1e4fbdf7000000000000000000000000000000000000000000000000000000008152600060048201526024016103d1565b610fe281611894565b8051602082015160408301516060840151608085015160a086015160c087015160e09097015160f89690961b60f79590951b9490941760f69390931b9290921760ee9190911b7e3fc00000000000000000000000000000000000000000000000000000000000161760e69190911b7d3fc000000000000000000000000000000000000000000000000000000000161760de9190911b7c3fc0000000000000000000000000000000000000000000000000000000161760d69290921b7b3fc00000000000000000000000000000000000000000000000000000169190911760ce9190911b7a3fc000000000000000000000000000000000000000000000000000161790565b6000546001600160a01b03163314610ff7576040517f118cdaa70000000000000000000000000000000000000000000000000000000081523360048201526024016103d1565b6040805142602082015244918101919091526bffffffffffffffffffffffff1933606090811b82168184015232901b16607482015260009082906088016040516020818303038152906040528051906020012060001c610d529190611dff565b6040805160038082526080820190925260609160009190816020015b60408051606081018252600080825260208083018290529282015282526000199092019101816115d25790505090506000805b60038110156117265784816003811061162057611620611c9f565b6020020151156117145760408051606081018252600080825260208201819052918101919091526002546001600160a01b031663ef7c895987846003811061166a5761166a611c9f565b60200201516040518263ffffffff1660e01b815260040161168d91815260200190565b606060405180830381865afa1580156116aa573d6000803e3d6000fd5b505050506040513d601f19601f820116820180604052508101906116ce9190611e21565b60ff90811660408501529081166020840152168152835181908590859081106116f9576116f9611c9f565b6020026020010181905250828061170f90611d20565b935050505b8061171e81611d20565b915050611605565b50909392505050565b60008060008360ff1660000361174e57506001915060009050806117e9565b8360ff1660010361178757605a6117656064611556565b1061177957506000915060019050816117e9565b5060009150819050806117e9565b8360ff166002036117a157506000915081905060016117e9565b60405162461bcd60e51b815260206004820152600f60248201527f696e76616c6964206162696c697479000000000000000000000000000000000060448201526064016103d1565b9193909250565b80600103611890576064611805600584611dff565b60000361181157506103e85b6003546040517f79c65068000000000000000000000000000000000000000000000000000000008152336004820152602481018390526001600160a01b03909116906379c6506890604401600060405180830381600087803b15801561187657600080fd5b505af115801561188a573d6000803e3d6000fd5b50505050505b5050565b600080546001600160a01b0383811673ffffffffffffffffffffffffffffffffffffffff19831681178455604051919092169283917f8be0079c531659141344cd1fd0a4f28419497f9722a3daafe3b4186f6b6457e09190a35050565b6001600160a01b0381168114610fe257600080fd5b60006020828403121561191857600080fd5b8135611923816118f1565b9392505050565b634e487b7160e01b600052604160045260246000fd5b6040516060810167ffffffffffffffff811182821017156119635761196361192a565b60405290565b60006060828403121561197b57600080fd5b82601f83011261198a57600080fd5b611992611940565b8060608401858111156119a457600080fd5b845b818110156119be5780358452602093840193016119a6565b509095945050505050565b8015158114610fe257600080fd5b80356119e2816119c9565b919050565b60ff81168114610fe257600080fd5b80356119e2816119e7565b6000610100808385031215611a1557600080fd5b6040519081019067ffffffffffffffff82118183101715611a3857611a3861192a565b8160405280925083359150611a4c826119c9565b818152611a5b602085016119d7565b6020820152611a6c604085016119d7565b6040820152611a7d606085016119f6565b6060820152611a8e608085016119f6565b6080820152611a9f60a085016119f6565b60a0820152611ab060c085016119f6565b60c0820152611ac160e085016119f6565b60e0820152505092915050565b6000806102008385031215611ae257600080fd5b611aec8484611a01565b9150611afc846101008501611a01565b90509250929050565b600060208284031215611b1757600080fd5b5035919050565b80511515825260208101511515602083015260408101511515604083015260ff606082015116606083015260ff608082015116608083015260a0810151611b6a60a084018260ff169052565b5060c0810151611b7f60c084018260ff169052565b5060e0810151611b9460e084018260ff169052565b505050565b6101008101610d528284611b1e565b6020808252825182820181905260009190848201906040850190845b81811015611bff578351611bd9848251611b1e565b850151611bea610100850182611b1e565b50928401926102009290920191600101611bc4565b50909695505050505050565b60008060408385031215611c1e57600080fd5b50508035926020909101359150565b60006101008284031215611c4057600080fd5b6119238383611a01565b600060608284031215611c5c57600080fd5b82601f830112611c6b57600080fd5b611c73611940565b806060840185811115611c8557600080fd5b845b818110156119be578051845260209384019301611c87565b634e487b7160e01b600052603260045260246000fd5b600060208284031215611cc757600080fd5b8151611923816119c9565b634e487b7160e01b600052601160045260246000fd5b600060ff821660ff8103611cfe57611cfe611cd2565b60010192915050565b60ff8281168282160390811115610d5257610d52611cd2565b600060018201611d3257611d32611cd2565b5060010190565b600081518084526020808501945080840160005b83811015611d87578151805160ff9081168952848201518116858a0152604091820151169088015260609096019590820190600101611d4d565b509495945050505050565b6001600160a01b038616815284602082015260a060408201526000611dba60a0830186611d39565b8281036060840152611dcc8186611d39565b91505060ff831660808301529695505050505050565b600060208284031215611df457600080fd5b8151611923816118f1565b600082611e1c57634e487b7160e01b600052601260045260246000fd5b500690565b600080600060608486031215611e3657600080fd5b8351611e41816119e7565b6020850151909350611e52816119e7565b6040850151909250611e63816119e7565b80915050925092509256fea2646970667358221220602fdd8aa0c1b4d7ecd047f95a05071852a95b54423fae7f937e628912041fb064736f6c63430008140033","opcodes":"PUSH1 0x80 PUSH1 0x40 MSTORE PUSH1 0x0 NOT PUSH1 0x1 SSTORE CALLVALUE DUP1 ISZERO PUSH3 0x17 JUMPI PUSH1 0x0 DUP1 REVERT JUMPDEST POP PUSH1 0x40 MLOAD PUSH3 0x1FF8 CODESIZE SUB DUP1 PUSH3 0x1FF8 DUP4 CODECOPY DUP2 ADD PUSH1 0x40 DUP2 SWAP1 MSTORE PUSH3 0x3A SWAP2 PUSH3 0x10C JUMP JUMPDEST CALLER DUP1 PUSH3 0x61 JUMPI PUSH1 0x40 MLOAD PUSH4 0x1E4FBDF7 PUSH1 0xE0 SHL DUP2 MSTORE PUSH1 0x0 PUSH1 0x4 DUP3 ADD MSTORE PUSH1 0x24 ADD PUSH1 0x40 MLOAD DUP1 SWAP2 SUB SWAP1 REVERT JUMPDEST PUSH3 0x6C DUP2 PUSH3 0x9F JUMP JUMPDEST POP PUSH1 0x2 DUP1 SLOAD PUSH1 0x1 PUSH1 0x1 PUSH1 0xA0 SHL SUB SWAP4 DUP5 AND PUSH1 0x1 PUSH1 0x1 PUSH1 0xA0 SHL SUB NOT SWAP2 DUP3 AND OR SWAP1 SWAP2 SSTORE PUSH1 0x3 DUP1 SLOAD SWAP3 SWAP1 SWAP4 AND SWAP2 AND OR SWAP1 SSTORE PUSH3 0x144 JUMP JUMPDEST PUSH1 0x0 DUP1 SLOAD PUSH1 0x1 PUSH1 0x1 PUSH1 0xA0 SHL SUB DUP4 DUP2 AND PUSH1 0x1 PUSH1 0x1 PUSH1 0xA0 SHL SUB NOT DUP4 AND DUP2 OR DUP5 SSTORE PUSH1 0x40 MLOAD SWAP2 SWAP1 SWAP3 AND SWAP3 DUP4 SWAP2 PUSH32 0x8BE0079C531659141344CD1FD0A4F28419497F9722A3DAAFE3B4186F6B6457E0 SWAP2 SWAP1 LOG3 POP POP JUMP JUMPDEST DUP1 MLOAD PUSH1 0x1 PUSH1 0x1 PUSH1 0xA0 SHL SUB DUP2 AND DUP2 EQ PUSH3 0x107 JUMPI PUSH1 0x0 DUP1 REVERT JUMPDEST SWAP2 SWAP1 POP JUMP JUMPDEST PUSH1 0x0 DUP1 PUSH1 0x40 DUP4 DUP6 SUB SLT ISZERO PUSH3 0x120 JUMPI PUSH1 0x0 DUP1 REVERT JUMPDEST PUSH3 0x12B DUP4 PUSH3 0xEF JUMP JUMPDEST SWAP2 POP PUSH3 0x13B PUSH1 0x20 DUP5 ADD PUSH3 0xEF JUMP JUMPDEST SWAP1 POP SWAP3 POP SWAP3 SWAP1 POP JUMP JUMPDEST PUSH2 0x1EA4 DUP1 PUSH3 0x154 PUSH1 0x0 CODECOPY PUSH1 0x0 RETURN INVALID PUSH1 0x80 PUSH1 0x40 MSTORE CALLVALUE DUP1 ISZERO PUSH2 0x10 JUMPI PUSH1 0x0 DUP1 REVERT JUMPDEST POP PUSH1 0x4 CALLDATASIZE LT PUSH2 0xF5 JUMPI PUSH1 0x0 CALLDATALOAD PUSH1 0xE0 SHR DUP1 PUSH4 0x715018A6 GT PUSH2 0x97 JUMPI DUP1 PUSH4 0xE350E5C9 GT PUSH2 0x66 JUMPI DUP1 PUSH4 0xE350E5C9 EQ PUSH2 0x303 JUMPI DUP1 PUSH4 0xF2FDE38B EQ PUSH2 0x316 JUMPI DUP1 PUSH4 0xFC0C546A EQ PUSH2 0x329 JUMPI DUP1 PUSH4 0xFF0B17D6 EQ PUSH2 0x33C JUMPI PUSH1 0x0 DUP1 REVERT JUMPDEST DUP1 PUSH4 0x715018A6 EQ PUSH2 0x2B7 JUMPI DUP1 PUSH4 0x8DA5CB5B EQ PUSH2 0x2BF JUMPI DUP1 PUSH4 0xBEC8F3C2 EQ PUSH2 0x2D0 JUMPI DUP1 PUSH4 0xE1BEB977 EQ PUSH2 0x2F0 JUMPI PUSH1 0x0 DUP1 REVERT JUMPDEST DUP1 PUSH4 0x4537A22E GT PUSH2 0xD3 JUMPI DUP1 PUSH4 0x4537A22E EQ PUSH2 0x148 JUMPI DUP1 PUSH4 0x469E9067 EQ PUSH2 0x224 JUMPI DUP1 PUSH4 0x58A4903F EQ PUSH2 0x279 JUMPI DUP1 PUSH4 0x63C5633E EQ PUSH2 0x2A4 JUMPI PUSH1 0x0 DUP1 REVERT JUMPDEST DUP1 PUSH4 0x144FA6D7 EQ PUSH2 0xFA JUMPI DUP1 PUSH4 0x2A74B2E0 EQ PUSH2 0x10F JUMPI DUP1 PUSH4 0x38F73FA2 EQ PUSH2 0x122 JUMPI JUMPDEST PUSH1 0x0 DUP1 REVERT JUMPDEST PUSH2 0x10D PUSH2 0x108 CALLDATASIZE PUSH1 0x4 PUSH2 0x1906 JUMP JUMPDEST PUSH2 0x34F JUMP JUMPDEST STOP JUMPDEST PUSH2 0x10D PUSH2 0x11D CALLDATASIZE PUSH1 0x4 PUSH2 0x1969 JUMP JUMPDEST PUSH2 0x386 JUMP JUMPDEST PUSH2 0x135 PUSH2 0x130 CALLDATASIZE PUSH1 0x4 PUSH2 0x1ACE JUMP JUMPDEST PUSH2 0xD2E JUMP JUMPDEST PUSH1 0x40 MLOAD SWAP1 DUP2 MSTORE PUSH1 0x20 ADD JUMPDEST PUSH1 0x40 MLOAD DUP1 SWAP2 SUB SWAP1 RETURN JUMPDEST PUSH2 0x217 PUSH2 0x156 CALLDATASIZE PUSH1 0x4 PUSH2 0x1B05 JUMP JUMPDEST PUSH1 0x40 DUP1 MLOAD PUSH2 0x100 DUP1 DUP3 ADD DUP4 MSTORE PUSH1 0x0 DUP1 DUP4 MSTORE PUSH1 0x20 DUP1 DUP5 ADD DUP3 SWAP1 MSTORE DUP4 DUP6 ADD DUP3 SWAP1 MSTORE PUSH1 0x60 DUP1 DUP6 ADD DUP4 SWAP1 MSTORE PUSH1 0x80 DUP1 DUP7 ADD DUP5 SWAP1 MSTORE PUSH1 0xA0 DUP1 DUP8 ADD DUP6 SWAP1 MSTORE PUSH1 0xC0 DUP1 DUP9 ADD DUP7 SWAP1 MSTORE PUSH1 0xE0 SWAP8 DUP9 ADD SWAP6 SWAP1 SWAP6 MSTORE DUP8 MLOAD SWAP6 DUP7 ADD DUP9 MSTORE PUSH1 0x1 PUSH1 0xF8 DUP11 SWAP1 SHR DUP2 AND DUP2 EQ DUP8 MSTORE PUSH1 0xF7 DUP11 SWAP1 SHR DUP2 AND DUP2 EQ SWAP5 DUP8 ADD SWAP5 SWAP1 SWAP5 MSTORE PUSH1 0xF6 DUP10 SWAP1 SHR DUP5 AND SWAP1 SWAP4 EQ SWAP7 DUP6 ADD SWAP7 SWAP1 SWAP7 MSTORE PUSH1 0xFF PUSH1 0xEE DUP9 SWAP1 SHR DUP2 AND SWAP2 DUP6 ADD SWAP2 SWAP1 SWAP2 MSTORE PUSH1 0xE6 DUP8 SWAP1 SHR DUP2 AND SWAP6 DUP5 ADD SWAP6 SWAP1 SWAP6 MSTORE PUSH1 0xDE DUP7 SWAP1 SHR DUP6 AND SWAP1 DUP4 ADD MSTORE PUSH1 0xD6 DUP6 SWAP1 SHR DUP5 AND SWAP1 DUP3 ADD MSTORE PUSH1 0xCE SWAP4 SWAP1 SWAP4 SHR SWAP1 SWAP2 AND SWAP1 DUP3 ADD MSTORE SWAP1 JUMP JUMPDEST PUSH1 0x40 MLOAD PUSH2 0x13F SWAP2 SWAP1 PUSH2 0x1B99 JUMP JUMPDEST PUSH2 0x259 PUSH2 0x232 CALLDATASIZE PUSH1 0x4 PUSH2 0x1906 JUMP JUMPDEST PUSH1 0x4 PUSH1 0x20 MSTORE PUSH1 0x0 SWAP1 DUP2 MSTORE PUSH1 0x40 SWAP1 KECCAK256 DUP1 SLOAD PUSH1 0x1 DUP3 ADD SLOAD PUSH1 0x2 DUP4 ADD SLOAD PUSH1 0x3 SWAP1 SWAP4 ADD SLOAD SWAP2 SWAP3 SWAP1 SWAP2 DUP5 JUMP JUMPDEST PUSH1 0x40 DUP1 MLOAD SWAP5 DUP6 MSTORE PUSH1 0x20 DUP6 ADD SWAP4 SWAP1 SWAP4 MSTORE SWAP2 DUP4 ADD MSTORE PUSH1 0x60 DUP3 ADD MSTORE PUSH1 0x80 ADD PUSH2 0x13F JUMP JUMPDEST PUSH1 0x2 SLOAD PUSH2 0x28C SWAP1 PUSH1 0x1 PUSH1 0x1 PUSH1 0xA0 SHL SUB AND DUP2 JUMP JUMPDEST PUSH1 0x40 MLOAD PUSH1 0x1 PUSH1 0x1 PUSH1 0xA0 SHL SUB SWAP1 SWAP2 AND DUP2 MSTORE PUSH1 0x20 ADD PUSH2 0x13F JUMP JUMPDEST PUSH2 0x10D PUSH2 0x2B2 CALLDATASIZE PUSH1 0x4 PUSH2 0x1969 JUMP JUMPDEST PUSH2 0xD58 JUMP JUMPDEST PUSH2 0x10D PUSH2 0xFE5 JUMP JUMPDEST PUSH1 0x0 SLOAD PUSH1 0x1 PUSH1 0x1 PUSH1 0xA0 SHL SUB AND PUSH2 0x28C JUMP JUMPDEST PUSH2 0x2E3 PUSH2 0x2DE CALLDATASIZE PUSH1 0x4 PUSH2 0x1B05 JUMP JUMPDEST PUSH2 0xFF9 JUMP JUMPDEST PUSH1 0x40 MLOAD PUSH2 0x13F SWAP2 SWAP1 PUSH2 0x1BA8 JUMP JUMPDEST PUSH2 0x135 PUSH2 0x2FE CALLDATASIZE PUSH1 0x4 PUSH2 0x1C0B JUMP JUMPDEST PUSH2 0x1350 JUMP JUMPDEST PUSH2 0x10D PUSH2 0x311 CALLDATASIZE PUSH1 0x4 PUSH2 0x1906 JUMP JUMPDEST PUSH2 0x1381 JUMP JUMPDEST PUSH2 0x10D PUSH2 0x324 CALLDATASIZE PUSH1 0x4 PUSH2 0x1906 JUMP JUMPDEST PUSH2 0x13B8 JUMP JUMPDEST PUSH1 0x3 SLOAD PUSH2 0x28C SWAP1 PUSH1 0x1 PUSH1 0x1 PUSH1 0xA0 SHL SUB AND DUP2 JUMP JUMPDEST PUSH2 0x135 PUSH2 0x34A CALLDATASIZE PUSH1 0x4 PUSH2 0x1C2D JUMP JUMPDEST PUSH2 0x140C JUMP JUMPDEST PUSH2 0x357 PUSH2 0x1510 JUMP JUMPDEST PUSH1 0x3 DUP1 SLOAD PUSH20 0xFFFFFFFFFFFFFFFFFFFFFFFFFFFFFFFFFFFFFFFF NOT AND PUSH1 0x1 PUSH1 0x1 PUSH1 0xA0 SHL SUB SWAP3 SWAP1 SWAP3 AND SWAP2 SWAP1 SWAP2 OR SWAP1 SSTORE JUMP JUMPDEST ORIGIN CALLER EQ PUSH2 0x3DA JUMPI PUSH1 0x40 MLOAD PUSH3 0x461BCD PUSH1 0xE5 SHL DUP2 MSTORE PUSH1 0x20 PUSH1 0x4 DUP3 ADD MSTORE PUSH1 0xC PUSH1 0x24 DUP3 ADD MSTORE PUSH32 0x6F6E6C792077616C6C6574730000000000000000000000000000000000000000 PUSH1 0x44 DUP3 ADD MSTORE PUSH1 0x64 ADD JUMPDEST PUSH1 0x40 MLOAD DUP1 SWAP2 SUB SWAP1 REVERT JUMPDEST PUSH2 0x3E3 DUP2 PUSH2 0xD58 JUMP JUMPDEST PUSH1 0x0 PUSH2 0x3F0 PUSH1 0x1 SLOAD PUSH2 0x1556 JUMP JUMPDEST PUSH1 0x0 DUP2 DUP2 MSTORE PUSH1 0x5 PUSH1 0x20 MSTORE PUSH1 0x40 DUP2 KECCAK256 SWAP2 SWAP3 POP PUSH2 0x40A DUP5 PUSH2 0x15B6 JUMP JUMPDEST SWAP1 POP PUSH1 0x0 PUSH2 0x48D PUSH1 0x2 PUSH1 0x0 SWAP1 SLOAD SWAP1 PUSH2 0x100 EXP SWAP1 DIV PUSH1 0x1 PUSH1 0x1 PUSH1 0xA0 SHL SUB AND PUSH1 0x1 PUSH1 0x1 PUSH1 0xA0 SHL SUB AND PUSH4 0xD8FC7A62 PUSH1 0x40 MLOAD DUP2 PUSH4 0xFFFFFFFF AND PUSH1 0xE0 SHL DUP2 MSTORE PUSH1 0x4 ADD PUSH1 0x60 PUSH1 0x40 MLOAD DUP1 DUP4 SUB DUP2 DUP7 GAS STATICCALL ISZERO DUP1 ISZERO PUSH2 0x464 JUMPI RETURNDATASIZE PUSH1 0x0 DUP1 RETURNDATACOPY RETURNDATASIZE PUSH1 0x0 REVERT JUMPDEST POP POP POP POP PUSH1 0x40 MLOAD RETURNDATASIZE PUSH1 0x1F NOT PUSH1 0x1F DUP3 ADD AND DUP3 ADD DUP1 PUSH1 0x40 MSTORE POP DUP2 ADD SWAP1 PUSH2 0x488 SWAP2 SWAP1 PUSH2 0x1C4A JUMP JUMPDEST PUSH2 0x15B6 JUMP JUMPDEST SWAP1 POP PUSH1 0x0 PUSH1 0x40 MLOAD DUP1 PUSH2 0x100 ADD PUSH1 0x40 MSTORE DUP1 PUSH1 0x0 ISZERO ISZERO DUP2 MSTORE PUSH1 0x20 ADD PUSH1 0x0 ISZERO ISZERO DUP2 MSTORE PUSH1 0x20 ADD PUSH1 0x0 ISZERO ISZERO DUP2 MSTORE PUSH1 0x20 ADD DUP5 PUSH1 0x0 DUP2 MLOAD DUP2 LT PUSH2 0x4CB JUMPI PUSH2 0x4CB PUSH2 0x1C9F JUMP JUMPDEST PUSH1 0x20 MUL PUSH1 0x20 ADD ADD MLOAD PUSH1 0x20 ADD MLOAD PUSH1 0xFF AND DUP2 MSTORE PUSH1 0x20 ADD DUP5 PUSH1 0x0 DUP2 MLOAD DUP2 LT PUSH2 0x4F2 JUMPI PUSH2 0x4F2 PUSH2 0x1C9F JUMP JUMPDEST PUSH1 0x20 MUL PUSH1 0x20 ADD ADD MLOAD PUSH1 0x40 ADD MLOAD PUSH1 0xFF AND DUP2 MSTORE PUSH1 0x20 ADD DUP5 PUSH1 0x0 DUP2 MLOAD DUP2 LT PUSH2 0x519 JUMPI PUSH2 0x519 PUSH2 0x1C9F JUMP JUMPDEST PUSH1 0x20 MUL PUSH1 0x20 ADD ADD MLOAD PUSH1 0x0 ADD MLOAD PUSH1 0xFF AND DUP2 MSTORE PUSH1 0x20 ADD PUSH1 0x0 PUSH1 0xFF AND DUP2 MSTORE PUSH1 0x20 ADD DUP5 MLOAD PUSH1 0xFF AND DUP2 MSTORE POP SWAP1 POP PUSH1 0x0 PUSH1 0x40 MLOAD DUP1 PUSH2 0x100 ADD PUSH1 0x40 MSTORE DUP1 PUSH1 0x0 ISZERO ISZERO DUP2 MSTORE PUSH1 0x20 ADD PUSH1 0x0 ISZERO ISZERO DUP2 MSTORE PUSH1 0x20 ADD PUSH1 0x0 ISZERO ISZERO DUP2 MSTORE PUSH1 0x20 ADD DUP5 PUSH1 0x0 DUP2 MLOAD DUP2 LT PUSH2 0x57D JUMPI PUSH2 0x57D PUSH2 0x1C9F JUMP JUMPDEST PUSH1 0x20 MUL PUSH1 0x20 ADD ADD MLOAD PUSH1 0x20 ADD MLOAD PUSH1 0xFF AND DUP2 MSTORE PUSH1 0x20 ADD DUP5 PUSH1 0x0 DUP2 MLOAD DUP2 LT PUSH2 0x5A4 JUMPI PUSH2 0x5A4 PUSH2 0x1C9F JUMP JUMPDEST PUSH1 0x20 MUL PUSH1 0x20 ADD ADD MLOAD PUSH1 0x40 ADD MLOAD PUSH1 0xFF AND DUP2 MSTORE PUSH1 0x20 ADD DUP5 PUSH1 0x0 DUP2 MLOAD DUP2 LT PUSH2 0x5CB JUMPI PUSH2 0x5CB PUSH2 0x1C9F JUMP JUMPDEST PUSH1 0x20 SWAP1 DUP2 MUL SWAP2 SWAP1 SWAP2 ADD DUP2 ADD MLOAD MLOAD PUSH1 0xFF SWAP1 DUP2 AND DUP4 MSTORE PUSH1 0x0 DUP4 DUP4 ADD DUP2 SWAP1 MSTORE DUP8 MLOAD SWAP1 SWAP2 AND PUSH1 0x40 SWAP4 DUP5 ADD MSTORE DUP3 MLOAD PUSH2 0x100 DUP1 DUP3 ADD DUP6 MSTORE DUP3 DUP3 MSTORE DUP2 DUP5 ADD DUP4 SWAP1 MSTORE DUP2 DUP6 ADD DUP4 SWAP1 MSTORE PUSH1 0x60 DUP1 DUP4 ADD DUP5 SWAP1 MSTORE PUSH1 0x80 DUP1 DUP5 ADD DUP6 SWAP1 MSTORE PUSH1 0xA0 DUP1 DUP6 ADD DUP7 SWAP1 MSTORE PUSH1 0xC0 DUP1 DUP7 ADD DUP8 SWAP1 MSTORE PUSH1 0xE0 DUP1 DUP8 ADD DUP9 SWAP1 MSTORE DUP10 MLOAD SWAP6 DUP7 ADD DUP11 MSTORE DUP8 DUP7 MSTORE SWAP8 DUP6 ADD DUP8 SWAP1 MSTORE SWAP8 DUP5 ADD DUP7 SWAP1 MSTORE SWAP2 DUP4 ADD DUP6 SWAP1 MSTORE DUP3 ADD DUP5 SWAP1 MSTORE DUP2 ADD DUP4 SWAP1 MSTORE SWAP4 DUP5 ADD DUP3 SWAP1 MSTORE SWAP2 DUP4 ADD MSTORE SWAP2 SWAP3 POP JUMPDEST DUP6 MLOAD DUP5 PUSH1 0xC0 ADD MLOAD PUSH1 0xFF AND LT DUP1 ISZERO PUSH2 0x685 JUMPI POP DUP5 MLOAD DUP4 PUSH1 0xC0 ADD MLOAD PUSH1 0xFF AND LT JUMPDEST ISZERO PUSH2 0xBC4 JUMPI DUP4 MLOAD ISZERO DUP1 ISZERO PUSH2 0x698 JUMPI POP DUP3 MLOAD ISZERO JUMPDEST ISZERO PUSH2 0x817 JUMPI PUSH1 0x1 DUP1 DUP6 MSTORE DUP4 MSTORE PUSH1 0x2 SLOAD PUSH1 0x80 DUP1 DUP7 ADD MLOAD SWAP1 DUP6 ADD MLOAD PUSH1 0x40 MLOAD PUSH32 0x6887EEE800000000000000000000000000000000000000000000000000000000 DUP2 MSTORE PUSH1 0xFF SWAP3 DUP4 AND PUSH1 0x4 DUP3 ADD MSTORE SWAP2 AND PUSH1 0x24 DUP3 ADD MSTORE PUSH1 0x1 PUSH1 0x1 PUSH1 0xA0 SHL SUB SWAP1 SWAP2 AND SWAP1 PUSH4 0x6887EEE8 SWAP1 PUSH1 0x44 ADD PUSH1 0x20 PUSH1 0x40 MLOAD DUP1 DUP4 SUB DUP2 DUP7 GAS STATICCALL ISZERO DUP1 ISZERO PUSH2 0x71A JUMPI RETURNDATASIZE PUSH1 0x0 DUP1 RETURNDATACOPY RETURNDATASIZE PUSH1 0x0 REVERT JUMPDEST POP POP POP POP PUSH1 0x40 MLOAD RETURNDATASIZE PUSH1 0x1F NOT PUSH1 0x1F DUP3 ADD AND DUP3 ADD DUP1 PUSH1 0x40 MSTORE POP DUP2 ADD SWAP1 PUSH2 0x73E SWAP2 SWAP1 PUSH2 0x1CB5 JUMP JUMPDEST ISZERO PUSH2 0x74D JUMPI POP DUP3 SWAP1 POP DUP2 PUSH2 0x753 JUMP JUMPDEST POP DUP2 SWAP1 POP DUP3 JUMPDEST PUSH1 0x0 DUP1 PUSH1 0x0 PUSH2 0x765 DUP6 PUSH1 0x80 ADD MLOAD PUSH2 0x172F JUMP JUMPDEST ISZERO ISZERO PUSH1 0x20 DUP8 ADD MSTORE SWAP1 ISZERO ISZERO PUSH1 0x40 DUP8 ADD MSTORE SWAP3 POP DUP3 ISZERO PUSH2 0x7B3 JUMPI PUSH1 0xE0 DUP5 ADD MLOAD PUSH1 0xFF AND PUSH1 0xC0 DUP6 ADD MSTORE DUP10 PUSH2 0x794 DUP9 DUP9 PUSH2 0xD2E JUMP JUMPDEST DUP2 SLOAD PUSH1 0x1 DUP2 ADD DUP4 SSTORE PUSH1 0x0 SWAP3 DUP4 MSTORE PUSH1 0x20 SWAP1 SWAP3 KECCAK256 SWAP1 SWAP2 ADD SSTORE POP PUSH2 0xBC4 SWAP2 POP POP JUMP JUMPDEST DUP4 PUSH1 0x20 ADD MLOAD PUSH2 0x80F JUMPI PUSH2 0x7C9 DUP5 PUSH1 0x80 ADD MLOAD PUSH2 0x172F JUMP JUMPDEST SWAP2 ISZERO ISZERO PUSH1 0x40 DUP8 ADD MSTORE SWAP3 POP SWAP1 POP DUP2 ISZERO PUSH2 0x7F3 JUMPI PUSH1 0xE0 DUP6 ADD MLOAD PUSH1 0xFF AND PUSH1 0xC0 DUP7 ADD MSTORE DUP10 PUSH2 0x794 DUP9 DUP9 PUSH2 0xD2E JUMP JUMPDEST DUP1 DUP1 ISZERO PUSH2 0x802 JUMPI POP DUP5 PUSH1 0x40 ADD MLOAD ISZERO JUMPDEST ISZERO PUSH2 0x80F JUMPI PUSH1 0x1 PUSH1 0x20 DUP7 ADD MSTORE JUMPDEST POP POP POP PUSH2 0x8CF JUMP JUMPDEST DUP4 MLOAD PUSH2 0x883 JUMPI PUSH1 0x1 DUP5 MSTORE PUSH1 0x80 DUP5 ADD MLOAD PUSH1 0x0 SWAP1 PUSH2 0x832 SWAP1 PUSH2 0x172F JUMP JUMPDEST ISZERO ISZERO PUSH1 0x20 DUP8 ADD MSTORE SWAP1 ISZERO ISZERO PUSH1 0x40 DUP8 ADD MSTORE SWAP1 POP DUP1 ISZERO PUSH2 0x87D JUMPI PUSH1 0xE0 DUP5 ADD MLOAD PUSH1 0xFF AND PUSH1 0xC0 DUP6 ADD MSTORE DUP8 PUSH2 0x861 DUP7 DUP7 PUSH2 0xD2E JUMP JUMPDEST DUP2 SLOAD PUSH1 0x1 DUP2 ADD DUP4 SSTORE PUSH1 0x0 SWAP3 DUP4 MSTORE PUSH1 0x20 SWAP1 SWAP3 KECCAK256 SWAP1 SWAP2 ADD SSTORE POP PUSH2 0xBC4 JUMP JUMPDEST POP PUSH2 0x8CF JUMP JUMPDEST DUP3 MLOAD PUSH2 0x8CF JUMPI PUSH1 0x1 DUP4 MSTORE PUSH1 0x80 DUP4 ADD MLOAD PUSH1 0x0 SWAP1 PUSH2 0x89E SWAP1 PUSH2 0x172F JUMP JUMPDEST ISZERO ISZERO PUSH1 0x20 DUP9 ADD MSTORE SWAP1 ISZERO ISZERO PUSH1 0x40 DUP7 ADD MSTORE SWAP1 POP DUP1 ISZERO PUSH2 0x8CD JUMPI PUSH1 0xE0 DUP6 ADD MLOAD PUSH1 0xFF AND PUSH1 0xC0 DUP7 ADD MSTORE DUP8 PUSH2 0x861 DUP7 DUP7 PUSH2 0xD2E JUMP JUMPDEST POP JUMPDEST DUP4 PUSH1 0x20 ADD MLOAD DUP1 PUSH2 0x8E0 JUMPI POP DUP3 PUSH1 0x40 ADD MLOAD JUMPDEST ISZERO PUSH2 0x9BD JUMPI DUP3 PUSH1 0xA0 ADD MLOAD PUSH1 0xFF AND DUP5 PUSH1 0x60 ADD MLOAD PUSH1 0xFF AND GT PUSH2 0x99C JUMPI PUSH1 0xC0 DUP5 ADD DUP1 MLOAD SWAP1 PUSH2 0x90A DUP3 PUSH2 0x1CE8 JUMP JUMPDEST PUSH1 0xFF AND PUSH1 0xFF AND DUP2 MSTORE POP POP DUP6 MLOAD DUP5 PUSH1 0xC0 ADD MLOAD PUSH1 0xFF AND SUB PUSH2 0x949 JUMPI DUP7 PUSH2 0x92E DUP6 DUP6 PUSH2 0xD2E JUMP JUMPDEST DUP2 SLOAD PUSH1 0x1 DUP2 ADD DUP4 SSTORE PUSH1 0x0 SWAP3 DUP4 MSTORE PUSH1 0x20 SWAP1 SWAP3 KECCAK256 SWAP1 SWAP2 ADD SSTORE PUSH2 0xBC4 JUMP JUMPDEST PUSH2 0x997 DUP5 DUP8 DUP7 PUSH1 0xC0 ADD MLOAD PUSH1 0xFF AND DUP2 MLOAD DUP2 LT PUSH2 0x966 JUMPI PUSH2 0x966 PUSH2 0x1C9F JUMP JUMPDEST PUSH1 0x20 MUL PUSH1 0x20 ADD ADD MLOAD PUSH1 0x20 DUP2 ADD MLOAD PUSH1 0xFF SWAP1 DUP2 AND PUSH1 0x60 DUP5 ADD MSTORE PUSH1 0x40 DUP3 ADD MLOAD DUP2 AND PUSH1 0x80 DUP5 ADD MSTORE SWAP1 MLOAD AND PUSH1 0xA0 DUP3 ADD MSTORE PUSH1 0x0 SWAP1 MSTORE JUMP JUMPDEST PUSH2 0xB83 JUMP JUMPDEST DUP3 PUSH1 0xA0 ADD MLOAD DUP5 PUSH1 0x60 ADD DUP2 DUP2 MLOAD PUSH2 0x9B2 SWAP2 SWAP1 PUSH2 0x1D07 JUMP JUMPDEST PUSH1 0xFF AND SWAP1 MSTORE POP PUSH2 0xB83 JUMP JUMPDEST DUP3 PUSH1 0x20 ADD MLOAD DUP1 PUSH2 0x9CE JUMPI POP DUP4 PUSH1 0x40 ADD MLOAD JUMPDEST ISZERO PUSH2 0xA55 JUMPI DUP4 PUSH1 0xA0 ADD MLOAD PUSH1 0xFF AND DUP4 PUSH1 0x60 ADD MLOAD PUSH1 0xFF AND GT PUSH2 0xA3F JUMPI PUSH1 0xC0 DUP4 ADD DUP1 MLOAD SWAP1 PUSH2 0x9F8 DUP3 PUSH2 0x1CE8 JUMP JUMPDEST PUSH1 0xFF AND PUSH1 0xFF AND DUP2 MSTORE POP POP DUP3 PUSH1 0xE0 ADD MLOAD PUSH1 0xFF AND DUP4 PUSH1 0xC0 ADD MLOAD PUSH1 0xFF AND SUB PUSH2 0xA22 JUMPI DUP7 PUSH2 0x92E DUP6 DUP6 PUSH2 0xD2E JUMP JUMPDEST PUSH2 0x997 DUP4 DUP7 DUP6 PUSH1 0xC0 ADD MLOAD PUSH1 0xFF AND DUP2 MLOAD DUP2 LT PUSH2 0x966 JUMPI PUSH2 0x966 PUSH2 0x1C9F JUMP JUMPDEST DUP4 PUSH1 0xA0 ADD MLOAD DUP4 PUSH1 0x60 ADD DUP2 DUP2 MLOAD PUSH2 0x9B2 SWAP2 SWAP1 PUSH2 0x1D07 JUMP JUMPDEST DUP3 PUSH1 0xA0 ADD MLOAD PUSH1 0xFF AND DUP5 PUSH1 0x60 ADD MLOAD PUSH1 0xFF AND GT PUSH2 0xA81 JUMPI PUSH1 0xC0 DUP5 ADD DUP1 MLOAD SWAP1 PUSH2 0xA7A DUP3 PUSH2 0x1CE8 JUMP JUMPDEST PUSH1 0xFF AND SWAP1 MSTORE POP JUMPDEST DUP4 PUSH1 0xA0 ADD MLOAD PUSH1 0xFF AND DUP4 PUSH1 0x60 ADD MLOAD PUSH1 0xFF AND GT PUSH2 0xAAD JUMPI PUSH1 0xC0 DUP4 ADD DUP1 MLOAD SWAP1 PUSH2 0xAA6 DUP3 PUSH2 0x1CE8 JUMP JUMPDEST PUSH1 0xFF AND SWAP1 MSTORE POP JUMPDEST DUP6 MLOAD DUP5 PUSH1 0xC0 ADD MLOAD PUSH1 0xFF AND EQ DUP1 PUSH2 0xAD0 JUMPI POP DUP3 PUSH1 0xE0 ADD MLOAD PUSH1 0xFF AND DUP4 PUSH1 0xC0 ADD MLOAD PUSH1 0xFF AND EQ JUMPDEST ISZERO PUSH2 0xAE0 JUMPI DUP7 PUSH2 0x92E DUP6 DUP6 PUSH2 0xD2E JUMP JUMPDEST DUP3 PUSH1 0xA0 ADD MLOAD PUSH1 0xFF AND DUP5 PUSH1 0x60 ADD MLOAD PUSH1 0xFF AND GT PUSH2 0xB17 JUMPI PUSH2 0xB12 DUP5 DUP8 DUP7 PUSH1 0xC0 ADD MLOAD PUSH1 0xFF AND DUP2 MLOAD DUP2 LT PUSH2 0x966 JUMPI PUSH2 0x966 PUSH2 0x1C9F JUMP JUMPDEST PUSH2 0xB34 JUMP JUMPDEST DUP3 PUSH1 0xA0 ADD MLOAD DUP5 PUSH1 0x60 ADD DUP2 DUP2 MLOAD PUSH2 0xB2D SWAP2 SWAP1 PUSH2 0x1D07 JUMP JUMPDEST PUSH1 0xFF AND SWAP1 MSTORE POP JUMPDEST DUP4 PUSH1 0xA0 ADD MLOAD PUSH1 0xFF AND DUP4 PUSH1 0x60 ADD MLOAD PUSH1 0xFF AND GT PUSH2 0xB66 JUMPI PUSH2 0x997 DUP4 DUP7 DUP6 PUSH1 0xC0 ADD MLOAD PUSH1 0xFF AND DUP2 MLOAD DUP2 LT PUSH2 0x966 JUMPI PUSH2 0x966 PUSH2 0x1C9F JUMP JUMPDEST DUP4 PUSH1 0xA0 ADD MLOAD DUP4 PUSH1 0x60 ADD DUP2 DUP2 MLOAD PUSH2 0xB7C SWAP2 SWAP1 PUSH2 0x1D07 JUMP JUMPDEST PUSH1 0xFF AND SWAP1 MSTORE POP JUMPDEST DUP7 PUSH2 0xB8E DUP6 DUP6 PUSH2 0xD2E JUMP JUMPDEST DUP2 SLOAD PUSH1 0x1 DUP2 ADD DUP4 SSTORE PUSH1 0x0 SWAP3 DUP4 MSTORE PUSH1 0x20 DUP1 DUP5 KECCAK256 SWAP1 SWAP2 ADD SWAP2 SWAP1 SWAP2 SSTORE DUP6 ADD DUP2 SWAP1 MSTORE PUSH1 0x40 DUP6 ADD MSTORE PUSH1 0x0 PUSH1 0x20 DUP5 ADD DUP2 SWAP1 MSTORE PUSH1 0x40 DUP5 ADD MSTORE PUSH2 0x667 JUMP JUMPDEST CALLER PUSH1 0x0 SWAP1 DUP2 MSTORE PUSH1 0x4 PUSH1 0x20 SWAP1 DUP2 MSTORE PUSH1 0x40 DUP1 DUP4 KECCAK256 DUP2 MLOAD PUSH1 0x80 DUP2 ADD DUP4 MSTORE DUP2 SLOAD DUP2 MSTORE PUSH1 0x1 DUP3 ADD SLOAD SWAP4 DUP2 ADD SWAP4 SWAP1 SWAP4 MSTORE PUSH1 0x2 DUP2 ADD SLOAD SWAP2 DUP4 ADD SWAP2 SWAP1 SWAP2 MSTORE PUSH1 0x3 ADD SLOAD PUSH1 0x60 DUP3 ADD MSTORE DUP8 MLOAD PUSH1 0xC0 DUP8 ADD MLOAD SWAP2 SWAP3 SWAP2 PUSH1 0xFF AND EQ DUP1 ISZERO PUSH2 0xC24 JUMPI POP DUP7 MLOAD DUP6 PUSH1 0xC0 ADD MLOAD PUSH1 0xFF AND EQ JUMPDEST ISZERO PUSH2 0xC45 JUMPI PUSH1 0x40 DUP3 ADD DUP1 MLOAD SWAP1 PUSH2 0xC39 DUP3 PUSH2 0x1D20 JUMP JUMPDEST SWAP1 MSTORE POP PUSH1 0x0 SWAP1 POP PUSH2 0xC9D JUMP JUMPDEST DUP8 MLOAD DUP7 PUSH1 0xC0 ADD MLOAD PUSH1 0xFF AND SUB PUSH2 0xC76 JUMPI PUSH1 0x20 DUP3 ADD DUP1 MLOAD SWAP1 PUSH2 0xC64 DUP3 PUSH2 0x1D20 JUMP JUMPDEST SWAP1 MSTORE POP POP PUSH1 0x0 PUSH1 0x60 DUP3 ADD MSTORE PUSH1 0x2 PUSH2 0xC9D JUMP JUMPDEST DUP2 MLOAD DUP3 PUSH2 0xC82 DUP3 PUSH2 0x1D20 JUMP JUMPDEST SWAP1 MSTORE POP PUSH1 0x60 DUP3 ADD DUP1 MLOAD SWAP1 PUSH2 0xC95 DUP3 PUSH2 0x1D20 JUMP JUMPDEST SWAP1 MSTORE POP PUSH1 0x1 SWAP1 POP JUMPDEST CALLER PUSH1 0x0 SWAP1 DUP2 MSTORE PUSH1 0x4 PUSH1 0x20 SWAP1 DUP2 MSTORE PUSH1 0x40 SWAP2 DUP3 SWAP1 KECCAK256 DUP5 MLOAD DUP1 DUP3 SSTORE SWAP2 DUP6 ADD MLOAD PUSH1 0x1 DUP3 ADD SSTORE SWAP2 DUP5 ADD MLOAD PUSH1 0x2 DUP4 ADD SSTORE PUSH1 0x60 DUP5 ADD MLOAD PUSH1 0x3 SWAP1 SWAP3 ADD SWAP2 SWAP1 SWAP2 SSTORE PUSH2 0xCE2 SWAP1 PUSH1 0xFF DUP4 AND PUSH2 0x17F0 JUMP JUMPDEST PUSH32 0x6AEAA88470C08AA431FE4452B98AE2AFDD6DC449509AE67BA2487E570951ABBD CALLER DUP12 DUP11 DUP11 DUP6 PUSH1 0x40 MLOAD PUSH2 0xD19 SWAP6 SWAP5 SWAP4 SWAP3 SWAP2 SWAP1 PUSH2 0x1D92 JUMP JUMPDEST PUSH1 0x40 MLOAD DUP1 SWAP2 SUB SWAP1 LOG1 POP POP POP POP POP POP POP POP POP POP POP JUMP JUMPDEST PUSH1 0x0 DUP1 PUSH2 0xD3A DUP5 PUSH2 0x140C JUMP JUMPDEST SWAP1 POP PUSH1 0x0 PUSH2 0xD47 DUP5 PUSH2 0x140C JUMP JUMPDEST PUSH1 0x80 SHR SWAP2 SWAP1 SWAP2 OR SWAP2 POP POP JUMPDEST SWAP3 SWAP2 POP POP JUMP JUMPDEST PUSH1 0x2 SLOAD DUP2 MLOAD PUSH1 0x40 MLOAD PUSH4 0x31A9108F PUSH1 0xE1 SHL DUP2 MSTORE PUSH1 0x4 DUP2 ADD SWAP2 SWAP1 SWAP2 MSTORE CALLER SWAP2 PUSH1 0x1 PUSH1 0x1 PUSH1 0xA0 SHL SUB AND SWAP1 PUSH4 0x6352211E SWAP1 PUSH1 0x24 ADD PUSH1 0x20 PUSH1 0x40 MLOAD DUP1 DUP4 SUB DUP2 DUP7 GAS STATICCALL ISZERO DUP1 ISZERO PUSH2 0xDA4 JUMPI RETURNDATASIZE PUSH1 0x0 DUP1 RETURNDATACOPY RETURNDATASIZE PUSH1 0x0 REVERT JUMPDEST POP POP POP POP PUSH1 0x40 MLOAD RETURNDATASIZE PUSH1 0x1F NOT PUSH1 0x1F DUP3 ADD AND DUP3 ADD DUP1 PUSH1 0x40 MSTORE POP DUP2 ADD SWAP1 PUSH2 0xDC8 SWAP2 SWAP1 PUSH2 0x1DE2 JUMP JUMPDEST PUSH1 0x1 PUSH1 0x1 PUSH1 0xA0 SHL SUB AND EQ ISZERO DUP1 ISZERO PUSH2 0xDDF JUMPI POP DUP1 MLOAD ISZERO ISZERO JUMPDEST DUP1 PUSH2 0xE72 JUMPI POP PUSH1 0x2 SLOAD PUSH1 0x20 DUP3 ADD MLOAD PUSH1 0x40 MLOAD PUSH4 0x31A9108F PUSH1 0xE1 SHL DUP2 MSTORE PUSH1 0x4 DUP2 ADD SWAP2 SWAP1 SWAP2 MSTORE CALLER SWAP2 PUSH1 0x1 PUSH1 0x1 PUSH1 0xA0 SHL SUB AND SWAP1 PUSH4 0x6352211E SWAP1 PUSH1 0x24 ADD PUSH1 0x20 PUSH1 0x40 MLOAD DUP1 DUP4 SUB DUP2 DUP7 GAS STATICCALL ISZERO DUP1 ISZERO PUSH2 0xE34 JUMPI RETURNDATASIZE PUSH1 0x0 DUP1 RETURNDATACOPY RETURNDATASIZE PUSH1 0x0 REVERT JUMPDEST POP POP POP POP PUSH1 0x40 MLOAD RETURNDATASIZE PUSH1 0x1F NOT PUSH1 0x1F DUP3 ADD AND DUP3 ADD DUP1 PUSH1 0x40 MSTORE POP DUP2 ADD SWAP1 PUSH2 0xE58 SWAP2 SWAP1 PUSH2 0x1DE2 JUMP JUMPDEST PUSH1 0x1 PUSH1 0x1 PUSH1 0xA0 SHL SUB AND EQ ISZERO DUP1 ISZERO PUSH2 0xE72 JUMPI POP PUSH1 0x20 DUP2 ADD MLOAD ISZERO ISZERO JUMPDEST DUP1 PUSH2 0xF05 JUMPI POP PUSH1 0x2 SLOAD PUSH1 0x40 DUP1 DUP4 ADD MLOAD SWAP1 MLOAD PUSH4 0x31A9108F PUSH1 0xE1 SHL DUP2 MSTORE PUSH1 0x4 DUP2 ADD SWAP2 SWAP1 SWAP2 MSTORE CALLER SWAP2 PUSH1 0x1 PUSH1 0x1 PUSH1 0xA0 SHL SUB AND SWAP1 PUSH4 0x6352211E SWAP1 PUSH1 0x24 ADD PUSH1 0x20 PUSH1 0x40 MLOAD DUP1 DUP4 SUB DUP2 DUP7 GAS STATICCALL ISZERO DUP1 ISZERO PUSH2 0xEC7 JUMPI RETURNDATASIZE PUSH1 0x0 DUP1 RETURNDATACOPY RETURNDATASIZE PUSH1 0x0 REVERT JUMPDEST POP POP POP POP PUSH1 0x40 MLOAD RETURNDATASIZE PUSH1 0x1F NOT PUSH1 0x1F DUP3 ADD AND DUP3 ADD DUP1 PUSH1 0x40 MSTORE POP DUP2 ADD SWAP1 PUSH2 0xEEB SWAP2 SWAP1 PUSH2 0x1DE2 JUMP JUMPDEST PUSH1 0x1 PUSH1 0x1 PUSH1 0xA0 SHL SUB AND EQ ISZERO DUP1 ISZERO PUSH2 0xF05 JUMPI POP PUSH1 0x40 DUP2 ADD MLOAD ISZERO ISZERO JUMPDEST ISZERO PUSH2 0xF52 JUMPI PUSH1 0x40 MLOAD PUSH3 0x461BCD PUSH1 0xE5 SHL DUP2 MSTORE PUSH1 0x20 PUSH1 0x4 DUP3 ADD MSTORE PUSH1 0x16 PUSH1 0x24 DUP3 ADD MSTORE PUSH32 0x796F75206D757374206F776E20616C6C20636172647300000000000000000000 PUSH1 0x44 DUP3 ADD MSTORE PUSH1 0x64 ADD PUSH2 0x3D1 JUMP JUMPDEST PUSH1 0x20 DUP2 ADD MLOAD DUP2 MLOAD EQ DUP1 PUSH2 0xF69 JUMPI POP PUSH1 0x40 DUP2 ADD MLOAD DUP2 MLOAD EQ JUMPDEST DUP1 ISZERO PUSH2 0xF75 JUMPI POP DUP1 MLOAD ISZERO ISZERO JUMPDEST DUP1 PUSH2 0xF95 JUMPI POP PUSH1 0x40 DUP2 ADD MLOAD PUSH1 0x20 DUP3 ADD MLOAD EQ DUP1 ISZERO PUSH2 0xF95 JUMPI POP PUSH1 0x20 DUP2 ADD MLOAD ISZERO ISZERO JUMPDEST ISZERO PUSH2 0xFE2 JUMPI PUSH1 0x40 MLOAD PUSH3 0x461BCD PUSH1 0xE5 SHL DUP2 MSTORE PUSH1 0x20 PUSH1 0x4 DUP3 ADD MSTORE PUSH1 0x12 PUSH1 0x24 DUP3 ADD MSTORE PUSH32 0x696473206D75737420626520756E697175650000000000000000000000000000 PUSH1 0x44 DUP3 ADD MSTORE PUSH1 0x64 ADD PUSH2 0x3D1 JUMP JUMPDEST POP JUMP JUMPDEST PUSH2 0xFED PUSH2 0x1510 JUMP JUMPDEST PUSH2 0xFF7 PUSH1 0x0 PUSH2 0x1894 JUMP JUMPDEST JUMP JUMPDEST PUSH1 0x0 DUP2 DUP2 MSTORE PUSH1 0x5 PUSH1 0x20 SWAP1 DUP2 MSTORE PUSH1 0x40 DUP1 DUP4 KECCAK256 DUP1 SLOAD DUP3 MLOAD DUP2 DUP6 MUL DUP2 ADD DUP6 ADD SWAP1 SWAP4 MSTORE DUP1 DUP4 MSTORE PUSH1 0x60 SWAP5 SWAP4 DUP4 ADD DUP3 DUP3 DUP1 ISZERO PUSH2 0x104E JUMPI PUSH1 0x20 MUL DUP3 ADD SWAP2 SWAP1 PUSH1 0x0 MSTORE PUSH1 0x20 PUSH1 0x0 KECCAK256 SWAP1 JUMPDEST DUP2 SLOAD DUP2 MSTORE PUSH1 0x20 ADD SWAP1 PUSH1 0x1 ADD SWAP1 DUP1 DUP4 GT PUSH2 0x103A JUMPI JUMPDEST POP POP POP POP POP SWAP1 POP PUSH1 0x0 DUP2 MLOAD PUSH8 0xFFFFFFFFFFFFFFFF DUP2 GT ISZERO PUSH2 0x1071 JUMPI PUSH2 0x1071 PUSH2 0x192A JUMP JUMPDEST PUSH1 0x40 MLOAD SWAP1 DUP1 DUP3 MSTORE DUP1 PUSH1 0x20 MUL PUSH1 0x20 ADD DUP3 ADD PUSH1 0x40 MSTORE DUP1 ISZERO PUSH2 0x1136 JUMPI DUP2 PUSH1 0x20 ADD JUMPDEST PUSH2 0x1123 PUSH1 0x40 DUP1 MLOAD PUSH2 0x140 DUP2 ADD DUP3 MSTORE PUSH1 0x0 SWAP2 DUP2 ADD DUP3 DUP2 MSTORE PUSH1 0x60 DUP3 ADD DUP4 SWAP1 MSTORE PUSH1 0x80 DUP3 ADD DUP4 SWAP1 MSTORE PUSH1 0xA0 DUP3 ADD DUP4 SWAP1 MSTORE PUSH1 0xC0 DUP3 ADD DUP4 SWAP1 MSTORE PUSH1 0xE0 DUP3 ADD DUP4 SWAP1 MSTORE PUSH2 0x100 DUP3 ADD DUP4 SWAP1 MSTORE PUSH2 0x120 DUP3 ADD SWAP3 SWAP1 SWAP3 MSTORE SWAP1 DUP2 SWAP1 DUP2 MSTORE PUSH1 0x40 DUP1 MLOAD PUSH2 0x100 DUP2 ADD DUP3 MSTORE PUSH1 0x0 DUP1 DUP3 MSTORE PUSH1 0x20 DUP3 DUP2 ADD DUP3 SWAP1 MSTORE SWAP3 DUP3 ADD DUP2 SWAP1 MSTORE PUSH1 0x60 DUP3 ADD DUP2 SWAP1 MSTORE PUSH1 0x80 DUP3 ADD DUP2 SWAP1 MSTORE PUSH1 0xA0 DUP3 ADD DUP2 SWAP1 MSTORE PUSH1 0xC0 DUP3 ADD DUP2 SWAP1 MSTORE PUSH1 0xE0 DUP3 ADD MSTORE SWAP2 ADD MSTORE SWAP1 JUMP JUMPDEST DUP2 MSTORE PUSH1 0x20 ADD SWAP1 PUSH1 0x1 SWAP1 SUB SWAP1 DUP2 PUSH2 0x108F JUMPI SWAP1 POP JUMPDEST POP SWAP1 POP PUSH1 0x0 JUMPDEST DUP3 MLOAD DUP2 LT ISZERO PUSH2 0x1348 JUMPI PUSH1 0x40 MLOAD DUP1 PUSH1 0x40 ADD PUSH1 0x40 MSTORE DUP1 PUSH2 0x122E DUP6 DUP5 DUP2 MLOAD DUP2 LT PUSH2 0x1165 JUMPI PUSH2 0x1165 PUSH2 0x1C9F JUMP JUMPDEST PUSH1 0x20 MUL PUSH1 0x20 ADD ADD MLOAD PUSH1 0x40 DUP1 MLOAD PUSH2 0x100 DUP1 DUP3 ADD DUP4 MSTORE PUSH1 0x0 DUP1 DUP4 MSTORE PUSH1 0x20 DUP1 DUP5 ADD DUP3 SWAP1 MSTORE DUP4 DUP6 ADD DUP3 SWAP1 MSTORE PUSH1 0x60 DUP1 DUP6 ADD DUP4 SWAP1 MSTORE PUSH1 0x80 DUP1 DUP7 ADD DUP5 SWAP1 MSTORE PUSH1 0xA0 DUP1 DUP8 ADD DUP6 SWAP1 MSTORE PUSH1 0xC0 DUP1 DUP9 ADD DUP7 SWAP1 MSTORE PUSH1 0xE0 SWAP8 DUP9 ADD SWAP6 SWAP1 SWAP6 MSTORE DUP8 MLOAD SWAP6 DUP7 ADD DUP9 MSTORE PUSH1 0x1 PUSH1 0xF8 DUP11 SWAP1 SHR DUP2 AND DUP2 EQ DUP8 MSTORE PUSH1 0xF7 DUP11 SWAP1 SHR DUP2 AND DUP2 EQ SWAP5 DUP8 ADD SWAP5 SWAP1 SWAP5 MSTORE PUSH1 0xF6 DUP10 SWAP1 SHR DUP5 AND SWAP1 SWAP4 EQ SWAP7 DUP6 ADD SWAP7 SWAP1 SWAP7 MSTORE PUSH1 0xFF PUSH1 0xEE DUP9 SWAP1 SHR DUP2 AND SWAP2 DUP6 ADD SWAP2 SWAP1 SWAP2 MSTORE PUSH1 0xE6 DUP8 SWAP1 SHR DUP2 AND SWAP6 DUP5 ADD SWAP6 SWAP1 SWAP6 MSTORE PUSH1 0xDE DUP7 SWAP1 SHR DUP6 AND SWAP1 DUP4 ADD MSTORE PUSH1 0xD6 DUP6 SWAP1 SHR DUP5 AND SWAP1 DUP3 ADD MSTORE PUSH1 0xCE SWAP4 SWAP1 SWAP4 SHR SWAP1 SWAP2 AND SWAP1 DUP3 ADD MSTORE SWAP1 JUMP JUMPDEST DUP2 MSTORE PUSH1 0x20 ADD PUSH2 0x1315 PUSH1 0x80 DUP7 DUP6 DUP2 MLOAD DUP2 LT PUSH2 0x124A JUMPI PUSH2 0x124A PUSH2 0x1C9F JUMP JUMPDEST PUSH1 0x20 MUL PUSH1 0x20 ADD ADD MLOAD SWAP1 SHL PUSH1 0x40 DUP1 MLOAD PUSH2 0x100 DUP1 DUP3 ADD DUP4 MSTORE PUSH1 0x0 DUP1 DUP4 MSTORE PUSH1 0x20 DUP1 DUP5 ADD DUP3 SWAP1 MSTORE DUP4 DUP6 ADD DUP3 SWAP1 MSTORE PUSH1 0x60 DUP1 DUP6 ADD DUP4 SWAP1 MSTORE PUSH1 0x80 DUP1 DUP7 ADD DUP5 SWAP1 MSTORE PUSH1 0xA0 DUP1 DUP8 ADD DUP6 SWAP1 MSTORE PUSH1 0xC0 DUP1 DUP9 ADD DUP7 SWAP1 MSTORE PUSH1 0xE0 SWAP8 DUP9 ADD SWAP6 SWAP1 SWAP6 MSTORE DUP8 MLOAD SWAP6 DUP7 ADD DUP9 MSTORE PUSH1 0x1 PUSH1 0xF8 DUP11 SWAP1 SHR DUP2 AND DUP2 EQ DUP8 MSTORE PUSH1 0xF7 DUP11 SWAP1 SHR DUP2 AND DUP2 EQ SWAP5 DUP8 ADD SWAP5 SWAP1 SWAP5 MSTORE PUSH1 0xF6 DUP10 SWAP1 SHR DUP5 AND SWAP1 SWAP4 EQ SWAP7 DUP6 ADD SWAP7 SWAP1 SWAP7 MSTORE PUSH1 0xFF PUSH1 0xEE DUP9 SWAP1 SHR DUP2 AND SWAP2 DUP6 ADD SWAP2 SWAP1 SWAP2 MSTORE PUSH1 0xE6 DUP8 SWAP1 SHR DUP2 AND SWAP6 DUP5 ADD SWAP6 SWAP1 SWAP6 MSTORE PUSH1 0xDE DUP7 SWAP1 SHR DUP6 AND SWAP1 DUP4 ADD MSTORE PUSH1 0xD6 DUP6 SWAP1 SHR DUP5 AND SWAP1 DUP3 ADD MSTORE PUSH1 0xCE SWAP4 SWAP1 SWAP4 SHR SWAP1 SWAP2 AND SWAP1 DUP3 ADD MSTORE SWAP1 JUMP JUMPDEST DUP2 MSTORE POP DUP3 DUP3 DUP2 MLOAD DUP2 LT PUSH2 0x132A JUMPI PUSH2 0x132A PUSH2 0x1C9F JUMP JUMPDEST PUSH1 0x20 MUL PUSH1 0x20 ADD ADD DUP2 SWAP1 MSTORE POP DUP1 DUP1 PUSH2 0x1340 SWAP1 PUSH2 0x1D20 JUMP JUMPDEST SWAP2 POP POP PUSH2 0x113C JUMP JUMPDEST POP SWAP4 SWAP3 POP POP POP JUMP JUMPDEST PUSH1 0x5 PUSH1 0x20 MSTORE DUP2 PUSH1 0x0 MSTORE PUSH1 0x40 PUSH1 0x0 KECCAK256 DUP2 DUP2 SLOAD DUP2 LT PUSH2 0x136C JUMPI PUSH1 0x0 DUP1 REVERT JUMPDEST SWAP1 PUSH1 0x0 MSTORE PUSH1 0x20 PUSH1 0x0 KECCAK256 ADD PUSH1 0x0 SWAP2 POP SWAP2 POP POP SLOAD DUP2 JUMP JUMPDEST PUSH2 0x1389 PUSH2 0x1510 JUMP JUMPDEST PUSH1 0x2 DUP1 SLOAD PUSH20 0xFFFFFFFFFFFFFFFFFFFFFFFFFFFFFFFFFFFFFFFF NOT AND PUSH1 0x1 PUSH1 0x1 PUSH1 0xA0 SHL SUB SWAP3 SWAP1 SWAP3 AND SWAP2 SWAP1 SWAP2 OR SWAP1 SSTORE JUMP JUMPDEST PUSH2 0x13C0 PUSH2 0x1510 JUMP JUMPDEST PUSH1 0x1 PUSH1 0x1 PUSH1 0xA0 SHL SUB DUP2 AND PUSH2 0x1403 JUMPI PUSH1 0x40 MLOAD PUSH32 0x1E4FBDF700000000000000000000000000000000000000000000000000000000 DUP2 MSTORE PUSH1 0x0 PUSH1 0x4 DUP3 ADD MSTORE PUSH1 0x24 ADD PUSH2 0x3D1 JUMP JUMPDEST PUSH2 0xFE2 DUP2 PUSH2 0x1894 JUMP JUMPDEST DUP1 MLOAD PUSH1 0x20 DUP3 ADD MLOAD PUSH1 0x40 DUP4 ADD MLOAD PUSH1 0x60 DUP5 ADD MLOAD PUSH1 0x80 DUP6 ADD MLOAD PUSH1 0xA0 DUP7 ADD MLOAD PUSH1 0xC0 DUP8 ADD MLOAD PUSH1 0xE0 SWAP1 SWAP8 ADD MLOAD PUSH1 0xF8 SWAP7 SWAP1 SWAP7 SHL PUSH1 0xF7 SWAP6 SWAP1 SWAP6 SHL SWAP5 SWAP1 SWAP5 OR PUSH1 0xF6 SWAP4 SWAP1 SWAP4 SHL SWAP3 SWAP1 SWAP3 OR PUSH1 0xEE SWAP2 SWAP1 SWAP2 SHL PUSH31 0x3FC00000000000000000000000000000000000000000000000000000000000 AND OR PUSH1 0xE6 SWAP2 SWAP1 SWAP2 SHL PUSH30 0x3FC000000000000000000000000000000000000000000000000000000000 AND OR PUSH1 0xDE SWAP2 SWAP1 SWAP2 SHL PUSH29 0x3FC0000000000000000000000000000000000000000000000000000000 AND OR PUSH1 0xD6 SWAP3 SWAP1 SWAP3 SHL PUSH28 0x3FC00000000000000000000000000000000000000000000000000000 AND SWAP2 SWAP1 SWAP2 OR PUSH1 0xCE SWAP2 SWAP1 SWAP2 SHL PUSH27 0x3FC000000000000000000000000000000000000000000000000000 AND OR SWAP1 JUMP JUMPDEST PUSH1 0x0 SLOAD PUSH1 0x1 PUSH1 0x1 PUSH1 0xA0 SHL SUB AND CALLER EQ PUSH2 0xFF7 JUMPI PUSH1 0x40 MLOAD PUSH32 0x118CDAA700000000000000000000000000000000000000000000000000000000 DUP2 MSTORE CALLER PUSH1 0x4 DUP3 ADD MSTORE PUSH1 0x24 ADD PUSH2 0x3D1 JUMP JUMPDEST PUSH1 0x40 DUP1 MLOAD TIMESTAMP PUSH1 0x20 DUP3 ADD MSTORE PREVRANDAO SWAP2 DUP2 ADD SWAP2 SWAP1 SWAP2 MSTORE PUSH12 0xFFFFFFFFFFFFFFFFFFFFFFFF NOT CALLER PUSH1 0x60 SWAP1 DUP2 SHL DUP3 AND DUP2 DUP5 ADD MSTORE ORIGIN SWAP1 SHL AND PUSH1 0x74 DUP3 ADD MSTORE PUSH1 0x0 SWAP1 DUP3 SWAP1 PUSH1 0x88 ADD PUSH1 0x40 MLOAD PUSH1 0x20 DUP2 DUP4 SUB SUB DUP2 MSTORE SWAP1 PUSH1 0x40 MSTORE DUP1 MLOAD SWAP1 PUSH1 0x20 ADD KECCAK256 PUSH1 0x0 SHR PUSH2 0xD52 SWAP2 SWAP1 PUSH2 0x1DFF JUMP JUMPDEST PUSH1 0x40 DUP1 MLOAD PUSH1 0x3 DUP1 DUP3 MSTORE PUSH1 0x80 DUP3 ADD SWAP1 SWAP3 MSTORE PUSH1 0x60 SWAP2 PUSH1 0x0 SWAP2 SWAP1 DUP2 PUSH1 0x20 ADD JUMPDEST PUSH1 0x40 DUP1 MLOAD PUSH1 0x60 DUP2 ADD DUP3 MSTORE PUSH1 0x0 DUP1 DUP3 MSTORE PUSH1 0x20 DUP1 DUP4 ADD DUP3 SWAP1 MSTORE SWAP3 DUP3 ADD MSTORE DUP3 MSTORE PUSH1 0x0 NOT SWAP1 SWAP3 ADD SWAP2 ADD DUP2 PUSH2 0x15D2 JUMPI SWAP1 POP POP SWAP1 POP PUSH1 0x0 DUP1 JUMPDEST PUSH1 0x3 DUP2 LT ISZERO PUSH2 0x1726 JUMPI DUP5 DUP2 PUSH1 0x3 DUP2 LT PUSH2 0x1620 JUMPI PUSH2 0x1620 PUSH2 0x1C9F JUMP JUMPDEST PUSH1 0x20 MUL ADD MLOAD ISZERO PUSH2 0x1714 JUMPI PUSH1 0x40 DUP1 MLOAD PUSH1 0x60 DUP2 ADD DUP3 MSTORE PUSH1 0x0 DUP1 DUP3 MSTORE PUSH1 0x20 DUP3 ADD DUP2 SWAP1 MSTORE SWAP2 DUP2 ADD SWAP2 SWAP1 SWAP2 MSTORE PUSH1 0x2 SLOAD PUSH1 0x1 PUSH1 0x1 PUSH1 0xA0 SHL SUB AND PUSH4 0xEF7C8959 DUP8 DUP5 PUSH1 0x3 DUP2 LT PUSH2 0x166A JUMPI PUSH2 0x166A PUSH2 0x1C9F JUMP JUMPDEST PUSH1 0x20 MUL ADD MLOAD PUSH1 0x40 MLOAD DUP3 PUSH4 0xFFFFFFFF AND PUSH1 0xE0 SHL DUP2 MSTORE PUSH1 0x4 ADD PUSH2 0x168D SWAP2 DUP2 MSTORE PUSH1 0x20 ADD SWAP1 JUMP JUMPDEST PUSH1 0x60 PUSH1 0x40 MLOAD DUP1 DUP4 SUB DUP2 DUP7 GAS STATICCALL ISZERO DUP1 ISZERO PUSH2 0x16AA JUMPI RETURNDATASIZE PUSH1 0x0 DUP1 RETURNDATACOPY RETURNDATASIZE PUSH1 0x0 REVERT JUMPDEST POP POP POP POP PUSH1 0x40 MLOAD RETURNDATASIZE PUSH1 0x1F NOT PUSH1 0x1F DUP3 ADD AND DUP3 ADD DUP1 PUSH1 0x40 MSTORE POP DUP2 ADD SWAP1 PUSH2 0x16CE SWAP2 SWAP1 PUSH2 0x1E21 JUMP JUMPDEST PUSH1 0xFF SWAP1 DUP2 AND PUSH1 0x40 DUP6 ADD MSTORE SWAP1 DUP2 AND PUSH1 0x20 DUP5 ADD MSTORE AND DUP2 MSTORE DUP4 MLOAD DUP2 SWAP1 DUP6 SWAP1 DUP6 SWAP1 DUP2 LT PUSH2 0x16F9 JUMPI PUSH2 0x16F9 PUSH2 0x1C9F JUMP JUMPDEST PUSH1 0x20 MUL PUSH1 0x20 ADD ADD DUP2 SWAP1 MSTORE POP DUP3 DUP1 PUSH2 0x170F SWAP1 PUSH2 0x1D20 JUMP JUMPDEST SWAP4 POP POP POP JUMPDEST DUP1 PUSH2 0x171E DUP2 PUSH2 0x1D20 JUMP JUMPDEST SWAP2 POP POP PUSH2 0x1605 JUMP JUMPDEST POP SWAP1 SWAP4 SWAP3 POP POP POP JUMP JUMPDEST PUSH1 0x0 DUP1 PUSH1 0x0 DUP4 PUSH1 0xFF AND PUSH1 0x0 SUB PUSH2 0x174E JUMPI POP PUSH1 0x1 SWAP2 POP PUSH1 0x0 SWAP1 POP DUP1 PUSH2 0x17E9 JUMP JUMPDEST DUP4 PUSH1 0xFF AND PUSH1 0x1 SUB PUSH2 0x1787 JUMPI PUSH1 0x5A PUSH2 0x1765 PUSH1 0x64 PUSH2 0x1556 JUMP JUMPDEST LT PUSH2 0x1779 JUMPI POP PUSH1 0x0 SWAP2 POP PUSH1 0x1 SWAP1 POP DUP2 PUSH2 0x17E9 JUMP JUMPDEST POP PUSH1 0x0 SWAP2 POP DUP2 SWAP1 POP DUP1 PUSH2 0x17E9 JUMP JUMPDEST DUP4 PUSH1 0xFF AND PUSH1 0x2 SUB PUSH2 0x17A1 JUMPI POP PUSH1 0x0 SWAP2 POP DUP2 SWAP1 POP PUSH1 0x1 PUSH2 0x17E9 JUMP JUMPDEST PUSH1 0x40 MLOAD PUSH3 0x461BCD PUSH1 0xE5 SHL DUP2 MSTORE PUSH1 0x20 PUSH1 0x4 DUP3 ADD MSTORE PUSH1 0xF PUSH1 0x24 DUP3 ADD MSTORE PUSH32 0x696E76616C6964206162696C6974790000000000000000000000000000000000 PUSH1 0x44 DUP3 ADD MSTORE PUSH1 0x64 ADD PUSH2 0x3D1 JUMP JUMPDEST SWAP2 SWAP4 SWAP1 SWAP3 POP JUMP JUMPDEST DUP1 PUSH1 0x1 SUB PUSH2 0x1890 JUMPI PUSH1 0x64 PUSH2 0x1805 PUSH1 0x5 DUP5 PUSH2 0x1DFF JUMP JUMPDEST PUSH1 0x0 SUB PUSH2 0x1811 JUMPI POP PUSH2 0x3E8 JUMPDEST PUSH1 0x3 SLOAD PUSH1 0x40 MLOAD PUSH32 0x79C6506800000000000000000000000000000000000000000000000000000000 DUP2 MSTORE CALLER PUSH1 0x4 DUP3 ADD MSTORE PUSH1 0x24 DUP2 ADD DUP4 SWAP1 MSTORE PUSH1 0x1 PUSH1 0x1 PUSH1 0xA0 SHL SUB SWAP1 SWAP2 AND SWAP1 PUSH4 0x79C65068 SWAP1 PUSH1 0x44 ADD PUSH1 0x0 PUSH1 0x40 MLOAD DUP1 DUP4 SUB DUP2 PUSH1 0x0 DUP8 DUP1 EXTCODESIZE ISZERO DUP1 ISZERO PUSH2 0x1876 JUMPI PUSH1 0x0 DUP1 REVERT JUMPDEST POP GAS CALL ISZERO DUP1 ISZERO PUSH2 0x188A JUMPI RETURNDATASIZE PUSH1 0x0 DUP1 RETURNDATACOPY RETURNDATASIZE PUSH1 0x0 REVERT JUMPDEST POP POP POP POP POP JUMPDEST POP POP JUMP JUMPDEST PUSH1 0x0 DUP1 SLOAD PUSH1 0x1 PUSH1 0x1 PUSH1 0xA0 SHL SUB DUP4 DUP2 AND PUSH20 0xFFFFFFFFFFFFFFFFFFFFFFFFFFFFFFFFFFFFFFFF NOT DUP4 AND DUP2 OR DUP5 SSTORE PUSH1 0x40 MLOAD SWAP2 SWAP1 SWAP3 AND SWAP3 DUP4 SWAP2 PUSH32 0x8BE0079C531659141344CD1FD0A4F28419497F9722A3DAAFE3B4186F6B6457E0 SWAP2 SWAP1 LOG3 POP POP JUMP JUMPDEST PUSH1 0x1 PUSH1 0x1 PUSH1 0xA0 SHL SUB DUP2 AND DUP2 EQ PUSH2 0xFE2 JUMPI PUSH1 0x0 DUP1 REVERT JUMPDEST PUSH1 0x0 PUSH1 0x20 DUP3 DUP5 SUB SLT ISZERO PUSH2 0x1918 JUMPI PUSH1 0x0 DUP1 REVERT JUMPDEST DUP2 CALLDATALOAD PUSH2 0x1923 DUP2 PUSH2 0x18F1 JUMP JUMPDEST SWAP4 SWAP3 POP POP POP JUMP JUMPDEST PUSH4 0x4E487B71 PUSH1 0xE0 SHL PUSH1 0x0 MSTORE PUSH1 0x41 PUSH1 0x4 MSTORE PUSH1 0x24 PUSH1 0x0 REVERT JUMPDEST PUSH1 0x40 MLOAD PUSH1 0x60 DUP2 ADD PUSH8 0xFFFFFFFFFFFFFFFF DUP2 GT DUP3 DUP3 LT OR ISZERO PUSH2 0x1963 JUMPI PUSH2 0x1963 PUSH2 0x192A JUMP JUMPDEST PUSH1 0x40 MSTORE SWAP1 JUMP JUMPDEST PUSH1 0x0 PUSH1 0x60 DUP3 DUP5 SUB SLT ISZERO PUSH2 0x197B JUMPI PUSH1 0x0 DUP1 REVERT JUMPDEST DUP3 PUSH1 0x1F DUP4 ADD SLT PUSH2 0x198A JUMPI PUSH1 0x0 DUP1 REVERT JUMPDEST PUSH2 0x1992 PUSH2 0x1940 JUMP JUMPDEST DUP1 PUSH1 0x60 DUP5 ADD DUP6 DUP2 GT ISZERO PUSH2 0x19A4 JUMPI PUSH1 0x0 DUP1 REVERT JUMPDEST DUP5 JUMPDEST DUP2 DUP2 LT ISZERO PUSH2 0x19BE JUMPI DUP1 CALLDATALOAD DUP5 MSTORE PUSH1 0x20 SWAP4 DUP5 ADD SWAP4 ADD PUSH2 0x19A6 JUMP JUMPDEST POP SWAP1 SWAP6 SWAP5 POP POP POP POP POP JUMP JUMPDEST DUP1 ISZERO ISZERO DUP2 EQ PUSH2 0xFE2 JUMPI PUSH1 0x0 DUP1 REVERT JUMPDEST DUP1 CALLDATALOAD PUSH2 0x19E2 DUP2 PUSH2 0x19C9 JUMP JUMPDEST SWAP2 SWAP1 POP JUMP JUMPDEST PUSH1 0xFF DUP2 AND DUP2 EQ PUSH2 0xFE2 JUMPI PUSH1 0x0 DUP1 REVERT JUMPDEST DUP1 CALLDATALOAD PUSH2 0x19E2 DUP2 PUSH2 0x19E7 JUMP JUMPDEST PUSH1 0x0 PUSH2 0x100 DUP1 DUP4 DUP6 SUB SLT ISZERO PUSH2 0x1A15 JUMPI PUSH1 0x0 DUP1 REVERT JUMPDEST PUSH1 0x40 MLOAD SWAP1 DUP2 ADD SWAP1 PUSH8 0xFFFFFFFFFFFFFFFF DUP3 GT DUP2 DUP4 LT OR ISZERO PUSH2 0x1A38 JUMPI PUSH2 0x1A38 PUSH2 0x192A JUMP JUMPDEST DUP2 PUSH1 0x40 MSTORE DUP1 SWAP3 POP DUP4 CALLDATALOAD SWAP2 POP PUSH2 0x1A4C DUP3 PUSH2 0x19C9 JUMP JUMPDEST DUP2 DUP2 MSTORE PUSH2 0x1A5B PUSH1 0x20 DUP6 ADD PUSH2 0x19D7 JUMP JUMPDEST PUSH1 0x20 DUP3 ADD MSTORE PUSH2 0x1A6C PUSH1 0x40 DUP6 ADD PUSH2 0x19D7 JUMP JUMPDEST PUSH1 0x40 DUP3 ADD MSTORE PUSH2 0x1A7D PUSH1 0x60 DUP6 ADD PUSH2 0x19F6 JUMP JUMPDEST PUSH1 0x60 DUP3 ADD MSTORE PUSH2 0x1A8E PUSH1 0x80 DUP6 ADD PUSH2 0x19F6 JUMP JUMPDEST PUSH1 0x80 DUP3 ADD MSTORE PUSH2 0x1A9F PUSH1 0xA0 DUP6 ADD PUSH2 0x19F6 JUMP JUMPDEST PUSH1 0xA0 DUP3 ADD MSTORE PUSH2 0x1AB0 PUSH1 0xC0 DUP6 ADD PUSH2 0x19F6 JUMP JUMPDEST PUSH1 0xC0 DUP3 ADD MSTORE PUSH2 0x1AC1 PUSH1 0xE0 DUP6 ADD PUSH2 0x19F6 JUMP JUMPDEST PUSH1 0xE0 DUP3 ADD MSTORE POP POP SWAP3 SWAP2 POP POP JUMP JUMPDEST PUSH1 0x0 DUP1 PUSH2 0x200 DUP4 DUP6 SUB SLT ISZERO PUSH2 0x1AE2 JUMPI PUSH1 0x0 DUP1 REVERT JUMPDEST PUSH2 0x1AEC DUP5 DUP5 PUSH2 0x1A01 JUMP JUMPDEST SWAP2 POP PUSH2 0x1AFC DUP5 PUSH2 0x100 DUP6 ADD PUSH2 0x1A01 JUMP JUMPDEST SWAP1 POP SWAP3 POP SWAP3 SWAP1 POP JUMP JUMPDEST PUSH1 0x0 PUSH1 0x20 DUP3 DUP5 SUB SLT ISZERO PUSH2 0x1B17 JUMPI PUSH1 0x0 DUP1 REVERT JUMPDEST POP CALLDATALOAD SWAP2 SWAP1 POP JUMP JUMPDEST DUP1 MLOAD ISZERO ISZERO DUP3 MSTORE PUSH1 0x20 DUP2 ADD MLOAD ISZERO ISZERO PUSH1 0x20 DUP4 ADD MSTORE PUSH1 0x40 DUP2 ADD MLOAD ISZERO ISZERO PUSH1 0x40 DUP4 ADD MSTORE PUSH1 0xFF PUSH1 0x60 DUP3 ADD MLOAD AND PUSH1 0x60 DUP4 ADD MSTORE PUSH1 0xFF PUSH1 0x80 DUP3 ADD MLOAD AND PUSH1 0x80 DUP4 ADD MSTORE PUSH1 0xA0 DUP2 ADD MLOAD PUSH2 0x1B6A PUSH1 0xA0 DUP5 ADD DUP3 PUSH1 0xFF AND SWAP1 MSTORE JUMP JUMPDEST POP PUSH1 0xC0 DUP2 ADD MLOAD PUSH2 0x1B7F PUSH1 0xC0 DUP5 ADD DUP3 PUSH1 0xFF AND SWAP1 MSTORE JUMP JUMPDEST POP PUSH1 0xE0 DUP2 ADD MLOAD PUSH2 0x1B94 PUSH1 0xE0 DUP5 ADD DUP3 PUSH1 0xFF AND SWAP1 MSTORE JUMP JUMPDEST POP POP POP JUMP JUMPDEST PUSH2 0x100 DUP2 ADD PUSH2 0xD52 DUP3 DUP5 PUSH2 0x1B1E JUMP JUMPDEST PUSH1 0x20 DUP1 DUP3 MSTORE DUP3 MLOAD DUP3 DUP3 ADD DUP2 SWAP1 MSTORE PUSH1 0x0 SWAP2 SWAP1 DUP5 DUP3 ADD SWAP1 PUSH1 0x40 DUP6 ADD SWAP1 DUP5 JUMPDEST DUP2 DUP2 LT ISZERO PUSH2 0x1BFF JUMPI DUP4 MLOAD PUSH2 0x1BD9 DUP5 DUP3 MLOAD PUSH2 0x1B1E JUMP JUMPDEST DUP6 ADD MLOAD PUSH2 0x1BEA PUSH2 0x100 DUP6 ADD DUP3 PUSH2 0x1B1E JUMP JUMPDEST POP SWAP3 DUP5 ADD SWAP3 PUSH2 0x200 SWAP3 SWAP1 SWAP3 ADD SWAP2 PUSH1 0x1 ADD PUSH2 0x1BC4 JUMP JUMPDEST POP SWAP1 SWAP7 SWAP6 POP POP POP POP POP POP JUMP JUMPDEST PUSH1 0x0 DUP1 PUSH1 0x40 DUP4 DUP6 SUB SLT ISZERO PUSH2 0x1C1E JUMPI PUSH1 0x0 DUP1 REVERT JUMPDEST POP POP DUP1 CALLDATALOAD SWAP3 PUSH1 0x20 SWAP1 SWAP2 ADD CALLDATALOAD SWAP2 POP JUMP JUMPDEST PUSH1 0x0 PUSH2 0x100 DUP3 DUP5 SUB SLT ISZERO PUSH2 0x1C40 JUMPI PUSH1 0x0 DUP1 REVERT JUMPDEST PUSH2 0x1923 DUP4 DUP4 PUSH2 0x1A01 JUMP JUMPDEST PUSH1 0x0 PUSH1 0x60 DUP3 DUP5 SUB SLT ISZERO PUSH2 0x1C5C JUMPI PUSH1 0x0 DUP1 REVERT JUMPDEST DUP3 PUSH1 0x1F DUP4 ADD SLT PUSH2 0x1C6B JUMPI PUSH1 0x0 DUP1 REVERT JUMPDEST PUSH2 0x1C73 PUSH2 0x1940 JUMP JUMPDEST DUP1 PUSH1 0x60 DUP5 ADD DUP6 DUP2 GT ISZERO PUSH2 0x1C85 JUMPI PUSH1 0x0 DUP1 REVERT JUMPDEST DUP5 JUMPDEST DUP2 DUP2 LT ISZERO PUSH2 0x19BE JUMPI DUP1 MLOAD DUP5 MSTORE PUSH1 0x20 SWAP4 DUP5 ADD SWAP4 ADD PUSH2 0x1C87 JUMP JUMPDEST PUSH4 0x4E487B71 PUSH1 0xE0 SHL PUSH1 0x0 MSTORE PUSH1 0x32 PUSH1 0x4 MSTORE PUSH1 0x24 PUSH1 0x0 REVERT JUMPDEST PUSH1 0x0 PUSH1 0x20 DUP3 DUP5 SUB SLT ISZERO PUSH2 0x1CC7 JUMPI PUSH1 0x0 DUP1 REVERT JUMPDEST DUP2 MLOAD PUSH2 0x1923 DUP2 PUSH2 0x19C9 JUMP JUMPDEST PUSH4 0x4E487B71 PUSH1 0xE0 SHL PUSH1 0x0 MSTORE PUSH1 0x11 PUSH1 0x4 MSTORE PUSH1 0x24 PUSH1 0x0 REVERT JUMPDEST PUSH1 0x0 PUSH1 0xFF DUP3 AND PUSH1 0xFF DUP2 SUB PUSH2 0x1CFE JUMPI PUSH2 0x1CFE PUSH2 0x1CD2 JUMP JUMPDEST PUSH1 0x1 ADD SWAP3 SWAP2 POP POP JUMP JUMPDEST PUSH1 0xFF DUP3 DUP2 AND DUP3 DUP3 AND SUB SWAP1 DUP2 GT ISZERO PUSH2 0xD52 JUMPI PUSH2 0xD52 PUSH2 0x1CD2 JUMP JUMPDEST PUSH1 0x0 PUSH1 0x1 DUP3 ADD PUSH2 0x1D32 JUMPI PUSH2 0x1D32 PUSH2 0x1CD2 JUMP JUMPDEST POP PUSH1 0x1 ADD SWAP1 JUMP JUMPDEST PUSH1 0x0 DUP2 MLOAD DUP1 DUP5 MSTORE PUSH1 0x20 DUP1 DUP6 ADD SWAP5 POP DUP1 DUP5 ADD PUSH1 0x0 JUMPDEST DUP4 DUP2 LT ISZERO PUSH2 0x1D87 JUMPI DUP2 MLOAD DUP1 MLOAD PUSH1 0xFF SWAP1 DUP2 AND DUP10 MSTORE DUP5 DUP3 ADD MLOAD DUP2 AND DUP6 DUP11 ADD MSTORE PUSH1 0x40 SWAP2 DUP3 ADD MLOAD AND SWAP1 DUP9 ADD MSTORE PUSH1 0x60 SWAP1 SWAP7 ADD SWAP6 SWAP1 DUP3 ADD SWAP1 PUSH1 0x1 ADD PUSH2 0x1D4D JUMP JUMPDEST POP SWAP5 SWAP6 SWAP5 POP POP POP POP POP JUMP JUMPDEST PUSH1 0x1 PUSH1 0x1 PUSH1 0xA0 SHL SUB DUP7 AND DUP2 MSTORE DUP5 PUSH1 0x20 DUP3 ADD MSTORE PUSH1 0xA0 PUSH1 0x40 DUP3 ADD MSTORE PUSH1 0x0 PUSH2 0x1DBA PUSH1 0xA0 DUP4 ADD DUP7 PUSH2 0x1D39 JUMP JUMPDEST DUP3 DUP2 SUB PUSH1 0x60 DUP5 ADD MSTORE PUSH2 0x1DCC DUP2 DUP7 PUSH2 0x1D39 JUMP JUMPDEST SWAP2 POP POP PUSH1 0xFF DUP4 AND PUSH1 0x80 DUP4 ADD MSTORE SWAP7 SWAP6 POP POP POP POP POP POP JUMP JUMPDEST PUSH1 0x0 PUSH1 0x20 DUP3 DUP5 SUB SLT ISZERO PUSH2 0x1DF4 JUMPI PUSH1 0x0 DUP1 REVERT JUMPDEST DUP2 MLOAD PUSH2 0x1923 DUP2 PUSH2 0x18F1 JUMP JUMPDEST PUSH1 0x0 DUP3 PUSH2 0x1E1C JUMPI PUSH4 0x4E487B71 PUSH1 0xE0 SHL PUSH1 0x0 MSTORE PUSH1 0x12 PUSH1 0x4 MSTORE PUSH1 0x24 PUSH1 0x0 REVERT JUMPDEST POP MOD SWAP1 JUMP JUMPDEST PUSH1 0x0 DUP1 PUSH1 0x0 PUSH1 0x60 DUP5 DUP7 SUB SLT ISZERO PUSH2 0x1E36 JUMPI PUSH1 0x0 DUP1 REVERT JUMPDEST DUP4 MLOAD PUSH2 0x1E41 DUP2 PUSH2 0x19E7 JUMP JUMPDEST PUSH1 0x20 DUP6 ADD MLOAD SWAP1 SWAP4 POP PUSH2 0x1E52 DUP2 PUSH2 0x19E7 JUMP JUMPDEST PUSH1 0x40 DUP6 ADD MLOAD SWAP1 SWAP3 POP PUSH2 0x1E63 DUP2 PUSH2 0x19E7 JUMP JUMPDEST DUP1 SWAP2 POP POP SWAP3 POP SWAP3 POP SWAP3 JUMP INVALID LOG2 PUSH5 0x6970667358 0x22 SLT KECCAK256 PUSH1 0x2F 0xDD DUP11 LOG0 0xC1 0xB4 0xD7 0xEC 0xD0 SELFBALANCE 0xF9 GAS SDIV SMOD XOR MSTORE 0xA9 JUMPDEST SLOAD TIMESTAMP EXTCODEHASH 0xAE PUSH32 0x937E628912041FB064736F6C6343000814003300000000000000000000000000 "},"methodIdentifiers":{"battle(uint256[3])":"2a74b2e0","cards()":"58a4903f","decodeState(uint256)":"4537a22e","encodeState((bool,bool,bool,uint8,uint8,uint8,uint8,uint8))":"ff0b17d6","gameTurns(uint256,uint256)":"e1beb977","getGameTurns(uint256)":"bec8f3c2","getTurn((bool,bool,bool,uint8,uint8,uint8,uint8,uint8),(bool,bool,bool,uint8,uint8,uint8,uint8,uint8))":"38f73fa2","owner()":"8da5cb5b","records(address)":"469e9067","renounceOwnership()":"715018a6","setCards(address)":"e350e5c9","setToken(address)":"144fa6d7","token()":"fc0c546a","transferOwnership(address)":"f2fde38b","validate(uint256[3])":"63c5633e"}}}}}