{
  "_format": "hh-sol-artifact-1",
  "contractName": "ExPopulusCards",
  "sourceName": "contracts/ExPopulusCards.sol",
  "abi": [
    {
      "inputs": [],
      "stateMutability": "nonpayable",
      "type": "constructor"
    },
    {
      "inputs": [],
      "name": "AccessControlBadConfirmation",
      "type": "error"
    },
    {
      "inputs": [
        {
          "internalType": "address",
          "name": "account",
          "type": "address"
        },
        {
          "internalType": "bytes32",
          "name": "neededRole",
          "type": "bytes32"
        }
      ],
      "name": "AccessControlUnauthorizedAccount",
      "type": "error"
    },
    {
      "inputs": [
        {
          "internalType": "address",
          "name": "sender",
          "type": "address"
        },
        {
          "internalType": "uint256",
          "name": "tokenId",
          "type": "uint256"
        },
        {
          "internalType": "address",
          "name": "owner",
          "type": "address"
        }
      ],
      "name": "ERC721IncorrectOwner",
      "type": "error"
    },
    {
      "inputs": [
        {
          "internalType": "address",
          "name": "operator",
          "type": "address"
        },
        {
          "internalType": "uint256",
          "name": "tokenId",
          "type": "uint256"
        }
      ],
      "name": "ERC721InsufficientApproval",
      "type": "error"
    },
    {
      "inputs": [
        {
          "internalType": "address",
          "name": "approver",
          "type": "address"
        }
      ],
      "name": "ERC721InvalidApprover",
      "type": "error"
    },
    {
      "inputs": [
        {
          "internalType": "address",
          "name": "operator",
          "type": "address"
        }
      ],
      "name": "ERC721InvalidOperator",
      "type": "error"
    },
    {
      "inputs": [
        {
          "internalType": "address",
          "name": "owner",
          "type": "address"
        }
      ],
      "name": "ERC721InvalidOwner",
      "type": "error"
    },
    {
      "inputs": [
        {
          "internalType": "address",
          "name": "receiver",
          "type": "address"
        }
      ],
      "name": "ERC721InvalidReceiver",
      "type": "error"
    },
    {
      "inputs": [
        {
          "internalType": "address",
          "name": "sender",
          "type": "address"
        }
      ],
      "name": "ERC721InvalidSender",
      "type": "error"
    },
    {
      "inputs": [
        {
          "internalType": "uint256",
          "name": "tokenId",
          "type": "uint256"
        }
      ],
      "name": "ERC721NonexistentToken",
      "type": "error"
    },
    {
      "anonymous": false,
      "inputs": [
        {
          "indexed": true,
          "internalType": "address",
          "name": "owner",
          "type": "address"
        },
        {
          "indexed": true,
          "internalType": "address",
          "name": "approved",
          "type": "address"
        },
        {
          "indexed": true,
          "internalType": "uint256",
          "name": "tokenId",
          "type": "uint256"
        }
      ],
      "name": "Approval",
      "type": "event"
    },
    {
      "anonymous": false,
      "inputs": [
        {
          "indexed": true,
          "internalType": "address",
          "name": "owner",
          "type": "address"
        },
        {
          "indexed": true,
          "internalType": "address",
          "name": "operator",
          "type": "address"
        },
        {
          "indexed": false,
          "internalType": "bool",
          "name": "approved",
          "type": "bool"
        }
      ],
      "name": "ApprovalForAll",
      "type": "event"
    },
    {
      "anonymous": false,
      "inputs": [
        {
          "indexed": false,
          "internalType": "address",
          "name": "to",
          "type": "address"
        },
        {
          "indexed": false,
          "internalType": "uint256",
          "name": "id",
          "type": "uint256"
        },
        {
          "components": [
            {
              "internalType": "uint8",
              "name": "attack",
              "type": "uint8"
            },
            {
              "internalType": "uint8",
              "name": "health",
              "type": "uint8"
            },
            {
              "internalType": "uint8",
              "name": "ability",
              "type": "uint8"
            }
          ],
          "indexed": false,
          "internalType": "struct ExPopulusCards.NftData",
          "name": "data",
          "type": "tuple"
        }
      ],
      "name": "Mint",
      "type": "event"
    },
    {
      "anonymous": false,
      "inputs": [
        {
          "indexed": true,
          "internalType": "bytes32",
          "name": "role",
          "type": "bytes32"
        },
        {
          "indexed": true,
          "internalType": "bytes32",
          "name": "previousAdminRole",
          "type": "bytes32"
        },
        {
          "indexed": true,
          "internalType": "bytes32",
          "name": "newAdminRole",
          "type": "bytes32"
        }
      ],
      "name": "RoleAdminChanged",
      "type": "event"
    },
    {
      "anonymous": false,
      "inputs": [
        {
          "indexed": true,
          "internalType": "bytes32",
          "name": "role",
          "type": "bytes32"
        },
        {
          "indexed": true,
          "internalType": "address",
          "name": "account",
          "type": "address"
        },
        {
          "indexed": true,
          "internalType": "address",
          "name": "sender",
          "type": "address"
        }
      ],
      "name": "RoleGranted",
      "type": "event"
    },
    {
      "anonymous": false,
      "inputs": [
        {
          "indexed": true,
          "internalType": "bytes32",
          "name": "role",
          "type": "bytes32"
        },
        {
          "indexed": true,
          "internalType": "address",
          "name": "account",
          "type": "address"
        },
        {
          "indexed": true,
          "internalType": "address",
          "name": "sender",
          "type": "address"
        }
      ],
      "name": "RoleRevoked",
      "type": "event"
    },
    {
      "anonymous": false,
      "inputs": [
        {
          "indexed": true,
          "internalType": "address",
          "name": "from",
          "type": "address"
        },
        {
          "indexed": true,
          "internalType": "address",
          "name": "to",
          "type": "address"
        },
        {
          "indexed": true,
          "internalType": "uint256",
          "name": "tokenId",
          "type": "uint256"
        }
      ],
      "name": "Transfer",
      "type": "event"
    },
    {
      "inputs": [],
      "name": "DEFAULT_ADMIN_ROLE",
      "outputs": [
        {
          "internalType": "bytes32",
          "name": "",
          "type": "bytes32"
        }
      ],
      "stateMutability": "view",
      "type": "function"
    },
    {
      "inputs": [],
      "name": "MINTER_ROLE",
      "outputs": [
        {
          "internalType": "bytes32",
          "name": "",
          "type": "bytes32"
        }
      ],
      "stateMutability": "view",
      "type": "function"
    },
    {
      "inputs": [
        {
          "internalType": "uint256",
          "name": "",
          "type": "uint256"
        }
      ],
      "name": "abilityPriority",
      "outputs": [
        {
          "internalType": "uint256",
          "name": "",
          "type": "uint256"
        }
      ],
      "stateMutability": "view",
      "type": "function"
    },
    {
      "inputs": [
        {
          "internalType": "address",
          "name": "to",
          "type": "address"
        },
        {
          "internalType": "uint256",
          "name": "tokenId",
          "type": "uint256"
        }
      ],
      "name": "approve",
      "outputs": [],
      "stateMutability": "nonpayable",
      "type": "function"
    },
    {
      "inputs": [
        {
          "internalType": "address",
          "name": "owner",
          "type": "address"
        }
      ],
      "name": "balanceOf",
      "outputs": [
        {
          "internalType": "uint256",
          "name": "",
          "type": "uint256"
        }
      ],
      "stateMutability": "view",
      "type": "function"
    },
    {
      "inputs": [
        {
          "internalType": "uint256",
          "name": "_id",
          "type": "uint256"
        }
      ],
      "name": "cardDetails",
      "outputs": [
        {
          "internalType": "uint8",
          "name": "",
          "type": "uint8"
        },
        {
          "internalType": "uint8",
          "name": "",
          "type": "uint8"
        },
        {
          "internalType": "uint8",
          "name": "",
          "type": "uint8"
        }
      ],
      "stateMutability": "view",
      "type": "function"
    },
    {
      "inputs": [
        {
          "internalType": "uint256",
          "name": "alpha",
          "type": "uint256"
        },
        {
          "internalType": "uint256",
          "name": "beta",
          "type": "uint256"
        }
      ],
      "name": "checkAbility",
      "outputs": [
        {
          "internalType": "bool",
          "name": "",
          "type": "bool"
        }
      ],
      "stateMutability": "view",
      "type": "function"
    },
    {
      "inputs": [
        {
          "internalType": "uint256",
          "name": "tokenId",
          "type": "uint256"
        }
      ],
      "name": "getApproved",
      "outputs": [
        {
          "internalType": "address",
          "name": "",
          "type": "address"
        }
      ],
      "stateMutability": "view",
      "type": "function"
    },
    {
      "inputs": [
        {
          "internalType": "bytes32",
          "name": "role",
          "type": "bytes32"
        }
      ],
      "name": "getRoleAdmin",
      "outputs": [
        {
          "internalType": "bytes32",
          "name": "",
          "type": "bytes32"
        }
      ],
      "stateMutability": "view",
      "type": "function"
    },
    {
      "inputs": [
        {
          "internalType": "bytes32",
          "name": "role",
          "type": "bytes32"
        },
        {
          "internalType": "address",
          "name": "account",
          "type": "address"
        }
      ],
      "name": "grantRole",
      "outputs": [],
      "stateMutability": "nonpayable",
      "type": "function"
    },
    {
      "inputs": [
        {
          "internalType": "bytes32",
          "name": "role",
          "type": "bytes32"
        },
        {
          "internalType": "address",
          "name": "account",
          "type": "address"
        }
      ],
      "name": "hasRole",
      "outputs": [
        {
          "internalType": "bool",
          "name": "",
          "type": "bool"
        }
      ],
      "stateMutability": "view",
      "type": "function"
    },
    {
      "inputs": [
        {
          "internalType": "address",
          "name": "owner",
          "type": "address"
        },
        {
          "internalType": "address",
          "name": "operator",
          "type": "address"
        }
      ],
      "name": "isApprovedForAll",
      "outputs": [
        {
          "internalType": "bool",
          "name": "",
          "type": "bool"
        }
      ],
      "stateMutability": "view",
      "type": "function"
    },
    {
      "inputs": [
        {
          "internalType": "address",
          "name": "to",
          "type": "address"
        },
        {
          "internalType": "uint8",
          "name": "attack",
          "type": "uint8"
        },
        {
          "internalType": "uint8",
          "name": "health",
          "type": "uint8"
        },
        {
          "internalType": "uint8",
          "name": "ability",
          "type": "uint8"
        }
      ],
      "name": "mintCard",
      "outputs": [],
      "stateMutability": "nonpayable",
      "type": "function"
    },
    {
      "inputs": [],
      "name": "name",
      "outputs": [
        {
          "internalType": "string",
          "name": "",
          "type": "string"
        }
      ],
      "stateMutability": "view",
      "type": "function"
    },
    {
      "inputs": [
        {
          "internalType": "uint256",
          "name": "",
          "type": "uint256"
        }
      ],
      "name": "nftData",
      "outputs": [
        {
          "internalType": "uint8",
          "name": "attack",
          "type": "uint8"
        },
        {
          "internalType": "uint8",
          "name": "health",
          "type": "uint8"
        },
        {
          "internalType": "uint8",
          "name": "ability",
          "type": "uint8"
        }
      ],
      "stateMutability": "view",
      "type": "function"
    },
    {
      "inputs": [
        {
          "internalType": "uint256",
          "name": "tokenId",
          "type": "uint256"
        }
      ],
      "name": "ownerOf",
      "outputs": [
        {
          "internalType": "address",
          "name": "",
          "type": "address"
        }
      ],
      "stateMutability": "view",
      "type": "function"
    },
    {
      "inputs": [],
      "name": "pickEnemyDeck",
      "outputs": [
        {
          "internalType": "uint256[3]",
          "name": "",
          "type": "uint256[3]"
        }
      ],
      "stateMutability": "view",
      "type": "function"
    },
    {
      "inputs": [
        {
          "internalType": "bytes32",
          "name": "role",
          "type": "bytes32"
        },
        {
          "internalType": "address",
          "name": "callerConfirmation",
          "type": "address"
        }
      ],
      "name": "renounceRole",
      "outputs": [],
      "stateMutability": "nonpayable",
      "type": "function"
    },
    {
      "inputs": [
        {
          "internalType": "bytes32",
          "name": "role",
          "type": "bytes32"
        },
        {
          "internalType": "address",
          "name": "account",
          "type": "address"
        }
      ],
      "name": "revokeRole",
      "outputs": [],
      "stateMutability": "nonpayable",
      "type": "function"
    },
    {
      "inputs": [
        {
          "internalType": "address",
          "name": "from",
          "type": "address"
        },
        {
          "internalType": "address",
          "name": "to",
          "type": "address"
        },
        {
          "internalType": "uint256",
          "name": "tokenId",
          "type": "uint256"
        }
      ],
      "name": "safeTransferFrom",
      "outputs": [],
      "stateMutability": "nonpayable",
      "type": "function"
    },
    {
      "inputs": [
        {
          "internalType": "address",
          "name": "from",
          "type": "address"
        },
        {
          "internalType": "address",
          "name": "to",
          "type": "address"
        },
        {
          "internalType": "uint256",
          "name": "tokenId",
          "type": "uint256"
        },
        {
          "internalType": "bytes",
          "name": "data",
          "type": "bytes"
        }
      ],
      "name": "safeTransferFrom",
      "outputs": [],
      "stateMutability": "nonpayable",
      "type": "function"
    },
    {
      "inputs": [
        {
          "internalType": "uint256",
          "name": "ability",
          "type": "uint256"
        },
        {
          "internalType": "uint256",
          "name": "priority",
          "type": "uint256"
        }
      ],
      "name": "setAbilityPriority",
      "outputs": [],
      "stateMutability": "nonpayable",
      "type": "function"
    },
    {
      "inputs": [
        {
          "internalType": "address",
          "name": "operator",
          "type": "address"
        },
        {
          "internalType": "bool",
          "name": "approved",
          "type": "bool"
        }
      ],
      "name": "setApprovalForAll",
      "outputs": [],
      "stateMutability": "nonpayable",
      "type": "function"
    },
    {
      "inputs": [
        {
          "internalType": "bytes4",
          "name": "interfaceId",
          "type": "bytes4"
        }
      ],
      "name": "supportsInterface",
      "outputs": [
        {
          "internalType": "bool",
          "name": "",
          "type": "bool"
        }
      ],
      "stateMutability": "view",
      "type": "function"
    },
    {
      "inputs": [],
      "name": "symbol",
      "outputs": [
        {
          "internalType": "string",
          "name": "",
          "type": "string"
        }
      ],
      "stateMutability": "view",
      "type": "function"
    },
    {
      "inputs": [
        {
          "internalType": "uint256",
          "name": "tokenId",
          "type": "uint256"
        }
      ],
      "name": "tokenURI",
      "outputs": [
        {
          "internalType": "string",
          "name": "",
          "type": "string"
        }
      ],
      "stateMutability": "view",
      "type": "function"
    },
    {
      "inputs": [
        {
          "internalType": "address",
          "name": "from",
          "type": "address"
        },
        {
          "internalType": "address",
          "name": "to",
          "type": "address"
        },
        {
          "internalType": "uint256",
          "name": "tokenId",
          "type": "uint256"
        }
      ],
      "name": "transferFrom",
      "outputs": [],
      "stateMutability": "nonpayable",
      "type": "function"
    },
    {
      "inputs": [
        {
          "internalType": "uint256",
          "name": "_maxAbility",
          "type": "uint256"
        }
      ],
      "name": "updateMaxAbility",
      "outputs": [],
      "stateMutability": "nonpayable",
      "type": "function"
    }
  ],
  "bytecode": "0x60806040523480156200001157600080fd5b506040518060400160405280600e81526020016d4578506f70756c7573436172647360901b8152506040518060400160405280600381526020016245504360e81b815250816000908162000066919062000336565b50600162000075828262000336565b50620000879150600090503362000172565b50620000b47f9f2df0fed2c77648de5860a4cc508cd0818c85b8b8a1ab4ceeef8d981c8956a63362000172565b5060026009556040805160608101825260008082526020820181905291810191909152620000e790600890600362000225565b506040805160608101825260008082526020820181815292820181815260078054600181018255925291517fa66cc928b5edb82af9bd49922954155ab7b0942694bea4ce44661d9a8736c68890910180549351925160ff908116620100000262ff0000199482166101000261ffff199096169390911692909217939093179190911617905562000402565b60008281526006602090815260408083206001600160a01b038516845290915281205460ff166200021b5760008381526006602090815260408083206001600160a01b03861684529091529020805460ff19166001179055620001d23390565b6001600160a01b0316826001600160a01b0316847f2f8788117e7eff1d82e926ec794901d17c78024a50270940304540a733656f0d60405160405180910390a45060016200021f565b5060005b92915050565b82805482825590600052602060002090810192821562000268579160200282015b8281111562000268578251829060ff1690559160200191906001019062000246565b50620002769291506200027a565b5090565b5b808211156200027657600081556001016200027b565b634e487b7160e01b600052604160045260246000fd5b600181811c90821680620002bc57607f821691505b602082108103620002dd57634e487b7160e01b600052602260045260246000fd5b50919050565b601f8211156200033157600081815260208120601f850160051c810160208610156200030c5750805b601f850160051c820191505b818110156200032d5782815560010162000318565b5050505b505050565b81516001600160401b0381111562000352576200035262000291565b6200036a81620003638454620002a7565b84620002e3565b602080601f831160018114620003a25760008415620003895750858301515b600019600386901b1c1916600185901b1785556200032d565b600085815260208120601f198616915b82811015620003d357888601518255948401946001909101908401620003b2565b5085821015620003f25787850151600019600388901b60f8161c191681555b5050505050600190811b01905550565b611d4a80620004126000396000f3fe608060405234801561001057600080fd5b50600436106101c45760003560e01c8063758aed7b116100f9578063b88d4fde11610097578063d547741f11610071578063d547741f14610428578063d8fc7a621461043b578063e985e9c514610450578063ef7c89591461048c57600080fd5b8063b88d4fde146103db578063c87b56dd146103ee578063d53913931461040157600080fd5b806391d14854116100d357806391d148541461037f57806395d89b41146103b8578063a217fddf146103c0578063a22cb465146103c857600080fd5b8063758aed7b1461032257806388a1d675146103355780638c2109751461034857600080fd5b80632f2ff15d1161016657806357d087251161014057806357d08725146102d65780636352211e146102e95780636887eee8146102fc57806370a082311461030f57600080fd5b80632f2ff15d1461029d57806336568abe146102b057806342842e0e146102c357600080fd5b8063095ea7b3116101a2578063095ea7b31461023157806323b872dd14610246578063248a9ca314610259578063299ac4251461028a57600080fd5b806301ffc9a7146101c957806306fdde03146101f1578063081812fc14610206575b600080fd5b6101dc6101d7366004611859565b61049f565b60405190151581526020015b60405180910390f35b6101f96104b0565b6040516101e891906118c6565b6102196102143660046118d9565b610542565b6040516001600160a01b0390911681526020016101e8565b61024461023f36600461190e565b61056b565b005b610244610254366004611938565b61057a565b61027c6102673660046118d9565b60009081526006602052604090206001015490565b6040519081526020016101e8565b610244610298366004611985565b610623565b6102446102ab3660046119d9565b6107eb565b6102446102be3660046119d9565b610810565b6102446102d1366004611938565b610861565b6102446102e4366004611a05565b61087c565b6102196102f73660046118d9565b610a11565b6101dc61030a366004611a05565b610a1c565b61027c61031d366004611a27565b610b4c565b61027c6103303660046118d9565b610bad565b6102446103433660046118d9565b610bce565b61035b6103563660046118d9565b610bdf565b6040805160ff948516815292841660208401529216918101919091526060016101e8565b6101dc61038d3660046119d9565b60009182526006602090815260408084206001600160a01b0393909316845291905290205460ff1690565b6101f9610c14565b61027c600081565b6102446103d6366004611a42565b610c23565b6102446103e9366004611a94565b610c2e565b6101f96103fc3660046118d9565b610c45565b61027c7f9f2df0fed2c77648de5860a4cc508cd0818c85b8b8a1ab4ceeef8d981c8956a681565b6102446104363660046119d9565b610cba565b610443610cdf565b6040516101e89190611b70565b6101dc61045e366004611ba1565b6001600160a01b03918216600090815260056020908152604080832093909416825291909152205460ff1690565b61035b61049a3660046118d9565b610d9f565b60006104aa82610e21565b92915050565b6060600080546104bf90611bcb565b80601f01602080910402602001604051908101604052809291908181526020018280546104eb90611bcb565b80156105385780601f1061050d57610100808354040283529160200191610538565b820191906000526020600020905b81548152906001019060200180831161051b57829003601f168201915b5050505050905090565b600061054d82610e5f565b506000828152600460205260409020546001600160a01b03166104aa565b610576828233610e98565b5050565b6001600160a01b0382166105a957604051633250574960e11b8152600060048201526024015b60405180910390fd5b60006105b6838333610ea5565b9050836001600160a01b0316816001600160a01b03161461061d576040517f64283d7b0000000000000000000000000000000000000000000000000000000081526001600160a01b03808616600483015260248201849052821660448201526064016105a0565b50505050565b7f9f2df0fed2c77648de5860a4cc508cd0818c85b8b8a1ab4ceeef8d981c8956a661064d81610fab565b8160ff166009548111156106b55760405162461bcd60e51b815260206004820152602960248201527f4162696c697479206d757374206265206c657373207468616e20746865206d6160448201526878206162696c69747960b81b60648201526084016105a0565b6007546106c28782610fb8565b6040805160608101825260ff80891682528781166020830190815287821693830193845260078054600181018255600082905293517fa66cc928b5edb82af9bd49922954155ab7b0942694bea4ce44661d9a8736c6889094018054925195518416620100000262ff0000199685166101000261ffff199094169590941694909417919091179390931617905580547fa6b9795fa24f7baee8e14683772d2b63d8ec099653bbf62102953e25c9c4b7899189918491908290811061078757610787611bff565b906000526020600020016040516107da939291906001600160a01b0393909316835260208301919091525460ff8082166040840152600882901c8116606084015260109190911c16608082015260a00190565b60405180910390a150505050505050565b60008281526006602052604090206001015461080681610fab565b61061d8383611036565b6001600160a01b0381163314610852576040517f6697b23200000000000000000000000000000000000000000000000000000000815260040160405180910390fd5b61085c82826110e4565b505050565b61085c83838360405180602001604052806000815250610c2e565b600061088781610fab565b826009548111156108ec5760405162461bcd60e51b815260206004820152602960248201527f4162696c697479206d757374206265206c657373207468616e20746865206d6160448201526878206162696c69747960b81b60648201526084016105a0565b6009548411156109505760405162461bcd60e51b815260206004820152602960248201527f4162696c697479206d757374206265206c657373207468616e20746865206d6160448201526878206162696c69747960b81b60648201526084016105a0565b600061095d846001611c2b565b905060005b60095481116109e957816008828154811061097f5761097f611bff565b9060005260206000200154036109d75760405162461bcd60e51b815260206004820152601760248201527f5072696f7269747920616c72656164792065786973747300000000000000000060448201526064016105a0565b806109e181611c3e565b915050610962565b5080600886815481106109fe576109fe611bff565b6000918252602090912001555050505050565b60006104aa82610e5f565b60085460009083101580610a3257506008548210155b15610aa55760405162461bcd60e51b815260206004820152603e60248201527f4162696c697479206d7573742062652077697468696e207468652072616e676560448201527f206f6620746865206162696c697479207072696f72697479206172726179000060648201526084016105a0565b600060088481548110610aba57610aba611bff565b90600052602060002001549050600060088481548110610adc57610adc611bff565b906000526020600020015490508160001480610af6575080155b15610b435760405162461bcd60e51b815260206004820152601c60248201527f4162696c697479206d75737420686176652061207072696f726974790000000060448201526064016105a0565b11159392505050565b60006001600160a01b038216610b91576040517f89c62b64000000000000000000000000000000000000000000000000000000008152600060048201526024016105a0565b506001600160a01b031660009081526003602052604090205490565b60088181548110610bbd57600080fd5b600091825260209091200154905081565b6000610bd981610fab565b50600955565b60078181548110610bef57600080fd5b60009182526020909120015460ff808216925061010082048116916201000090041683565b6060600180546104bf90611bcb565b61057633838361116b565b610c3984848461057a565b61061d84848484611223565b6060610c5082610e5f565b506000610c6860408051602081019091526000815290565b90506000815111610c885760405180602001604052806000815250610cb3565b80610c928461134c565b604051602001610ca3929190611c57565b6040516020818303038152906040525b9392505050565b600082815260066020526040902060010154610cd581610fab565b61061d83836110e4565b610ce7611825565b610cef611825565b60005b6003811015610d9957600754610d0a90600190611c86565b6040805142602082015244918101919091526bffffffffffffffffffffffff1933606090811b82168184015232901b1660748201526088016040516020818303038152906040528051906020012060001c610d659190611c99565b610d70906001611c2b565b828260038110610d8257610d82611bff565b602002015280610d9181611c3e565b915050610cf2565b50919050565b60008060006007805490508410610dbe57506000915081905080610e1a565b600060078581548110610dd357610dd3611bff565b600091825260209182902060408051606081018252929091015460ff8082168085526101008304821695850186905262010000909204169290910182905295509093509150505b9193909250565b60006001600160e01b031982167f7965db0b0000000000000000000000000000000000000000000000000000000014806104aa57506104aa826113ec565b6000818152600260205260408120546001600160a01b0316806104aa57604051637e27328960e01b8152600481018490526024016105a0565b61085c8383836001611487565b6000828152600260205260408120546001600160a01b0390811690831615610ed257610ed28184866115d2565b6001600160a01b03811615610f1057610eef600085600080611487565b6001600160a01b038116600090815260036020526040902080546000190190555b6001600160a01b03851615610f3f576001600160a01b0385166000908152600360205260409020805460010190555b600084815260026020526040808220805473ffffffffffffffffffffffffffffffffffffffff19166001600160a01b0389811691821790925591518793918516917fddf252ad1be2c89b69c2b068fc378daa952ba7f163c4a11628f55a4df523b3ef91a4949350505050565b610fb5813361164f565b50565b6001600160a01b038216610fe257604051633250574960e11b8152600060048201526024016105a0565b6000610ff083836000610ea5565b90506001600160a01b0381161561085c576040517f73c6ac6e000000000000000000000000000000000000000000000000000000008152600060048201526024016105a0565b60008281526006602090815260408083206001600160a01b038516845290915281205460ff166110dc5760008381526006602090815260408083206001600160a01b03861684529091529020805460ff191660011790556110943390565b6001600160a01b0316826001600160a01b0316847f2f8788117e7eff1d82e926ec794901d17c78024a50270940304540a733656f0d60405160405180910390a45060016104aa565b5060006104aa565b60008281526006602090815260408083206001600160a01b038516845290915281205460ff16156110dc5760008381526006602090815260408083206001600160a01b0386168085529252808320805460ff1916905551339286917ff6391f5c32d9c69d2a47ea670b442974b53935d1edc7fd64eb21e047a839171b9190a45060016104aa565b6001600160a01b0382166111b6576040517f5b08ba180000000000000000000000000000000000000000000000000000000081526001600160a01b03831660048201526024016105a0565b6001600160a01b03838116600081815260056020908152604080832094871680845294825291829020805460ff191686151590811790915591519182527f17307eab39ab6107e8899845ad3d59bd9653f200f220920489ca2b5937696c31910160405180910390a3505050565b6001600160a01b0383163b1561061d57604051630a85bd0160e11b81526001600160a01b0384169063150b7a0290611265903390889087908790600401611cbb565b6020604051808303816000875af19250505080156112a0575060408051601f3d908101601f1916820190925261129d91810190611cf7565b60015b611309573d8080156112ce576040519150601f19603f3d011682016040523d82523d6000602084013e6112d3565b606091505b50805160000361130157604051633250574960e11b81526001600160a01b03851660048201526024016105a0565b805181602001fd5b6001600160e01b03198116630a85bd0160e11b1461134557604051633250574960e11b81526001600160a01b03851660048201526024016105a0565b5050505050565b60606000611359836116bd565b600101905060008167ffffffffffffffff81111561137957611379611a7e565b6040519080825280601f01601f1916602001820160405280156113a3576020820181803683370190505b5090508181016020015b600019017f3031323334353637383961626364656600000000000000000000000000000000600a86061a8153600a85049450846113ad57509392505050565b60006001600160e01b031982167f80ac58cd00000000000000000000000000000000000000000000000000000000148061144f57506001600160e01b031982167f5b5e139f00000000000000000000000000000000000000000000000000000000145b806104aa57507f01ffc9a7000000000000000000000000000000000000000000000000000000006001600160e01b03198316146104aa565b808061149b57506001600160a01b03821615155b156115955760006114ab84610e5f565b90506001600160a01b038316158015906114d75750826001600160a01b0316816001600160a01b031614155b801561150957506001600160a01b0380821660009081526005602090815260408083209387168352929052205460ff16155b1561154b576040517fa9fbf51f0000000000000000000000000000000000000000000000000000000081526001600160a01b03841660048201526024016105a0565b81156115935783856001600160a01b0316826001600160a01b03167f8c5be1e5ebec7d5bd14f71427d1e84f3dd0314c0f7b2291e5b200ac8c7c3b92560405160405180910390a45b505b50506000908152600460205260409020805473ffffffffffffffffffffffffffffffffffffffff19166001600160a01b0392909216919091179055565b6115dd83838361179f565b61085c576001600160a01b03831661160b57604051637e27328960e01b8152600481018290526024016105a0565b6040517f177e802f0000000000000000000000000000000000000000000000000000000081526001600160a01b0383166004820152602481018290526044016105a0565b60008281526006602090815260408083206001600160a01b038516845290915290205460ff16610576576040517fe2517d3f0000000000000000000000000000000000000000000000000000000081526001600160a01b0382166004820152602481018390526044016105a0565b6000807a184f03e93ff9f4daa797ed6e38ed64bf6a1f0100000000000000008310611706577a184f03e93ff9f4daa797ed6e38ed64bf6a1f010000000000000000830492506040015b6d04ee2d6d415b85acef81000000008310611732576d04ee2d6d415b85acef8100000000830492506020015b662386f26fc10000831061175057662386f26fc10000830492506010015b6305f5e1008310611768576305f5e100830492506008015b612710831061177c57612710830492506004015b6064831061178e576064830492506002015b600a83106104aa5760010192915050565b60006001600160a01b0383161580159061181d5750826001600160a01b0316846001600160a01b031614806117f957506001600160a01b0380851660009081526005602090815260408083209387168352929052205460ff165b8061181d57506000828152600460205260409020546001600160a01b038481169116145b949350505050565b60405180606001604052806003906020820280368337509192915050565b6001600160e01b031981168114610fb557600080fd5b60006020828403121561186b57600080fd5b8135610cb381611843565b60005b83811015611891578181015183820152602001611879565b50506000910152565b600081518084526118b2816020860160208601611876565b601f01601f19169290920160200192915050565b602081526000610cb3602083018461189a565b6000602082840312156118eb57600080fd5b5035919050565b80356001600160a01b038116811461190957600080fd5b919050565b6000806040838503121561192157600080fd5b61192a836118f2565b946020939093013593505050565b60008060006060848603121561194d57600080fd5b611956846118f2565b9250611964602085016118f2565b9150604084013590509250925092565b803560ff8116811461190957600080fd5b6000806000806080858703121561199b57600080fd5b6119a4856118f2565b93506119b260208601611974565b92506119c060408601611974565b91506119ce60608601611974565b905092959194509250565b600080604083850312156119ec57600080fd5b823591506119fc602084016118f2565b90509250929050565b60008060408385031215611a1857600080fd5b50508035926020909101359150565b600060208284031215611a3957600080fd5b610cb3826118f2565b60008060408385031215611a5557600080fd5b611a5e836118f2565b915060208301358015158114611a7357600080fd5b809150509250929050565b634e487b7160e01b600052604160045260246000fd5b60008060008060808587031215611aaa57600080fd5b611ab3856118f2565b9350611ac1602086016118f2565b925060408501359150606085013567ffffffffffffffff80821115611ae557600080fd5b818701915087601f830112611af957600080fd5b813581811115611b0b57611b0b611a7e565b604051601f8201601f19908116603f01168101908382118183101715611b3357611b33611a7e565b816040528281528a6020848701011115611b4c57600080fd5b82602086016020830137600060208483010152809550505050505092959194509250565b60608101818360005b6003811015611b98578151835260209283019290910190600101611b79565b50505092915050565b60008060408385031215611bb457600080fd5b611bbd836118f2565b91506119fc602084016118f2565b600181811c90821680611bdf57607f821691505b602082108103610d9957634e487b7160e01b600052602260045260246000fd5b634e487b7160e01b600052603260045260246000fd5b634e487b7160e01b600052601160045260246000fd5b808201808211156104aa576104aa611c15565b600060018201611c5057611c50611c15565b5060010190565b60008351611c69818460208801611876565b835190830190611c7d818360208801611876565b01949350505050565b818103818111156104aa576104aa611c15565b600082611cb657634e487b7160e01b600052601260045260246000fd5b500690565b60006001600160a01b03808716835280861660208401525083604083015260806060830152611ced608083018461189a565b9695505050505050565b600060208284031215611d0957600080fd5b8151610cb38161184356fea2646970667358221220a50f13b6eba37231f80a74b6166fb250e94ddb18125fa193e3fdb21968b798bd64736f6c63430008140033",
  "linkReferences": {},
  "deployedLinkReferences": {}
}