{
  "_format": "hh-sol-artifact-1",
  "contractName": "ExPopulusCards",
  "sourceName": "contracts/ExPopulusCards.sol",
  "abi": [
    {
      "inputs": [],
      "stateMutability": "nonpayable",
      "type": "constructor"
    },
    {
      "inputs": [],
      "name": "AccessControlBadConfirmation",
      "type": "error"
    },
    {
      "inputs": [
        {
          "internalType": "address",
          "name": "account",
          "type": "address"
        },
        {
          "internalType": "bytes32",
          "name": "neededRole",
          "type": "bytes32"
        }
      ],
      "name": "AccessControlUnauthorizedAccount",
      "type": "error"
    },
    {
      "inputs": [
        {
          "internalType": "address",
          "name": "sender",
          "type": "address"
        },
        {
          "internalType": "uint256",
          "name": "tokenId",
          "type": "uint256"
        },
        {
          "internalType": "address",
          "name": "owner",
          "type": "address"
        }
      ],
      "name": "ERC721IncorrectOwner",
      "type": "error"
    },
    {
      "inputs": [
        {
          "internalType": "address",
          "name": "operator",
          "type": "address"
        },
        {
          "internalType": "uint256",
          "name": "tokenId",
          "type": "uint256"
        }
      ],
      "name": "ERC721InsufficientApproval",
      "type": "error"
    },
    {
      "inputs": [
        {
          "internalType": "address",
          "name": "approver",
          "type": "address"
        }
      ],
      "name": "ERC721InvalidApprover",
      "type": "error"
    },
    {
      "inputs": [
        {
          "internalType": "address",
          "name": "operator",
          "type": "address"
        }
      ],
      "name": "ERC721InvalidOperator",
      "type": "error"
    },
    {
      "inputs": [
        {
          "internalType": "address",
          "name": "owner",
          "type": "address"
        }
      ],
      "name": "ERC721InvalidOwner",
      "type": "error"
    },
    {
      "inputs": [
        {
          "internalType": "address",
          "name": "receiver",
          "type": "address"
        }
      ],
      "name": "ERC721InvalidReceiver",
      "type": "error"
    },
    {
      "inputs": [
        {
          "internalType": "address",
          "name": "sender",
          "type": "address"
        }
      ],
      "name": "ERC721InvalidSender",
      "type": "error"
    },
    {
      "inputs": [
        {
          "internalType": "uint256",
          "name": "tokenId",
          "type": "uint256"
        }
      ],
      "name": "ERC721NonexistentToken",
      "type": "error"
    },
    {
      "anonymous": false,
      "inputs": [
        {
          "indexed": true,
          "internalType": "address",
          "name": "owner",
          "type": "address"
        },
        {
          "indexed": true,
          "internalType": "address",
          "name": "approved",
          "type": "address"
        },
        {
          "indexed": true,
          "internalType": "uint256",
          "name": "tokenId",
          "type": "uint256"
        }
      ],
      "name": "Approval",
      "type": "event"
    },
    {
      "anonymous": false,
      "inputs": [
        {
          "indexed": true,
          "internalType": "address",
          "name": "owner",
          "type": "address"
        },
        {
          "indexed": true,
          "internalType": "address",
          "name": "operator",
          "type": "address"
        },
        {
          "indexed": false,
          "internalType": "bool",
          "name": "approved",
          "type": "bool"
        }
      ],
      "name": "ApprovalForAll",
      "type": "event"
    },
    {
      "anonymous": false,
      "inputs": [
        {
          "indexed": false,
          "internalType": "address",
          "name": "to",
          "type": "address"
        },
        {
          "indexed": false,
          "internalType": "uint256",
          "name": "id",
          "type": "uint256"
        },
        {
          "components": [
            {
              "internalType": "uint8",
              "name": "attack",
              "type": "uint8"
            },
            {
              "internalType": "uint8",
              "name": "health",
              "type": "uint8"
            },
            {
              "internalType": "uint8",
              "name": "ability",
              "type": "uint8"
            }
          ],
          "indexed": false,
          "internalType": "struct ExPopulusCards.NftData",
          "name": "data",
          "type": "tuple"
        }
      ],
      "name": "Mint",
      "type": "event"
    },
    {
      "anonymous": false,
      "inputs": [
        {
          "indexed": true,
          "internalType": "bytes32",
          "name": "role",
          "type": "bytes32"
        },
        {
          "indexed": true,
          "internalType": "bytes32",
          "name": "previousAdminRole",
          "type": "bytes32"
        },
        {
          "indexed": true,
          "internalType": "bytes32",
          "name": "newAdminRole",
          "type": "bytes32"
        }
      ],
      "name": "RoleAdminChanged",
      "type": "event"
    },
    {
      "anonymous": false,
      "inputs": [
        {
          "indexed": true,
          "internalType": "bytes32",
          "name": "role",
          "type": "bytes32"
        },
        {
          "indexed": true,
          "internalType": "address",
          "name": "account",
          "type": "address"
        },
        {
          "indexed": true,
          "internalType": "address",
          "name": "sender",
          "type": "address"
        }
      ],
      "name": "RoleGranted",
      "type": "event"
    },
    {
      "anonymous": false,
      "inputs": [
        {
          "indexed": true,
          "internalType": "bytes32",
          "name": "role",
          "type": "bytes32"
        },
        {
          "indexed": true,
          "internalType": "address",
          "name": "account",
          "type": "address"
        },
        {
          "indexed": true,
          "internalType": "address",
          "name": "sender",
          "type": "address"
        }
      ],
      "name": "RoleRevoked",
      "type": "event"
    },
    {
      "anonymous": false,
      "inputs": [
        {
          "indexed": true,
          "internalType": "address",
          "name": "from",
          "type": "address"
        },
        {
          "indexed": true,
          "internalType": "address",
          "name": "to",
          "type": "address"
        },
        {
          "indexed": true,
          "internalType": "uint256",
          "name": "tokenId",
          "type": "uint256"
        }
      ],
      "name": "Transfer",
      "type": "event"
    },
    {
      "inputs": [],
      "name": "DEFAULT_ADMIN_ROLE",
      "outputs": [
        {
          "internalType": "bytes32",
          "name": "",
          "type": "bytes32"
        }
      ],
      "stateMutability": "view",
      "type": "function"
    },
    {
      "inputs": [],
      "name": "MINTER_ROLE",
      "outputs": [
        {
          "internalType": "bytes32",
          "name": "",
          "type": "bytes32"
        }
      ],
      "stateMutability": "view",
      "type": "function"
    },
    {
      "inputs": [
        {
          "internalType": "uint256",
          "name": "",
          "type": "uint256"
        }
      ],
      "name": "abilityPriority",
      "outputs": [
        {
          "internalType": "uint256",
          "name": "",
          "type": "uint256"
        }
      ],
      "stateMutability": "view",
      "type": "function"
    },
    {
      "inputs": [
        {
          "internalType": "address",
          "name": "to",
          "type": "address"
        },
        {
          "internalType": "uint256",
          "name": "tokenId",
          "type": "uint256"
        }
      ],
      "name": "approve",
      "outputs": [],
      "stateMutability": "nonpayable",
      "type": "function"
    },
    {
      "inputs": [
        {
          "internalType": "address",
          "name": "owner",
          "type": "address"
        }
      ],
      "name": "balanceOf",
      "outputs": [
        {
          "internalType": "uint256",
          "name": "",
          "type": "uint256"
        }
      ],
      "stateMutability": "view",
      "type": "function"
    },
    {
      "inputs": [
        {
          "internalType": "uint256",
          "name": "_id",
          "type": "uint256"
        }
      ],
      "name": "cardDetails",
      "outputs": [
        {
          "internalType": "uint8",
          "name": "",
          "type": "uint8"
        },
        {
          "internalType": "uint8",
          "name": "",
          "type": "uint8"
        },
        {
          "internalType": "uint8",
          "name": "",
          "type": "uint8"
        }
      ],
      "stateMutability": "view",
      "type": "function"
    },
    {
      "inputs": [
        {
          "internalType": "uint256",
          "name": "alpha",
          "type": "uint256"
        },
        {
          "internalType": "uint256",
          "name": "beta",
          "type": "uint256"
        }
      ],
      "name": "checkAbility",
      "outputs": [
        {
          "internalType": "bool",
          "name": "",
          "type": "bool"
        }
      ],
      "stateMutability": "view",
      "type": "function"
    },
    {
      "inputs": [
        {
          "internalType": "uint256",
          "name": "tokenId",
          "type": "uint256"
        }
      ],
      "name": "getApproved",
      "outputs": [
        {
          "internalType": "address",
          "name": "",
          "type": "address"
        }
      ],
      "stateMutability": "view",
      "type": "function"
    },
    {
      "inputs": [
        {
          "internalType": "bytes32",
          "name": "role",
          "type": "bytes32"
        }
      ],
      "name": "getRoleAdmin",
      "outputs": [
        {
          "internalType": "bytes32",
          "name": "",
          "type": "bytes32"
        }
      ],
      "stateMutability": "view",
      "type": "function"
    },
    {
      "inputs": [
        {
          "internalType": "bytes32",
          "name": "role",
          "type": "bytes32"
        },
        {
          "internalType": "address",
          "name": "account",
          "type": "address"
        }
      ],
      "name": "grantRole",
      "outputs": [],
      "stateMutability": "nonpayable",
      "type": "function"
    },
    {
      "inputs": [
        {
          "internalType": "bytes32",
          "name": "role",
          "type": "bytes32"
        },
        {
          "internalType": "address",
          "name": "account",
          "type": "address"
        }
      ],
      "name": "hasRole",
      "outputs": [
        {
          "internalType": "bool",
          "name": "",
          "type": "bool"
        }
      ],
      "stateMutability": "view",
      "type": "function"
    },
    {
      "inputs": [
        {
          "internalType": "address",
          "name": "owner",
          "type": "address"
        },
        {
          "internalType": "address",
          "name": "operator",
          "type": "address"
        }
      ],
      "name": "isApprovedForAll",
      "outputs": [
        {
          "internalType": "bool",
          "name": "",
          "type": "bool"
        }
      ],
      "stateMutability": "view",
      "type": "function"
    },
    {
      "inputs": [
        {
          "internalType": "address",
          "name": "to",
          "type": "address"
        },
        {
          "internalType": "uint8",
          "name": "attack",
          "type": "uint8"
        },
        {
          "internalType": "uint8",
          "name": "health",
          "type": "uint8"
        },
        {
          "internalType": "uint8",
          "name": "ability",
          "type": "uint8"
        }
      ],
      "name": "mintCard",
      "outputs": [],
      "stateMutability": "nonpayable",
      "type": "function"
    },
    {
      "inputs": [],
      "name": "name",
      "outputs": [
        {
          "internalType": "string",
          "name": "",
          "type": "string"
        }
      ],
      "stateMutability": "view",
      "type": "function"
    },
    {
      "inputs": [
        {
          "internalType": "uint256",
          "name": "",
          "type": "uint256"
        }
      ],
      "name": "nftData",
      "outputs": [
        {
          "internalType": "uint8",
          "name": "attack",
          "type": "uint8"
        },
        {
          "internalType": "uint8",
          "name": "health",
          "type": "uint8"
        },
        {
          "internalType": "uint8",
          "name": "ability",
          "type": "uint8"
        }
      ],
      "stateMutability": "view",
      "type": "function"
    },
    {
      "inputs": [
        {
          "internalType": "uint256",
          "name": "tokenId",
          "type": "uint256"
        }
      ],
      "name": "ownerOf",
      "outputs": [
        {
          "internalType": "address",
          "name": "",
          "type": "address"
        }
      ],
      "stateMutability": "view",
      "type": "function"
    },
    {
      "inputs": [],
      "name": "pickEnemyDeck",
      "outputs": [
        {
          "internalType": "uint256[3]",
          "name": "",
          "type": "uint256[3]"
        }
      ],
      "stateMutability": "view",
      "type": "function"
    },
    {
      "inputs": [
        {
          "internalType": "bytes32",
          "name": "role",
          "type": "bytes32"
        },
        {
          "internalType": "address",
          "name": "callerConfirmation",
          "type": "address"
        }
      ],
      "name": "renounceRole",
      "outputs": [],
      "stateMutability": "nonpayable",
      "type": "function"
    },
    {
      "inputs": [
        {
          "internalType": "bytes32",
          "name": "role",
          "type": "bytes32"
        },
        {
          "internalType": "address",
          "name": "account",
          "type": "address"
        }
      ],
      "name": "revokeRole",
      "outputs": [],
      "stateMutability": "nonpayable",
      "type": "function"
    },
    {
      "inputs": [
        {
          "internalType": "address",
          "name": "from",
          "type": "address"
        },
        {
          "internalType": "address",
          "name": "to",
          "type": "address"
        },
        {
          "internalType": "uint256",
          "name": "tokenId",
          "type": "uint256"
        }
      ],
      "name": "safeTransferFrom",
      "outputs": [],
      "stateMutability": "nonpayable",
      "type": "function"
    },
    {
      "inputs": [
        {
          "internalType": "address",
          "name": "from",
          "type": "address"
        },
        {
          "internalType": "address",
          "name": "to",
          "type": "address"
        },
        {
          "internalType": "uint256",
          "name": "tokenId",
          "type": "uint256"
        },
        {
          "internalType": "bytes",
          "name": "data",
          "type": "bytes"
        }
      ],
      "name": "safeTransferFrom",
      "outputs": [],
      "stateMutability": "nonpayable",
      "type": "function"
    },
    {
      "inputs": [
        {
          "internalType": "uint256",
          "name": "ability",
          "type": "uint256"
        },
        {
          "internalType": "uint256",
          "name": "priority",
          "type": "uint256"
        }
      ],
      "name": "setAbilityPriority",
      "outputs": [],
      "stateMutability": "nonpayable",
      "type": "function"
    },
    {
      "inputs": [
        {
          "internalType": "address",
          "name": "operator",
          "type": "address"
        },
        {
          "internalType": "bool",
          "name": "approved",
          "type": "bool"
        }
      ],
      "name": "setApprovalForAll",
      "outputs": [],
      "stateMutability": "nonpayable",
      "type": "function"
    },
    {
      "inputs": [
        {
          "internalType": "bytes4",
          "name": "interfaceId",
          "type": "bytes4"
        }
      ],
      "name": "supportsInterface",
      "outputs": [
        {
          "internalType": "bool",
          "name": "",
          "type": "bool"
        }
      ],
      "stateMutability": "view",
      "type": "function"
    },
    {
      "inputs": [],
      "name": "symbol",
      "outputs": [
        {
          "internalType": "string",
          "name": "",
          "type": "string"
        }
      ],
      "stateMutability": "view",
      "type": "function"
    },
    {
      "inputs": [
        {
          "internalType": "uint256",
          "name": "tokenId",
          "type": "uint256"
        }
      ],
      "name": "tokenURI",
      "outputs": [
        {
          "internalType": "string",
          "name": "",
          "type": "string"
        }
      ],
      "stateMutability": "view",
      "type": "function"
    },
    {
      "inputs": [
        {
          "internalType": "address",
          "name": "from",
          "type": "address"
        },
        {
          "internalType": "address",
          "name": "to",
          "type": "address"
        },
        {
          "internalType": "uint256",
          "name": "tokenId",
          "type": "uint256"
        }
      ],
      "name": "transferFrom",
      "outputs": [],
      "stateMutability": "nonpayable",
      "type": "function"
    },
    {
      "inputs": [
        {
          "internalType": "uint256",
          "name": "_maxAbility",
          "type": "uint256"
        }
      ],
      "name": "updateMaxAbility",
      "outputs": [],
      "stateMutability": "nonpayable",
      "type": "function"
    }
  ],
  "bytecode": "0x60e06040526000608081815260a082905260c091909152620000269060089060036200021a565b5060026009553480156200003957600080fd5b506040518060400160405280600e81526020016d4578506f70756c7573436172647360901b8152506040518060400160405280600381526020016245504360e81b81525081600090816200008e91906200032b565b5060016200009d82826200032b565b50620000af9150600090503362000167565b50620000dc7f9f2df0fed2c77648de5860a4cc508cd0818c85b8b8a1ab4ceeef8d981c8956a63362000167565b506040805160608101825260008082526020820181815292820181815260078054600181018255925291517fa66cc928b5edb82af9bd49922954155ab7b0942694bea4ce44661d9a8736c68890910180549351925160ff908116620100000262ff0000199482166101000261ffff1990961693909116929092179390931791909116179055620003f7565b60008281526006602090815260408083206001600160a01b038516845290915281205460ff16620002105760008381526006602090815260408083206001600160a01b03861684529091529020805460ff19166001179055620001c73390565b6001600160a01b0316826001600160a01b0316847f2f8788117e7eff1d82e926ec794901d17c78024a50270940304540a733656f0d60405160405180910390a450600162000214565b5060005b92915050565b8280548282559060005260206000209081019282156200025d579160200282015b828111156200025d578251829060ff169055916020019190600101906200023b565b506200026b9291506200026f565b5090565b5b808211156200026b576000815560010162000270565b634e487b7160e01b600052604160045260246000fd5b600181811c90821680620002b157607f821691505b602082108103620002d257634e487b7160e01b600052602260045260246000fd5b50919050565b601f8211156200032657600081815260208120601f850160051c81016020861015620003015750805b601f850160051c820191505b8181101562000322578281556001016200030d565b5050505b505050565b81516001600160401b0381111562000347576200034762000286565b6200035f816200035884546200029c565b84620002d8565b602080601f8311600181146200039757600084156200037e5750858301515b600019600386901b1c1916600185901b17855562000322565b600085815260208120601f198616915b82811015620003c857888601518255948401946001909101908401620003a7565b5085821015620003e75787850151600019600388901b60f8161c191681555b5050505050600190811b01905550565b611dc780620004076000396000f3fe608060405234801561001057600080fd5b50600436106101c45760003560e01c8063758aed7b116100f9578063b88d4fde11610097578063d547741f11610071578063d547741f14610428578063d8fc7a621461043b578063e985e9c514610450578063ef7c89591461048c57600080fd5b8063b88d4fde146103db578063c87b56dd146103ee578063d53913931461040157600080fd5b806391d14854116100d357806391d148541461037f57806395d89b41146103b8578063a217fddf146103c0578063a22cb465146103c857600080fd5b8063758aed7b1461032257806388a1d675146103355780638c2109751461034857600080fd5b80632f2ff15d1161016657806357d087251161014057806357d08725146102d65780636352211e146102e95780636887eee8146102fc57806370a082311461030f57600080fd5b80632f2ff15d1461029d57806336568abe146102b057806342842e0e146102c357600080fd5b8063095ea7b3116101a2578063095ea7b31461023157806323b872dd14610246578063248a9ca314610259578063299ac4251461028a57600080fd5b806301ffc9a7146101c957806306fdde03146101f1578063081812fc14610206575b600080fd5b6101dc6101d73660046118d6565b61049f565b60405190151581526020015b60405180910390f35b6101f96104b0565b6040516101e89190611943565b610219610214366004611956565b610542565b6040516001600160a01b0390911681526020016101e8565b61024461023f36600461198b565b61056b565b005b6102446102543660046119b5565b61057a565b61027c610267366004611956565b60009081526006602052604090206001015490565b6040519081526020016101e8565b610244610298366004611a02565b610623565b6102446102ab366004611a56565b6107eb565b6102446102be366004611a56565b610810565b6102446102d13660046119b5565b610861565b6102446102e4366004611a82565b61087c565b6102196102f7366004611956565b6109ad565b6101dc61030a366004611a82565b6109b8565b61027c61031d366004611aa4565b610ae8565b61027c610330366004611956565b610b49565b610244610343366004611956565b610b6a565b61035b610356366004611956565b610c55565b6040805160ff948516815292841660208401529216918101919091526060016101e8565b6101dc61038d366004611a56565b60009182526006602090815260408084206001600160a01b0393909316845291905290205460ff1690565b6101f9610c8a565b61027c600081565b6102446103d6366004611abf565b610c99565b6102446103e9366004611b11565b610ca4565b6101f96103fc366004611956565b610cbb565b61027c7f9f2df0fed2c77648de5860a4cc508cd0818c85b8b8a1ab4ceeef8d981c8956a681565b610244610436366004611a56565b610d30565b610443610d55565b6040516101e89190611bed565b6101dc61045e366004611c1e565b6001600160a01b03918216600090815260056020908152604080832093909416825291909152205460ff1690565b61035b61049a366004611956565b610e1c565b60006104aa82610e9e565b92915050565b6060600080546104bf90611c48565b80601f01602080910402602001604051908101604052809291908181526020018280546104eb90611c48565b80156105385780601f1061050d57610100808354040283529160200191610538565b820191906000526020600020905b81548152906001019060200180831161051b57829003601f168201915b5050505050905090565b600061054d82610edc565b506000828152600460205260409020546001600160a01b03166104aa565b610576828233610f15565b5050565b6001600160a01b0382166105a957604051633250574960e11b8152600060048201526024015b60405180910390fd5b60006105b6838333610f22565b9050836001600160a01b0316816001600160a01b03161461061d576040517f64283d7b0000000000000000000000000000000000000000000000000000000081526001600160a01b03808616600483015260248201849052821660448201526064016105a0565b50505050565b7f9f2df0fed2c77648de5860a4cc508cd0818c85b8b8a1ab4ceeef8d981c8956a661064d81611028565b8160ff166009548111156106b55760405162461bcd60e51b815260206004820152602960248201527f4162696c697479206d757374206265206c657373207468616e20746865206d6160448201526878206162696c69747960b81b60648201526084016105a0565b6007546106c28782611035565b6040805160608101825260ff80891682528781166020830190815287821693830193845260078054600181018255600082905293517fa66cc928b5edb82af9bd49922954155ab7b0942694bea4ce44661d9a8736c6889094018054925195518416620100000262ff0000199685166101000261ffff199094169590941694909417919091179390931617905580547fa6b9795fa24f7baee8e14683772d2b63d8ec099653bbf62102953e25c9c4b7899189918491908290811061078757610787611c7c565b906000526020600020016040516107da939291906001600160a01b0393909316835260208301919091525460ff8082166040840152600882901c8116606084015260109190911c16608082015260a00190565b60405180910390a150505050505050565b60008281526006602052604090206001015461080681611028565b61061d83836110b3565b6001600160a01b0381163314610852576040517f6697b23200000000000000000000000000000000000000000000000000000000815260040160405180910390fd5b61085c8282611161565b505050565b61085c83838360405180602001604052806000815250610ca4565b600061088781611028565b826009548111156108ec5760405162461bcd60e51b815260206004820152602960248201527f4162696c697479206d757374206265206c657373207468616e20746865206d6160448201526878206162696c69747960b81b60648201526084016105a0565b60006108f9846001611ca8565b905060005b600954811161098557816008828154811061091b5761091b611c7c565b9060005260206000200154036109735760405162461bcd60e51b815260206004820152601760248201527f5072696f7269747920616c72656164792065786973747300000000000000000060448201526064016105a0565b8061097d81611cbb565b9150506108fe565b50806008868154811061099a5761099a611c7c565b6000918252602090912001555050505050565b60006104aa82610edc565b600854600090831015806109ce57506008548210155b15610a415760405162461bcd60e51b815260206004820152603e60248201527f4162696c697479206d7573742062652077697468696e207468652072616e676560448201527f206f6620746865206162696c697479207072696f72697479206172726179000060648201526084016105a0565b600060088481548110610a5657610a56611c7c565b90600052602060002001549050600060088481548110610a7857610a78611c7c565b906000526020600020015490508160001480610a92575080155b15610adf5760405162461bcd60e51b815260206004820152601c60248201527f4162696c697479206d75737420686176652061207072696f726974790000000060448201526064016105a0565b11159392505050565b60006001600160a01b038216610b2d576040517f89c62b64000000000000000000000000000000000000000000000000000000008152600060048201526024016105a0565b506001600160a01b031660009081526003602052604090205490565b60088181548110610b5957600080fd5b600091825260209091200154905081565b6000610b7581611028565b6009548211610bec5760405162461bcd60e51b815260206004820152603860248201527f4d6178206162696c697479206d7573742062652067726561746572207468616e60448201527f207468652063757272656e74206d6178206162696c697479000000000000000060648201526084016105a0565b600060095483610bfc9190611cd4565b905060005b81811015610c4d576008805460018101825560009182527ff3f7a9fe364faab93b216da50a3214154f22a0a2b415b23a84c8169e8b636ee3015580610c4581611cbb565b915050610c01565b505050600955565b60078181548110610c6557600080fd5b60009182526020909120015460ff808216925061010082048116916201000090041683565b6060600180546104bf90611c48565b6105763383836111e8565b610caf84848461057a565b61061d848484846112a0565b6060610cc682610edc565b506000610cde60408051602081019091526000815290565b90506000815111610cfe5760405180602001604052806000815250610d29565b80610d08846113c9565b604051602001610d19929190611ce7565b6040516020818303038152906040525b9392505050565b600082815260066020526040902060010154610d4b81611028565b61061d8383611161565b610d5d6118a2565b610d656118a2565b60005b6003811015610e1657600754610d8090600190611cd4565b6040805142602082015244918101919091526bffffffffffffffffffffffff1933606090811b82168184015232901b1660748201526088810183905260a8016040516020818303038152906040528051906020012060001c610de29190611d16565b610ded906001611ca8565b828260038110610dff57610dff611c7c565b602002015280610e0e81611cbb565b915050610d68565b50919050565b60008060006007805490508410610e3b57506000915081905080610e97565b600060078581548110610e5057610e50611c7c565b600091825260209182902060408051606081018252929091015460ff8082168085526101008304821695850186905262010000909204169290910182905295509093509150505b9193909250565b60006001600160e01b031982167f7965db0b0000000000000000000000000000000000000000000000000000000014806104aa57506104aa82611469565b6000818152600260205260408120546001600160a01b0316806104aa57604051637e27328960e01b8152600481018490526024016105a0565b61085c8383836001611504565b6000828152600260205260408120546001600160a01b0390811690831615610f4f57610f4f81848661164f565b6001600160a01b03811615610f8d57610f6c600085600080611504565b6001600160a01b038116600090815260036020526040902080546000190190555b6001600160a01b03851615610fbc576001600160a01b0385166000908152600360205260409020805460010190555b600084815260026020526040808220805473ffffffffffffffffffffffffffffffffffffffff19166001600160a01b0389811691821790925591518793918516917fddf252ad1be2c89b69c2b068fc378daa952ba7f163c4a11628f55a4df523b3ef91a4949350505050565b61103281336116cc565b50565b6001600160a01b03821661105f57604051633250574960e11b8152600060048201526024016105a0565b600061106d83836000610f22565b90506001600160a01b0381161561085c576040517f73c6ac6e000000000000000000000000000000000000000000000000000000008152600060048201526024016105a0565b60008281526006602090815260408083206001600160a01b038516845290915281205460ff166111595760008381526006602090815260408083206001600160a01b03861684529091529020805460ff191660011790556111113390565b6001600160a01b0316826001600160a01b0316847f2f8788117e7eff1d82e926ec794901d17c78024a50270940304540a733656f0d60405160405180910390a45060016104aa565b5060006104aa565b60008281526006602090815260408083206001600160a01b038516845290915281205460ff16156111595760008381526006602090815260408083206001600160a01b0386168085529252808320805460ff1916905551339286917ff6391f5c32d9c69d2a47ea670b442974b53935d1edc7fd64eb21e047a839171b9190a45060016104aa565b6001600160a01b038216611233576040517f5b08ba180000000000000000000000000000000000000000000000000000000081526001600160a01b03831660048201526024016105a0565b6001600160a01b03838116600081815260056020908152604080832094871680845294825291829020805460ff191686151590811790915591519182527f17307eab39ab6107e8899845ad3d59bd9653f200f220920489ca2b5937696c31910160405180910390a3505050565b6001600160a01b0383163b1561061d57604051630a85bd0160e11b81526001600160a01b0384169063150b7a02906112e2903390889087908790600401611d38565b6020604051808303816000875af192505050801561131d575060408051601f3d908101601f1916820190925261131a91810190611d74565b60015b611386573d80801561134b576040519150601f19603f3d011682016040523d82523d6000602084013e611350565b606091505b50805160000361137e57604051633250574960e11b81526001600160a01b03851660048201526024016105a0565b805181602001fd5b6001600160e01b03198116630a85bd0160e11b146113c257604051633250574960e11b81526001600160a01b03851660048201526024016105a0565b5050505050565b606060006113d68361173a565b600101905060008167ffffffffffffffff8111156113f6576113f6611afb565b6040519080825280601f01601f191660200182016040528015611420576020820181803683370190505b5090508181016020015b600019017f3031323334353637383961626364656600000000000000000000000000000000600a86061a8153600a850494508461142a57509392505050565b60006001600160e01b031982167f80ac58cd0000000000000000000000000000000000000000000000000000000014806114cc57506001600160e01b031982167f5b5e139f00000000000000000000000000000000000000000000000000000000145b806104aa57507f01ffc9a7000000000000000000000000000000000000000000000000000000006001600160e01b03198316146104aa565b808061151857506001600160a01b03821615155b1561161257600061152884610edc565b90506001600160a01b038316158015906115545750826001600160a01b0316816001600160a01b031614155b801561158657506001600160a01b0380821660009081526005602090815260408083209387168352929052205460ff16155b156115c8576040517fa9fbf51f0000000000000000000000000000000000000000000000000000000081526001600160a01b03841660048201526024016105a0565b81156116105783856001600160a01b0316826001600160a01b03167f8c5be1e5ebec7d5bd14f71427d1e84f3dd0314c0f7b2291e5b200ac8c7c3b92560405160405180910390a45b505b50506000908152600460205260409020805473ffffffffffffffffffffffffffffffffffffffff19166001600160a01b0392909216919091179055565b61165a83838361181c565b61085c576001600160a01b03831661168857604051637e27328960e01b8152600481018290526024016105a0565b6040517f177e802f0000000000000000000000000000000000000000000000000000000081526001600160a01b0383166004820152602481018290526044016105a0565b60008281526006602090815260408083206001600160a01b038516845290915290205460ff16610576576040517fe2517d3f0000000000000000000000000000000000000000000000000000000081526001600160a01b0382166004820152602481018390526044016105a0565b6000807a184f03e93ff9f4daa797ed6e38ed64bf6a1f0100000000000000008310611783577a184f03e93ff9f4daa797ed6e38ed64bf6a1f010000000000000000830492506040015b6d04ee2d6d415b85acef810000000083106117af576d04ee2d6d415b85acef8100000000830492506020015b662386f26fc1000083106117cd57662386f26fc10000830492506010015b6305f5e10083106117e5576305f5e100830492506008015b61271083106117f957612710830492506004015b6064831061180b576064830492506002015b600a83106104aa5760010192915050565b60006001600160a01b0383161580159061189a5750826001600160a01b0316846001600160a01b0316148061187657506001600160a01b0380851660009081526005602090815260408083209387168352929052205460ff165b8061189a57506000828152600460205260409020546001600160a01b038481169116145b949350505050565b60405180606001604052806003906020820280368337509192915050565b6001600160e01b03198116811461103257600080fd5b6000602082840312156118e857600080fd5b8135610d29816118c0565b60005b8381101561190e5781810151838201526020016118f6565b50506000910152565b6000815180845261192f8160208601602086016118f3565b601f01601f19169290920160200192915050565b602081526000610d296020830184611917565b60006020828403121561196857600080fd5b5035919050565b80356001600160a01b038116811461198657600080fd5b919050565b6000806040838503121561199e57600080fd5b6119a78361196f565b946020939093013593505050565b6000806000606084860312156119ca57600080fd5b6119d38461196f565b92506119e16020850161196f565b9150604084013590509250925092565b803560ff8116811461198657600080fd5b60008060008060808587031215611a1857600080fd5b611a218561196f565b9350611a2f602086016119f1565b9250611a3d604086016119f1565b9150611a4b606086016119f1565b905092959194509250565b60008060408385031215611a6957600080fd5b82359150611a796020840161196f565b90509250929050565b60008060408385031215611a9557600080fd5b50508035926020909101359150565b600060208284031215611ab657600080fd5b610d298261196f565b60008060408385031215611ad257600080fd5b611adb8361196f565b915060208301358015158114611af057600080fd5b809150509250929050565b634e487b7160e01b600052604160045260246000fd5b60008060008060808587031215611b2757600080fd5b611b308561196f565b9350611b3e6020860161196f565b925060408501359150606085013567ffffffffffffffff80821115611b6257600080fd5b818701915087601f830112611b7657600080fd5b813581811115611b8857611b88611afb565b604051601f8201601f19908116603f01168101908382118183101715611bb057611bb0611afb565b816040528281528a6020848701011115611bc957600080fd5b82602086016020830137600060208483010152809550505050505092959194509250565b60608101818360005b6003811015611c15578151835260209283019290910190600101611bf6565b50505092915050565b60008060408385031215611c3157600080fd5b611c3a8361196f565b9150611a796020840161196f565b600181811c90821680611c5c57607f821691505b602082108103610e1657634e487b7160e01b600052602260045260246000fd5b634e487b7160e01b600052603260045260246000fd5b634e487b7160e01b600052601160045260246000fd5b808201808211156104aa576104aa611c92565b600060018201611ccd57611ccd611c92565b5060010190565b818103818111156104aa576104aa611c92565b60008351611cf98184602088016118f3565b835190830190611d0d8183602088016118f3565b01949350505050565b600082611d3357634e487b7160e01b600052601260045260246000fd5b500690565b60006001600160a01b03808716835280861660208401525083604083015260806060830152611d6a6080830184611917565b9695505050505050565b600060208284031215611d8657600080fd5b8151610d29816118c056fea2646970667358221220de522456e016e20183f4e2b3d7c5f4502f06394a2e2f72fb904966cd13427d8d64736f6c63430008140033",
  "linkReferences": {},
  "deployedLinkReferences": {}
}