{
  "_format": "hh-sol-artifact-1",
  "contractName": "ExPopulusCardGameLogic",
  "sourceName": "contracts/ExPopulusCardGameLogic.sol",
  "abi": [
    {
      "inputs": [
        {
          "internalType": "address",
          "name": "_cards",
          "type": "address"
        },
        {
          "internalType": "address",
          "name": "_token",
          "type": "address"
        }
      ],
      "stateMutability": "nonpayable",
      "type": "constructor"
    },
    {
      "inputs": [
        {
          "internalType": "address",
          "name": "owner",
          "type": "address"
        }
      ],
      "name": "OwnableInvalidOwner",
      "type": "error"
    },
    {
      "inputs": [
        {
          "internalType": "address",
          "name": "account",
          "type": "address"
        }
      ],
      "name": "OwnableUnauthorizedAccount",
      "type": "error"
    },
    {
      "anonymous": false,
      "inputs": [
        {
          "indexed": false,
          "internalType": "address",
          "name": "player",
          "type": "address"
        },
        {
          "indexed": false,
          "internalType": "uint256",
          "name": "gameHash",
          "type": "uint256"
        },
        {
          "components": [
            {
              "internalType": "uint8",
              "name": "attack",
              "type": "uint8"
            },
            {
              "internalType": "uint8",
              "name": "health",
              "type": "uint8"
            },
            {
              "internalType": "uint8",
              "name": "ability",
              "type": "uint8"
            }
          ],
          "indexed": false,
          "internalType": "struct ExPopulusCardGameLogic.CardData[]",
          "name": "playerDeck",
          "type": "tuple[]"
        },
        {
          "components": [
            {
              "internalType": "uint8",
              "name": "attack",
              "type": "uint8"
            },
            {
              "internalType": "uint8",
              "name": "health",
              "type": "uint8"
            },
            {
              "internalType": "uint8",
              "name": "ability",
              "type": "uint8"
            }
          ],
          "indexed": false,
          "internalType": "struct ExPopulusCardGameLogic.CardData[]",
          "name": "enemyDeck",
          "type": "tuple[]"
        },
        {
          "indexed": false,
          "internalType": "uint8",
          "name": "result",
          "type": "uint8"
        }
      ],
      "name": "BattleResult",
      "type": "event"
    },
    {
      "anonymous": false,
      "inputs": [
        {
          "indexed": true,
          "internalType": "address",
          "name": "previousOwner",
          "type": "address"
        },
        {
          "indexed": true,
          "internalType": "address",
          "name": "newOwner",
          "type": "address"
        }
      ],
      "name": "OwnershipTransferred",
      "type": "event"
    },
    {
      "inputs": [
        {
          "internalType": "uint256[3]",
          "name": "ids",
          "type": "uint256[3]"
        }
      ],
      "name": "battle",
      "outputs": [],
      "stateMutability": "nonpayable",
      "type": "function"
    },
    {
      "inputs": [],
      "name": "cards",
      "outputs": [
        {
          "internalType": "contract ExPopulusCards",
          "name": "",
          "type": "address"
        }
      ],
      "stateMutability": "view",
      "type": "function"
    },
    {
      "inputs": [
        {
          "internalType": "uint256",
          "name": "",
          "type": "uint256"
        },
        {
          "internalType": "uint256",
          "name": "",
          "type": "uint256"
        }
      ],
      "name": "gameTurns",
      "outputs": [
        {
          "components": [
            {
              "internalType": "bool",
              "name": "abilityUsed",
              "type": "bool"
            },
            {
              "internalType": "bool",
              "name": "frozen",
              "type": "bool"
            },
            {
              "internalType": "bool",
              "name": "shielded",
              "type": "bool"
            },
            {
              "internalType": "uint8",
              "name": "health",
              "type": "uint8"
            },
            {
              "internalType": "uint8",
              "name": "ability",
              "type": "uint8"
            },
            {
              "internalType": "uint8",
              "name": "attack",
              "type": "uint8"
            },
            {
              "internalType": "uint8",
              "name": "index",
              "type": "uint8"
            },
            {
              "internalType": "uint8",
              "name": "length",
              "type": "uint8"
            }
          ],
          "internalType": "struct ExPopulusCardGameLogic.State",
          "name": "playerState",
          "type": "tuple"
        },
        {
          "components": [
            {
              "internalType": "bool",
              "name": "abilityUsed",
              "type": "bool"
            },
            {
              "internalType": "bool",
              "name": "frozen",
              "type": "bool"
            },
            {
              "internalType": "bool",
              "name": "shielded",
              "type": "bool"
            },
            {
              "internalType": "uint8",
              "name": "health",
              "type": "uint8"
            },
            {
              "internalType": "uint8",
              "name": "ability",
              "type": "uint8"
            },
            {
              "internalType": "uint8",
              "name": "attack",
              "type": "uint8"
            },
            {
              "internalType": "uint8",
              "name": "index",
              "type": "uint8"
            },
            {
              "internalType": "uint8",
              "name": "length",
              "type": "uint8"
            }
          ],
          "internalType": "struct ExPopulusCardGameLogic.State",
          "name": "enemyState",
          "type": "tuple"
        }
      ],
      "stateMutability": "view",
      "type": "function"
    },
    {
      "inputs": [
        {
          "internalType": "uint256",
          "name": "gameHash",
          "type": "uint256"
        }
      ],
      "name": "getGameTurns",
      "outputs": [
        {
          "components": [
            {
              "components": [
                {
                  "internalType": "bool",
                  "name": "abilityUsed",
                  "type": "bool"
                },
                {
                  "internalType": "bool",
                  "name": "frozen",
                  "type": "bool"
                },
                {
                  "internalType": "bool",
                  "name": "shielded",
                  "type": "bool"
                },
                {
                  "internalType": "uint8",
                  "name": "health",
                  "type": "uint8"
                },
                {
                  "internalType": "uint8",
                  "name": "ability",
                  "type": "uint8"
                },
                {
                  "internalType": "uint8",
                  "name": "attack",
                  "type": "uint8"
                },
                {
                  "internalType": "uint8",
                  "name": "index",
                  "type": "uint8"
                },
                {
                  "internalType": "uint8",
                  "name": "length",
                  "type": "uint8"
                }
              ],
              "internalType": "struct ExPopulusCardGameLogic.State",
              "name": "playerState",
              "type": "tuple"
            },
            {
              "components": [
                {
                  "internalType": "bool",
                  "name": "abilityUsed",
                  "type": "bool"
                },
                {
                  "internalType": "bool",
                  "name": "frozen",
                  "type": "bool"
                },
                {
                  "internalType": "bool",
                  "name": "shielded",
                  "type": "bool"
                },
                {
                  "internalType": "uint8",
                  "name": "health",
                  "type": "uint8"
                },
                {
                  "internalType": "uint8",
                  "name": "ability",
                  "type": "uint8"
                },
                {
                  "internalType": "uint8",
                  "name": "attack",
                  "type": "uint8"
                },
                {
                  "internalType": "uint8",
                  "name": "index",
                  "type": "uint8"
                },
                {
                  "internalType": "uint8",
                  "name": "length",
                  "type": "uint8"
                }
              ],
              "internalType": "struct ExPopulusCardGameLogic.State",
              "name": "enemyState",
              "type": "tuple"
            }
          ],
          "internalType": "struct ExPopulusCardGameLogic.Turn[]",
          "name": "",
          "type": "tuple[]"
        }
      ],
      "stateMutability": "view",
      "type": "function"
    },
    {
      "inputs": [],
      "name": "owner",
      "outputs": [
        {
          "internalType": "address",
          "name": "",
          "type": "address"
        }
      ],
      "stateMutability": "view",
      "type": "function"
    },
    {
      "inputs": [
        {
          "internalType": "address",
          "name": "",
          "type": "address"
        }
      ],
      "name": "records",
      "outputs": [
        {
          "internalType": "uint256",
          "name": "wins",
          "type": "uint256"
        },
        {
          "internalType": "uint256",
          "name": "losses",
          "type": "uint256"
        },
        {
          "internalType": "uint256",
          "name": "draws",
          "type": "uint256"
        }
      ],
      "stateMutability": "view",
      "type": "function"
    },
    {
      "inputs": [],
      "name": "renounceOwnership",
      "outputs": [],
      "stateMutability": "nonpayable",
      "type": "function"
    },
    {
      "inputs": [
        {
          "internalType": "address",
          "name": "_cards",
          "type": "address"
        }
      ],
      "name": "setCards",
      "outputs": [],
      "stateMutability": "nonpayable",
      "type": "function"
    },
    {
      "inputs": [
        {
          "internalType": "address",
          "name": "_token",
          "type": "address"
        }
      ],
      "name": "setToken",
      "outputs": [],
      "stateMutability": "nonpayable",
      "type": "function"
    },
    {
      "inputs": [],
      "name": "token",
      "outputs": [
        {
          "internalType": "contract ExPopulusToken",
          "name": "",
          "type": "address"
        }
      ],
      "stateMutability": "view",
      "type": "function"
    },
    {
      "inputs": [
        {
          "internalType": "address",
          "name": "newOwner",
          "type": "address"
        }
      ],
      "name": "transferOwnership",
      "outputs": [],
      "stateMutability": "nonpayable",
      "type": "function"
    },
    {
      "inputs": [
        {
          "internalType": "uint256[3]",
          "name": "ids",
          "type": "uint256[3]"
        }
      ],
      "name": "validate",
      "outputs": [],
      "stateMutability": "view",
      "type": "function"
    }
  ],
  "bytecode": "0x60806040526000196001553480156200001757600080fd5b5060405162002403380380620024038339810160408190526200003a916200010c565b33806200006157604051631e4fbdf760e01b81526000600482015260240160405180910390fd5b6200006c816200009f565b50600280546001600160a01b039384166001600160a01b0319918216179091556003805492909316911617905562000144565b600080546001600160a01b038381166001600160a01b0319831681178455604051919092169283917f8be0079c531659141344cd1fd0a4f28419497f9722a3daafe3b4186f6b6457e09190a35050565b80516001600160a01b03811681146200010757600080fd5b919050565b600080604083850312156200012057600080fd5b6200012b83620000ef565b91506200013b60208401620000ef565b90509250929050565b6122af80620001546000396000f3fe608060405234801561001057600080fd5b50600436106100d45760003560e01c80638da5cb5b11610081578063e350e5c91161005b578063e350e5c9146101e8578063f2fde38b146101fb578063fc0c546a1461020e57600080fd5b80638da5cb5b14610196578063bec8f3c2146101a7578063e1beb977146101c757600080fd5b806358a4903f116100b257806358a4903f1461015057806363c5633e1461017b578063715018a61461018e57600080fd5b8063144fa6d7146100d95780632a74b2e0146100ee578063469e906714610101575b600080fd5b6100ec6100e7366004611e53565b610221565b005b6100ec6100fc366004611eae565b610258565b61013061010f366004611e53565b60046020526000908152604090208054600182015460029092015490919083565b604080519384526020840192909252908201526060015b60405180910390f35b600254610163906001600160a01b031681565b6040516001600160a01b039091168152602001610147565b6100ec610189366004611eae565b610f3f565b6100ec6111cc565b6000546001600160a01b0316610163565b6101ba6101b5366004611f0e565b6111e0565b6040516101479190611fa2565b6101da6101d5366004612005565b611440565b604051610147929190612027565b6100ec6101f6366004611e53565b61165b565b6100ec610209366004611e53565b611692565b600354610163906001600160a01b031681565b6102296116e6565b6003805473ffffffffffffffffffffffffffffffffffffffff19166001600160a01b0392909216919091179055565b3233146102ac5760405162461bcd60e51b815260206004820152600c60248201527f6f6e6c792077616c6c657473000000000000000000000000000000000000000060448201526064015b60405180910390fd5b60006102b960015461172c565b90506102c482610f3f565b6000818152600560205260408120906102dc84611792565b9050600061035f600260009054906101000a90046001600160a01b03166001600160a01b031663d8fc7a626040518163ffffffff1660e01b8152600401606060405180830381865afa158015610336573d6000803e3d6000fd5b505050506040513d601f19601f8201168201806040525081019061035a9190612044565b611792565b905060006040518061010001604052806000151581526020016000151581526020016000151581526020018460008151811061039d5761039d612099565b60200260200101516020015160ff168152602001846000815181106103c4576103c4612099565b60200260200101516040015160ff168152602001846000815181106103eb576103eb612099565b60200260200101516000015160ff168152602001600060ff168152602001845160ff16815250905060006040518061010001604052806000151581526020016000151581526020016000151581526020018460008151811061044f5761044f612099565b60200260200101516020015160ff1681526020018460008151811061047657610476612099565b60200260200101516040015160ff1681526020018460008151811061049d5761049d612099565b6020908102919091018101515160ff908116835260008383018190528751909116604093840152825161010081018452818152918201819052918101829052606081018290526080810182905260a0810182905260c0810182905260e08101919091529091506040805161010081018252600080825260208201819052918101829052606081018290526080810182905260a0810182905260c0810182905260e081019190915260005b86518560c0015160ff16108015610565575085518460c0015160ff16105b15610de757845115801561057857508351155b156106d45760018086528452600254608080870151908601516040517f6887eee800000000000000000000000000000000000000000000000000000000815260ff9283166004820152911660248201526001600160a01b0390911690636887eee890604401602060405180830381865afa1580156105fa573d6000803e3d6000fd5b505050506040513d601f19601f8201168201806040525081019061061e91906120af565b1561062e57849250839150610635565b8392508491505b6000806000610647866080015161190b565b151560208801529015156040880152925082156106735750505060e082015160ff1660c0830152610de7565b84602001516106cc57610689856080015161190b565b91151560408801529250905081156106b05750505060e083015160ff1660c0840152610de7565b8080156106bf57508560400151155b156106cc57600160208701525b505050610766565b845161071f576001855260808501516000906106ef9061190b565b15156020880152901515604088015290508015610719575060e084015160ff1660c0850152610de7565b50610766565b83516107665760018452608084015160009061073a9061190b565b15156020890152901515604087015290508015610764575060e085015160ff1660c0860152610de7565b505b846020015180610777575083604001515b1561087e578360a0015160ff16856060015160ff161161085d5760c085018051906107a1826120e7565b60ff1660ff168152505086518560c0015160ff160315610de757868560c0015160ff16815181106107d4576107d4612099565b602002602001015160200151856060019060ff16908160ff1681525050868560c0015160ff168151811061080a5761080a612099565b602002602001015160400151856080019060ff16908160ff1681525050868560c0015160ff168151811061084057610840612099565b60209081029190910101515160ff1660a086015260008552610b2f565b8360a00151856060018181516108739190612106565b60ff16905250610b2f565b83602001518061088f575084604001515b15610991578460a0015160ff16846060015160ff161161097b5760c084018051906108b9826120e7565b60ff1660ff16815250508360e0015160ff168460c0015160ff160315610de757858460c0015160ff16815181106108f2576108f2612099565b602002602001015160200151846060019060ff16908160ff1681525050858460c0015160ff168151811061092857610928612099565b602002602001015160400151846080019060ff16908160ff1681525050858460c0015160ff168151811061095e5761095e612099565b60209081029190910101515160ff1660a085015260008452610b2f565b8460a00151846060018181516108739190612106565b8360a0015160ff16856060015160ff16116109bd5760c085018051906109b6826120e7565b60ff169052505b8460a0015160ff16846060015160ff16116109e95760c084018051906109e2826120e7565b60ff169052505b86518560c0015160ff161480610a0c57508360e0015160ff168460c0015160ff16145b610de7578360a0015160ff16856060015160ff1611610ac757868560c0015160ff1681518110610a3e57610a3e612099565b602002602001015160200151856060019060ff16908160ff1681525050868560c0015160ff1681518110610a7457610a74612099565b602002602001015160400151856080019060ff16908160ff1681525050868560c0015160ff1681518110610aaa57610aaa612099565b60209081029190910101515160ff1660a086015260008552610ae4565b8360a0015185606001818151610add9190612106565b60ff169052505b8460a0015160ff16846060015160ff1611610b1257858460c0015160ff16815181106108f2576108f2612099565b8460a0015184606001818151610b289190612106565b60ff169052505b87604051806040016040528087815260200186815250908060018154018082558091505060019003906000526020600020906002020160009091909190915060008201518160000160008201518160000160006101000a81548160ff02191690831515021790555060208201518160000160016101000a81548160ff02191690831515021790555060408201518160000160026101000a81548160ff02191690831515021790555060608201518160000160036101000a81548160ff021916908360ff16021790555060808201518160000160046101000a81548160ff021916908360ff16021790555060a08201518160000160056101000a81548160ff021916908360ff16021790555060c08201518160000160066101000a81548160ff021916908360ff16021790555060e08201518160000160076101000a81548160ff021916908360ff160217905550505060208201518160010160008201518160000160006101000a81548160ff02191690831515021790555060208201518160000160016101000a81548160ff02191690831515021790555060408201518160000160026101000a81548160ff02191690831515021790555060608201518160000160036101000a81548160ff021916908360ff16021790555060808201518160000160046101000a81548160ff021916908360ff16021790555060a08201518160000160056101000a81548160ff021916908360ff16021790555060c08201518160000160066101000a81548160ff021916908360ff16021790555060e08201518160000160076101000a81548160ff021916908360ff1602179055505050505060008560200190151590811515815250506000856040019015159081151581525050600084602001901515908115158152505060008460400190151590811515815250508080610ddf9061211f565b915050610547565b3360009081526004602090815260408083208151606081018352815481526001820154938101939093526002015490820152885160c088015191929160ff16148015610e3a575087518660c0015160ff16145b15610e5b5760408201805190610e4f8261211f565b90525060009050610e9a565b88518760c0015160ff1603610e865760208201805190610e7a8261211f565b90525060029050610e9a565b815182610e928261211f565b905250600190505b33600090815260046020908152604091829020845180825591850151600182015591840151600290920191909155610ed59060ff83166119cc565b60008b81526005602052604090208a54610ef191908c90611acd565b507f6aeaa88470c08aa431fe4452b98ae2afdd6dc449509ae67ba2487e570951abbd338c8b8b85604051610f29959493929190612191565b60405180910390a1505050505050505050505050565b60025481516040516331a9108f60e11b8152600481019190915233916001600160a01b031690636352211e90602401602060405180830381865afa158015610f8b573d6000803e3d6000fd5b505050506040513d601f19601f82011682018060405250810190610faf91906121e1565b6001600160a01b031614158015610fc65750805115155b80611059575060025460208201516040516331a9108f60e11b8152600481019190915233916001600160a01b031690636352211e90602401602060405180830381865afa15801561101b573d6000803e3d6000fd5b505050506040513d601f19601f8201168201806040525081019061103f91906121e1565b6001600160a01b0316141580156110595750602081015115155b806110ec575060025460408083015190516331a9108f60e11b8152600481019190915233916001600160a01b031690636352211e90602401602060405180830381865afa1580156110ae573d6000803e3d6000fd5b505050506040513d601f19601f820116820180604052508101906110d291906121e1565b6001600160a01b0316141580156110ec5750604081015115155b156111395760405162461bcd60e51b815260206004820152601660248201527f796f75206d757374206f776e20616c6c2063617264730000000000000000000060448201526064016102a3565b602081015181511480611150575060408101518151145b801561115c5750805115155b8061117c57506040810151602082015114801561117c5750602081015115155b156111c95760405162461bcd60e51b815260206004820152601260248201527f696473206d75737420626520756e69717565000000000000000000000000000060448201526064016102a3565b50565b6111d46116e6565b6111de6000611a70565b565b606060056000838152602001908152602001600020805480602002602001604051908101604052809291908181526020016000905b82821015611435578382906000526020600020906002020160405180604001604052908160008201604051806101000160405290816000820160009054906101000a900460ff161515151581526020016000820160019054906101000a900460ff161515151581526020016000820160029054906101000a900460ff161515151581526020016000820160039054906101000a900460ff1660ff1660ff1681526020016000820160049054906101000a900460ff1660ff1660ff1681526020016000820160059054906101000a900460ff1660ff1660ff1681526020016000820160069054906101000a900460ff1660ff1660ff1681526020016000820160079054906101000a900460ff1660ff1660ff1681525050815260200160018201604051806101000160405290816000820160009054906101000a900460ff161515151581526020016000820160019054906101000a900460ff161515151581526020016000820160029054906101000a900460ff161515151581526020016000820160039054906101000a900460ff1660ff1660ff1681526020016000820160049054906101000a900460ff1660ff1660ff1681526020016000820160059054906101000a900460ff1660ff1660ff1681526020016000820160069054906101000a900460ff1660ff1660ff1681526020016000820160079054906101000a900460ff1660ff1660ff16815250508152505081526020019060010190611215565b505050509050919050565b6005602052816000526040600020818154811061145c57600080fd5b90600052602060002090600202016000915091505080600001604051806101000160405290816000820160009054906101000a900460ff161515151581526020016000820160019054906101000a900460ff161515151581526020016000820160029054906101000a900460ff161515151581526020016000820160039054906101000a900460ff1660ff1660ff1681526020016000820160049054906101000a900460ff1660ff1660ff1681526020016000820160059054906101000a900460ff1660ff1660ff1681526020016000820160069054906101000a900460ff1660ff1660ff1681526020016000820160079054906101000a900460ff1660ff1660ff16815250509080600101604051806101000160405290816000820160009054906101000a900460ff161515151581526020016000820160019054906101000a900460ff161515151581526020016000820160029054906101000a900460ff161515151581526020016000820160039054906101000a900460ff1660ff1660ff1681526020016000820160049054906101000a900460ff1660ff1660ff1681526020016000820160059054906101000a900460ff1660ff1660ff1681526020016000820160069054906101000a900460ff1660ff1660ff1681526020016000820160079054906101000a900460ff1660ff1660ff1681525050905082565b6116636116e6565b6002805473ffffffffffffffffffffffffffffffffffffffff19166001600160a01b0392909216919091179055565b61169a6116e6565b6001600160a01b0381166116dd576040517f1e4fbdf7000000000000000000000000000000000000000000000000000000008152600060048201526024016102a3565b6111c981611a70565b6000546001600160a01b031633146111de576040517f118cdaa70000000000000000000000000000000000000000000000000000000081523360048201526024016102a3565b6040805142602082015244918101919091526bffffffffffffffffffffffff1933606090811b82168184015232901b16607482015260009082906088016040516020818303038152906040528051906020012060001c61178c91906121fe565b92915050565b6040805160038082526080820190925260609160009190816020015b60408051606081018252600080825260208083018290529282015282526000199092019101816117ae5790505090506000805b6003811015611902578481600381106117fc576117fc612099565b6020020151156118f05760408051606081018252600080825260208201819052918101919091526002546001600160a01b031663ef7c895987846003811061184657611846612099565b60200201516040518263ffffffff1660e01b815260040161186991815260200190565b606060405180830381865afa158015611886573d6000803e3d6000fd5b505050506040513d601f19601f820116820180604052508101906118aa9190612236565b60ff90811660408501529081166020840152168152835181908590859081106118d5576118d5612099565b602002602001018190525082806118eb9061211f565b935050505b806118fa8161211f565b9150506117e1565b50909392505050565b60008060008360ff1660000361192a57506001915060009050806119c5565b8360ff1660010361196357605a611941606461172c565b1061195557506000915060019050816119c5565b5060009150819050806119c5565b8360ff1660020361197d57506000915081905060016119c5565b60405162461bcd60e51b815260206004820152600f60248201527f696e76616c6964206162696c697479000000000000000000000000000000000060448201526064016102a3565b9193909250565b80600103611a6c5760646119e16005846121fe565b6000036119ed57506103e85b6003546040517f79c65068000000000000000000000000000000000000000000000000000000008152336004820152602481018390526001600160a01b03909116906379c6506890604401600060405180830381600087803b158015611a5257600080fd5b505af1158015611a66573d6000803e3d6000fd5b50505050505b5050565b600080546001600160a01b0383811673ffffffffffffffffffffffffffffffffffffffff19831681178455604051919092169283917f8be0079c531659141344cd1fd0a4f28419497f9722a3daafe3b4186f6b6457e09190a35050565b828054828255906000526020600020906002028101928215611e015760005260206000209160020282015b82811115611e0157828260008201816000016000820160009054906101000a900460ff168160000160006101000a81548160ff0219169083151502179055506000820160019054906101000a900460ff168160000160016101000a81548160ff0219169083151502179055506000820160029054906101000a900460ff168160000160026101000a81548160ff0219169083151502179055506000820160039054906101000a900460ff168160000160036101000a81548160ff021916908360ff1602179055506000820160049054906101000a900460ff168160000160046101000a81548160ff021916908360ff1602179055506000820160059054906101000a900460ff168160000160056101000a81548160ff021916908360ff1602179055506000820160069054906101000a900460ff168160000160066101000a81548160ff021916908360ff1602179055506000820160079054906101000a900460ff168160000160076101000a81548160ff021916908360ff160217905550505060018201816001016000820160009054906101000a900460ff168160000160006101000a81548160ff0219169083151502179055506000820160019054906101000a900460ff168160000160016101000a81548160ff0219169083151502179055506000820160029054906101000a900460ff168160000160026101000a81548160ff0219169083151502179055506000820160039054906101000a900460ff168160000160036101000a81548160ff021916908360ff1602179055506000820160049054906101000a900460ff168160000160046101000a81548160ff021916908360ff1602179055506000820160059054906101000a900460ff168160000160056101000a81548160ff021916908360ff1602179055506000820160069054906101000a900460ff168160000160066101000a81548160ff021916908360ff1602179055506000820160079054906101000a900460ff168160000160076101000a81548160ff021916908360ff1602179055505050505091600201919060020190611af8565b50611e0d929150611e11565b5090565b5b80821115611e0d57805467ffffffffffffffff1990811682556001820180549091169055600201611e12565b6001600160a01b03811681146111c957600080fd5b600060208284031215611e6557600080fd5b8135611e7081611e3e565b9392505050565b6040516060810167ffffffffffffffff81118282101715611ea857634e487b7160e01b600052604160045260246000fd5b60405290565b600060608284031215611ec057600080fd5b82601f830112611ecf57600080fd5b611ed7611e77565b806060840185811115611ee957600080fd5b845b81811015611f03578035845260209384019301611eeb565b509095945050505050565b600060208284031215611f2057600080fd5b5035919050565b80511515825260208101511515602083015260408101511515604083015260ff606082015116606083015260ff608082015116608083015260a0810151611f7360a084018260ff169052565b5060c0810151611f8860c084018260ff169052565b5060e0810151611f9d60e084018260ff169052565b505050565b6020808252825182820181905260009190848201906040850190845b81811015611ff9578351611fd3848251611f27565b850151611fe4610100850182611f27565b50928401926102009290920191600101611fbe565b50909695505050505050565b6000806040838503121561201857600080fd5b50508035926020909101359150565b61020081016120368285611f27565b611e70610100830184611f27565b60006060828403121561205657600080fd5b82601f83011261206557600080fd5b61206d611e77565b80606084018581111561207f57600080fd5b845b81811015611f03578051845260209384019301612081565b634e487b7160e01b600052603260045260246000fd5b6000602082840312156120c157600080fd5b81518015158114611e7057600080fd5b634e487b7160e01b600052601160045260246000fd5b600060ff821660ff81036120fd576120fd6120d1565b60010192915050565b60ff828116828216039081111561178c5761178c6120d1565b600060018201612131576121316120d1565b5060010190565b600081518084526020808501945080840160005b83811015612186578151805160ff9081168952848201518116858a015260409182015116908801526060909601959082019060010161214c565b509495945050505050565b6001600160a01b038616815284602082015260a0604082015260006121b960a0830186612138565b82810360608401526121cb8186612138565b91505060ff831660808301529695505050505050565b6000602082840312156121f357600080fd5b8151611e7081611e3e565b60008261221b57634e487b7160e01b600052601260045260246000fd5b500690565b805160ff8116811461223157600080fd5b919050565b60008060006060848603121561224b57600080fd5b61225484612220565b925061226260208501612220565b915061227060408501612220565b9050925092509256fea2646970667358221220e484997753845cf7924427c2b28ac6e9adef6a8d894a7b26adab359ceed230d564736f6c63430008140033",
  "linkReferences": {},
  "deployedLinkReferences": {}
}