{
  "_format": "hh-sol-artifact-1",
  "contractName": "ExPopulusCardGameLogic",
  "sourceName": "contracts/ExPopulusCardGameLogic.sol",
  "abi": [
    {
      "inputs": [
        {
          "internalType": "address",
          "name": "_cards",
          "type": "address"
        },
        {
          "internalType": "address",
          "name": "_token",
          "type": "address"
        }
      ],
      "stateMutability": "nonpayable",
      "type": "constructor"
    },
    {
      "inputs": [
        {
          "internalType": "address",
          "name": "owner",
          "type": "address"
        }
      ],
      "name": "OwnableInvalidOwner",
      "type": "error"
    },
    {
      "inputs": [
        {
          "internalType": "address",
          "name": "account",
          "type": "address"
        }
      ],
      "name": "OwnableUnauthorizedAccount",
      "type": "error"
    },
    {
      "anonymous": false,
      "inputs": [
        {
          "indexed": false,
          "internalType": "address",
          "name": "player",
          "type": "address"
        },
        {
          "indexed": false,
          "internalType": "uint256",
          "name": "gameHash",
          "type": "uint256"
        },
        {
          "components": [
            {
              "internalType": "uint8",
              "name": "attack",
              "type": "uint8"
            },
            {
              "internalType": "uint8",
              "name": "health",
              "type": "uint8"
            },
            {
              "internalType": "uint8",
              "name": "ability",
              "type": "uint8"
            }
          ],
          "indexed": false,
          "internalType": "struct ExPopulusCardGameLogic.CardData[]",
          "name": "playerDeck",
          "type": "tuple[]"
        },
        {
          "components": [
            {
              "internalType": "uint8",
              "name": "attack",
              "type": "uint8"
            },
            {
              "internalType": "uint8",
              "name": "health",
              "type": "uint8"
            },
            {
              "internalType": "uint8",
              "name": "ability",
              "type": "uint8"
            }
          ],
          "indexed": false,
          "internalType": "struct ExPopulusCardGameLogic.CardData[]",
          "name": "enemyDeck",
          "type": "tuple[]"
        },
        {
          "indexed": false,
          "internalType": "uint8",
          "name": "result",
          "type": "uint8"
        }
      ],
      "name": "BattleResult",
      "type": "event"
    },
    {
      "anonymous": false,
      "inputs": [
        {
          "indexed": true,
          "internalType": "address",
          "name": "previousOwner",
          "type": "address"
        },
        {
          "indexed": true,
          "internalType": "address",
          "name": "newOwner",
          "type": "address"
        }
      ],
      "name": "OwnershipTransferred",
      "type": "event"
    },
    {
      "inputs": [
        {
          "internalType": "uint256[3]",
          "name": "ids",
          "type": "uint256[3]"
        }
      ],
      "name": "battle",
      "outputs": [],
      "stateMutability": "nonpayable",
      "type": "function"
    },
    {
      "inputs": [],
      "name": "cards",
      "outputs": [
        {
          "internalType": "contract ExPopulusCards",
          "name": "",
          "type": "address"
        }
      ],
      "stateMutability": "view",
      "type": "function"
    },
    {
      "inputs": [
        {
          "internalType": "uint256",
          "name": "",
          "type": "uint256"
        },
        {
          "internalType": "uint256",
          "name": "",
          "type": "uint256"
        }
      ],
      "name": "gameTurns",
      "outputs": [
        {
          "components": [
            {
              "internalType": "bool",
              "name": "abilityUsed",
              "type": "bool"
            },
            {
              "internalType": "bool",
              "name": "frozen",
              "type": "bool"
            },
            {
              "internalType": "bool",
              "name": "shielded",
              "type": "bool"
            },
            {
              "internalType": "uint8",
              "name": "health",
              "type": "uint8"
            },
            {
              "internalType": "uint8",
              "name": "ability",
              "type": "uint8"
            },
            {
              "internalType": "uint8",
              "name": "attack",
              "type": "uint8"
            },
            {
              "internalType": "uint8",
              "name": "index",
              "type": "uint8"
            },
            {
              "internalType": "uint8",
              "name": "length",
              "type": "uint8"
            }
          ],
          "internalType": "struct ExPopulusCardGameLogic.State",
          "name": "playerState",
          "type": "tuple"
        },
        {
          "components": [
            {
              "internalType": "bool",
              "name": "abilityUsed",
              "type": "bool"
            },
            {
              "internalType": "bool",
              "name": "frozen",
              "type": "bool"
            },
            {
              "internalType": "bool",
              "name": "shielded",
              "type": "bool"
            },
            {
              "internalType": "uint8",
              "name": "health",
              "type": "uint8"
            },
            {
              "internalType": "uint8",
              "name": "ability",
              "type": "uint8"
            },
            {
              "internalType": "uint8",
              "name": "attack",
              "type": "uint8"
            },
            {
              "internalType": "uint8",
              "name": "index",
              "type": "uint8"
            },
            {
              "internalType": "uint8",
              "name": "length",
              "type": "uint8"
            }
          ],
          "internalType": "struct ExPopulusCardGameLogic.State",
          "name": "enemyState",
          "type": "tuple"
        }
      ],
      "stateMutability": "view",
      "type": "function"
    },
    {
      "inputs": [
        {
          "internalType": "uint256",
          "name": "gameHash",
          "type": "uint256"
        }
      ],
      "name": "getGameTurns",
      "outputs": [
        {
          "components": [
            {
              "components": [
                {
                  "internalType": "bool",
                  "name": "abilityUsed",
                  "type": "bool"
                },
                {
                  "internalType": "bool",
                  "name": "frozen",
                  "type": "bool"
                },
                {
                  "internalType": "bool",
                  "name": "shielded",
                  "type": "bool"
                },
                {
                  "internalType": "uint8",
                  "name": "health",
                  "type": "uint8"
                },
                {
                  "internalType": "uint8",
                  "name": "ability",
                  "type": "uint8"
                },
                {
                  "internalType": "uint8",
                  "name": "attack",
                  "type": "uint8"
                },
                {
                  "internalType": "uint8",
                  "name": "index",
                  "type": "uint8"
                },
                {
                  "internalType": "uint8",
                  "name": "length",
                  "type": "uint8"
                }
              ],
              "internalType": "struct ExPopulusCardGameLogic.State",
              "name": "playerState",
              "type": "tuple"
            },
            {
              "components": [
                {
                  "internalType": "bool",
                  "name": "abilityUsed",
                  "type": "bool"
                },
                {
                  "internalType": "bool",
                  "name": "frozen",
                  "type": "bool"
                },
                {
                  "internalType": "bool",
                  "name": "shielded",
                  "type": "bool"
                },
                {
                  "internalType": "uint8",
                  "name": "health",
                  "type": "uint8"
                },
                {
                  "internalType": "uint8",
                  "name": "ability",
                  "type": "uint8"
                },
                {
                  "internalType": "uint8",
                  "name": "attack",
                  "type": "uint8"
                },
                {
                  "internalType": "uint8",
                  "name": "index",
                  "type": "uint8"
                },
                {
                  "internalType": "uint8",
                  "name": "length",
                  "type": "uint8"
                }
              ],
              "internalType": "struct ExPopulusCardGameLogic.State",
              "name": "enemyState",
              "type": "tuple"
            }
          ],
          "internalType": "struct ExPopulusCardGameLogic.Turn[]",
          "name": "",
          "type": "tuple[]"
        }
      ],
      "stateMutability": "view",
      "type": "function"
    },
    {
      "inputs": [],
      "name": "owner",
      "outputs": [
        {
          "internalType": "address",
          "name": "",
          "type": "address"
        }
      ],
      "stateMutability": "view",
      "type": "function"
    },
    {
      "inputs": [
        {
          "internalType": "address",
          "name": "",
          "type": "address"
        }
      ],
      "name": "records",
      "outputs": [
        {
          "internalType": "uint256",
          "name": "wins",
          "type": "uint256"
        },
        {
          "internalType": "uint256",
          "name": "losses",
          "type": "uint256"
        },
        {
          "internalType": "uint256",
          "name": "draws",
          "type": "uint256"
        }
      ],
      "stateMutability": "view",
      "type": "function"
    },
    {
      "inputs": [],
      "name": "renounceOwnership",
      "outputs": [],
      "stateMutability": "nonpayable",
      "type": "function"
    },
    {
      "inputs": [
        {
          "internalType": "address",
          "name": "_cards",
          "type": "address"
        }
      ],
      "name": "setCards",
      "outputs": [],
      "stateMutability": "nonpayable",
      "type": "function"
    },
    {
      "inputs": [
        {
          "internalType": "address",
          "name": "_token",
          "type": "address"
        }
      ],
      "name": "setToken",
      "outputs": [],
      "stateMutability": "nonpayable",
      "type": "function"
    },
    {
      "inputs": [],
      "name": "token",
      "outputs": [
        {
          "internalType": "contract ExPopulusToken",
          "name": "",
          "type": "address"
        }
      ],
      "stateMutability": "view",
      "type": "function"
    },
    {
      "inputs": [
        {
          "internalType": "address",
          "name": "newOwner",
          "type": "address"
        }
      ],
      "name": "transferOwnership",
      "outputs": [],
      "stateMutability": "nonpayable",
      "type": "function"
    },
    {
      "inputs": [
        {
          "internalType": "uint256[3]",
          "name": "ids",
          "type": "uint256[3]"
        }
      ],
      "name": "validate",
      "outputs": [],
      "stateMutability": "view",
      "type": "function"
    }
  ],
  "bytecode": "0x60806040526000196001553480156200001757600080fd5b50604051620034dc380380620034dc8339810160408190526200003a916200010c565b33806200006157604051631e4fbdf760e01b81526000600482015260240160405180910390fd5b6200006c816200009f565b50600280546001600160a01b039384166001600160a01b0319918216179091556003805492909316911617905562000144565b600080546001600160a01b038381166001600160a01b0319831681178455604051919092169283917f8be0079c531659141344cd1fd0a4f28419497f9722a3daafe3b4186f6b6457e09190a35050565b80516001600160a01b03811681146200010757600080fd5b919050565b600080604083850312156200012057600080fd5b6200012b83620000ef565b91506200013b60208401620000ef565b90509250929050565b61338880620001546000396000f3fe608060405234801561001057600080fd5b50600436106100d45760003560e01c80638da5cb5b11610081578063e350e5c91161005b578063e350e5c9146101e8578063f2fde38b146101fb578063fc0c546a1461020e57600080fd5b80638da5cb5b14610196578063bec8f3c2146101a7578063e1beb977146101c757600080fd5b806358a4903f116100b257806358a4903f1461015057806363c5633e1461017b578063715018a61461018e57600080fd5b8063144fa6d7146100d95780632a74b2e0146100ee578063469e906714610101575b600080fd5b6100ec6100e7366004612f2c565b610221565b005b6100ec6100fc366004612f87565b610258565b61013061010f366004612f2c565b60046020526000908152604090208054600182015460029092015490919083565b604080519384526020840192909252908201526060015b60405180910390f35b600254610163906001600160a01b031681565b6040516001600160a01b039091168152602001610147565b6100ec610189366004612f87565b612018565b6100ec6122a5565b6000546001600160a01b0316610163565b6101ba6101b5366004612fe7565b6122b9565b604051610147919061307b565b6101da6101d53660046130de565b612519565b604051610147929190613100565b6100ec6101f6366004612f2c565b612734565b6100ec610209366004612f2c565b61276b565b600354610163906001600160a01b031681565b6102296127bf565b6003805473ffffffffffffffffffffffffffffffffffffffff19166001600160a01b0392909216919091179055565b3233146102ac5760405162461bcd60e51b815260206004820152600c60248201527f6f6e6c792077616c6c657473000000000000000000000000000000000000000060448201526064015b60405180910390fd5b60006102b9600154612805565b90506102c482612018565b6000818152600560205260408120906102dc8461286b565b9050600061035f600260009054906101000a90046001600160a01b03166001600160a01b031663d8fc7a626040518163ffffffff1660e01b8152600401606060405180830381865afa158015610336573d6000803e3d6000fd5b505050506040513d601f19601f8201168201806040525081019061035a919061311d565b61286b565b905060006040518061010001604052806000151581526020016000151581526020016000151581526020018460008151811061039d5761039d613172565b60200260200101516020015160ff168152602001846000815181106103c4576103c4613172565b60200260200101516040015160ff168152602001846000815181106103eb576103eb613172565b60200260200101516000015160ff168152602001600060ff168152602001845160ff16815250905060006040518061010001604052806000151581526020016000151581526020016000151581526020018460008151811061044f5761044f613172565b60200260200101516020015160ff1681526020018460008151811061047657610476613172565b60200260200101516040015160ff1681526020018460008151811061049d5761049d613172565b6020908102919091018101515160ff908116835260008383018190528751909116604093840152825161010081018452818152918201819052918101829052606081018290526080810182905260a0810182905260c0810182905260e08101919091529091506040805161010081018252600080825260208201819052918101829052606081018290526080810182905260a0810182905260c0810182905260e081019190915260005b86518560c0015160ff16108015610565575085518460c0015160ff16105b15611ec057845115801561057857508351155b15610ba85760018086528452600254608080870151908601516040517f6887eee800000000000000000000000000000000000000000000000000000000815260ff9283166004820152911660248201526001600160a01b0390911690636887eee890604401602060405180830381865afa1580156105fa573d6000803e3d6000fd5b505050506040513d601f19601f8201168201806040525081019061061e9190613188565b1561062e57849250839150610635565b8392508491505b600080600061064786608001516129e4565b151560208801529015156040880152925082156108dd578460e001518560c0019060ff16908160ff16815250508a60405180604001604052808a815260200189815250908060018154018082558091505060019003906000526020600020906002020160009091909190915060008201518160000160008201518160000160006101000a81548160ff02191690831515021790555060208201518160000160016101000a81548160ff02191690831515021790555060408201518160000160026101000a81548160ff02191690831515021790555060608201518160000160036101000a81548160ff021916908360ff16021790555060808201518160000160046101000a81548160ff021916908360ff16021790555060a08201518160000160056101000a81548160ff021916908360ff16021790555060c08201518160000160066101000a81548160ff021916908360ff16021790555060e08201518160000160076101000a81548160ff021916908360ff160217905550505060208201518160010160008201518160000160006101000a81548160ff02191690831515021790555060208201518160000160016101000a81548160ff02191690831515021790555060408201518160000160026101000a81548160ff02191690831515021790555060608201518160000160036101000a81548160ff021916908360ff16021790555060808201518160000160046101000a81548160ff021916908360ff16021790555060a08201518160000160056101000a81548160ff021916908360ff16021790555060c08201518160000160066101000a81548160ff021916908360ff16021790555060e08201518160000160076101000a81548160ff021916908360ff16021790555050505050505050611ec0565b8460200151610ba0576108f385608001516129e4565b9115156040880152925090508115610b84578560e001518660c0019060ff16908160ff16815250508a60405180604001604052808a815260200189815250908060018154018082558091505060019003906000526020600020906002020160009091909190915060008201518160000160008201518160000160006101000a81548160ff02191690831515021790555060208201518160000160016101000a81548160ff02191690831515021790555060408201518160000160026101000a81548160ff02191690831515021790555060608201518160000160036101000a81548160ff021916908360ff16021790555060808201518160000160046101000a81548160ff021916908360ff16021790555060a08201518160000160056101000a81548160ff021916908360ff16021790555060c08201518160000160066101000a81548160ff021916908360ff16021790555060e08201518160000160076101000a81548160ff021916908360ff160217905550505060208201518160010160008201518160000160006101000a81548160ff02191690831515021790555060208201518160000160016101000a81548160ff02191690831515021790555060408201518160000160026101000a81548160ff02191690831515021790555060608201518160000160036101000a81548160ff021916908360ff16021790555060808201518160000160046101000a81548160ff021916908360ff16021790555060a08201518160000160056101000a81548160ff021916908360ff16021790555060c08201518160000160066101000a81548160ff021916908360ff16021790555060e08201518160000160076101000a81548160ff021916908360ff16021790555050505050505050611ec0565b808015610b9357508560400151155b15610ba057600160208701525b50505061110e565b8451610e5d57600185526080850151600090610bc3906129e4565b15156020880152901515604088015290508015610e57578460e001518560c0019060ff16908160ff168152505088604051806040016040528088815260200187815250908060018154018082558091505060019003906000526020600020906002020160009091909190915060008201518160000160008201518160000160006101000a81548160ff02191690831515021790555060208201518160000160016101000a81548160ff02191690831515021790555060408201518160000160026101000a81548160ff02191690831515021790555060608201518160000160036101000a81548160ff021916908360ff16021790555060808201518160000160046101000a81548160ff021916908360ff16021790555060a08201518160000160056101000a81548160ff021916908360ff16021790555060c08201518160000160066101000a81548160ff021916908360ff16021790555060e08201518160000160076101000a81548160ff021916908360ff160217905550505060208201518160010160008201518160000160006101000a81548160ff02191690831515021790555060208201518160000160016101000a81548160ff02191690831515021790555060408201518160000160026101000a81548160ff02191690831515021790555060608201518160000160036101000a81548160ff021916908360ff16021790555060808201518160000160046101000a81548160ff021916908360ff16021790555060a08201518160000160056101000a81548160ff021916908360ff16021790555060c08201518160000160066101000a81548160ff021916908360ff16021790555060e08201518160000160076101000a81548160ff021916908360ff1602179055505050505050611ec0565b5061110e565b835161110e57600184526080840151600090610e78906129e4565b1515602089015290151560408701529050801561110c578560e001518660c0019060ff16908160ff168152505088604051806040016040528088815260200187815250908060018154018082558091505060019003906000526020600020906002020160009091909190915060008201518160000160008201518160000160006101000a81548160ff02191690831515021790555060208201518160000160016101000a81548160ff02191690831515021790555060408201518160000160026101000a81548160ff02191690831515021790555060608201518160000160036101000a81548160ff021916908360ff16021790555060808201518160000160046101000a81548160ff021916908360ff16021790555060a08201518160000160056101000a81548160ff021916908360ff16021790555060c08201518160000160066101000a81548160ff021916908360ff16021790555060e08201518160000160076101000a81548160ff021916908360ff160217905550505060208201518160010160008201518160000160006101000a81548160ff02191690831515021790555060208201518160000160016101000a81548160ff02191690831515021790555060408201518160000160026101000a81548160ff02191690831515021790555060608201518160000160036101000a81548160ff021916908360ff16021790555060808201518160000160046101000a81548160ff021916908360ff16021790555060a08201518160000160056101000a81548160ff021916908360ff16021790555060c08201518160000160066101000a81548160ff021916908360ff16021790555060e08201518160000160076101000a81548160ff021916908360ff1602179055505050505050611ec0565b505b84602001518061111f575083604001515b1561148b578360a0015160ff16856060015160ff161161146a5760c08501805190611149826131c0565b60ff1660ff168152505086518560c0015160ff16036113c85787604051806040016040528087815260200186815250908060018154018082558091505060019003906000526020600020906002020160009091909190915060008201518160000160008201518160000160006101000a81548160ff02191690831515021790555060208201518160000160016101000a81548160ff02191690831515021790555060408201518160000160026101000a81548160ff02191690831515021790555060608201518160000160036101000a81548160ff021916908360ff16021790555060808201518160000160046101000a81548160ff021916908360ff16021790555060a08201518160000160056101000a81548160ff021916908360ff16021790555060c08201518160000160066101000a81548160ff021916908360ff16021790555060e08201518160000160076101000a81548160ff021916908360ff160217905550505060208201518160010160008201518160000160006101000a81548160ff02191690831515021790555060208201518160000160016101000a81548160ff02191690831515021790555060408201518160000160026101000a81548160ff02191690831515021790555060608201518160000160036101000a81548160ff021916908360ff16021790555060808201518160000160046101000a81548160ff021916908360ff16021790555060a08201518160000160056101000a81548160ff021916908360ff16021790555060c08201518160000160066101000a81548160ff021916908360ff16021790555060e08201518160000160076101000a81548160ff021916908360ff16021790555050505050611ec0565b868560c0015160ff16815181106113e1576113e1613172565b602002602001015160200151856060019060ff16908160ff1681525050868560c0015160ff168151811061141757611417613172565b602002602001015160400151856080019060ff16908160ff1681525050868560c0015160ff168151811061144d5761144d613172565b60209081029190910101515160ff1660a086015260008552611c08565b8360a001518560600181815161148091906131df565b60ff16905250611c08565b83602001518061149c575084604001515b15611803578460a0015160ff16846060015160ff16116117ed5760c084018051906114c6826131c0565b60ff1660ff16815250508360e0015160ff168460c0015160ff160361174b5787604051806040016040528087815260200186815250908060018154018082558091505060019003906000526020600020906002020160009091909190915060008201518160000160008201518160000160006101000a81548160ff02191690831515021790555060208201518160000160016101000a81548160ff02191690831515021790555060408201518160000160026101000a81548160ff02191690831515021790555060608201518160000160036101000a81548160ff021916908360ff16021790555060808201518160000160046101000a81548160ff021916908360ff16021790555060a08201518160000160056101000a81548160ff021916908360ff16021790555060c08201518160000160066101000a81548160ff021916908360ff16021790555060e08201518160000160076101000a81548160ff021916908360ff160217905550505060208201518160010160008201518160000160006101000a81548160ff02191690831515021790555060208201518160000160016101000a81548160ff02191690831515021790555060408201518160000160026101000a81548160ff02191690831515021790555060608201518160000160036101000a81548160ff021916908360ff16021790555060808201518160000160046101000a81548160ff021916908360ff16021790555060a08201518160000160056101000a81548160ff021916908360ff16021790555060c08201518160000160066101000a81548160ff021916908360ff16021790555060e08201518160000160076101000a81548160ff021916908360ff16021790555050505050611ec0565b858460c0015160ff168151811061176457611764613172565b602002602001015160200151846060019060ff16908160ff1681525050858460c0015160ff168151811061179a5761179a613172565b602002602001015160400151846080019060ff16908160ff1681525050858460c0015160ff16815181106117d0576117d0613172565b60209081029190910101515160ff1660a085015260008452611c08565b8460a001518460600181815161148091906131df565b8360a0015160ff16856060015160ff161161182f5760c08501805190611828826131c0565b60ff169052505b8460a0015160ff16846060015160ff161161185b5760c08401805190611854826131c0565b60ff169052505b86518560c0015160ff16148061187e57508360e0015160ff168460c0015160ff16145b15611ae95787604051806040016040528087815260200186815250908060018154018082558091505060019003906000526020600020906002020160009091909190915060008201518160000160008201518160000160006101000a81548160ff02191690831515021790555060208201518160000160016101000a81548160ff02191690831515021790555060408201518160000160026101000a81548160ff02191690831515021790555060608201518160000160036101000a81548160ff021916908360ff16021790555060808201518160000160046101000a81548160ff021916908360ff16021790555060a08201518160000160056101000a81548160ff021916908360ff16021790555060c08201518160000160066101000a81548160ff021916908360ff16021790555060e08201518160000160076101000a81548160ff021916908360ff160217905550505060208201518160010160008201518160000160006101000a81548160ff02191690831515021790555060208201518160000160016101000a81548160ff02191690831515021790555060408201518160000160026101000a81548160ff02191690831515021790555060608201518160000160036101000a81548160ff021916908360ff16021790555060808201518160000160046101000a81548160ff021916908360ff16021790555060a08201518160000160056101000a81548160ff021916908360ff16021790555060c08201518160000160066101000a81548160ff021916908360ff16021790555060e08201518160000160076101000a81548160ff021916908360ff16021790555050505050611ec0565b8360a0015160ff16856060015160ff1611611ba057868560c0015160ff1681518110611b1757611b17613172565b602002602001015160200151856060019060ff16908160ff1681525050868560c0015160ff1681518110611b4d57611b4d613172565b602002602001015160400151856080019060ff16908160ff1681525050868560c0015160ff1681518110611b8357611b83613172565b60209081029190910101515160ff1660a086015260008552611bbd565b8360a0015185606001818151611bb691906131df565b60ff169052505b8460a0015160ff16846060015160ff1611611beb57858460c0015160ff168151811061176457611764613172565b8460a0015184606001818151611c0191906131df565b60ff169052505b87604051806040016040528087815260200186815250908060018154018082558091505060019003906000526020600020906002020160009091909190915060008201518160000160008201518160000160006101000a81548160ff02191690831515021790555060208201518160000160016101000a81548160ff02191690831515021790555060408201518160000160026101000a81548160ff02191690831515021790555060608201518160000160036101000a81548160ff021916908360ff16021790555060808201518160000160046101000a81548160ff021916908360ff16021790555060a08201518160000160056101000a81548160ff021916908360ff16021790555060c08201518160000160066101000a81548160ff021916908360ff16021790555060e08201518160000160076101000a81548160ff021916908360ff160217905550505060208201518160010160008201518160000160006101000a81548160ff02191690831515021790555060208201518160000160016101000a81548160ff02191690831515021790555060408201518160000160026101000a81548160ff02191690831515021790555060608201518160000160036101000a81548160ff021916908360ff16021790555060808201518160000160046101000a81548160ff021916908360ff16021790555060a08201518160000160056101000a81548160ff021916908360ff16021790555060c08201518160000160066101000a81548160ff021916908360ff16021790555060e08201518160000160076101000a81548160ff021916908360ff1602179055505050505060008560200190151590811515815250506000856040019015159081151581525050600084602001901515908115158152505060008460400190151590811515815250508080611eb8906131f8565b915050610547565b3360009081526004602090815260408083208151606081018352815481526001820154938101939093526002015490820152885160c088015191929160ff16148015611f13575087518660c0015160ff16145b15611f345760408201805190611f28826131f8565b90525060009050611f73565b88518760c0015160ff1603611f5f5760208201805190611f53826131f8565b90525060029050611f73565b815182611f6b826131f8565b905250600190505b33600090815260046020908152604091829020845180825591850151600182015591840151600290920191909155611fae9060ff8316612aa5565b60008b81526005602052604090208a54611fca91908c90612ba6565b507f6aeaa88470c08aa431fe4452b98ae2afdd6dc449509ae67ba2487e570951abbd338c8b8b8560405161200295949392919061326a565b60405180910390a1505050505050505050505050565b60025481516040516331a9108f60e11b8152600481019190915233916001600160a01b031690636352211e90602401602060405180830381865afa158015612064573d6000803e3d6000fd5b505050506040513d601f19601f8201168201806040525081019061208891906132ba565b6001600160a01b03161415801561209f5750805115155b80612132575060025460208201516040516331a9108f60e11b8152600481019190915233916001600160a01b031690636352211e90602401602060405180830381865afa1580156120f4573d6000803e3d6000fd5b505050506040513d601f19601f8201168201806040525081019061211891906132ba565b6001600160a01b0316141580156121325750602081015115155b806121c5575060025460408083015190516331a9108f60e11b8152600481019190915233916001600160a01b031690636352211e90602401602060405180830381865afa158015612187573d6000803e3d6000fd5b505050506040513d601f19601f820116820180604052508101906121ab91906132ba565b6001600160a01b0316141580156121c55750604081015115155b156122125760405162461bcd60e51b815260206004820152601660248201527f796f75206d757374206f776e20616c6c2063617264730000000000000000000060448201526064016102a3565b602081015181511480612229575060408101518151145b80156122355750805115155b806122555750604081015160208201511480156122555750602081015115155b156122a25760405162461bcd60e51b815260206004820152601260248201527f696473206d75737420626520756e69717565000000000000000000000000000060448201526064016102a3565b50565b6122ad6127bf565b6122b76000612b49565b565b606060056000838152602001908152602001600020805480602002602001604051908101604052809291908181526020016000905b8282101561250e578382906000526020600020906002020160405180604001604052908160008201604051806101000160405290816000820160009054906101000a900460ff161515151581526020016000820160019054906101000a900460ff161515151581526020016000820160029054906101000a900460ff161515151581526020016000820160039054906101000a900460ff1660ff1660ff1681526020016000820160049054906101000a900460ff1660ff1660ff1681526020016000820160059054906101000a900460ff1660ff1660ff1681526020016000820160069054906101000a900460ff1660ff1660ff1681526020016000820160079054906101000a900460ff1660ff1660ff1681525050815260200160018201604051806101000160405290816000820160009054906101000a900460ff161515151581526020016000820160019054906101000a900460ff161515151581526020016000820160029054906101000a900460ff161515151581526020016000820160039054906101000a900460ff1660ff1660ff1681526020016000820160049054906101000a900460ff1660ff1660ff1681526020016000820160059054906101000a900460ff1660ff1660ff1681526020016000820160069054906101000a900460ff1660ff1660ff1681526020016000820160079054906101000a900460ff1660ff1660ff168152505081525050815260200190600101906122ee565b505050509050919050565b6005602052816000526040600020818154811061253557600080fd5b90600052602060002090600202016000915091505080600001604051806101000160405290816000820160009054906101000a900460ff161515151581526020016000820160019054906101000a900460ff161515151581526020016000820160029054906101000a900460ff161515151581526020016000820160039054906101000a900460ff1660ff1660ff1681526020016000820160049054906101000a900460ff1660ff1660ff1681526020016000820160059054906101000a900460ff1660ff1660ff1681526020016000820160069054906101000a900460ff1660ff1660ff1681526020016000820160079054906101000a900460ff1660ff1660ff16815250509080600101604051806101000160405290816000820160009054906101000a900460ff161515151581526020016000820160019054906101000a900460ff161515151581526020016000820160029054906101000a900460ff161515151581526020016000820160039054906101000a900460ff1660ff1660ff1681526020016000820160049054906101000a900460ff1660ff1660ff1681526020016000820160059054906101000a900460ff1660ff1660ff1681526020016000820160069054906101000a900460ff1660ff1660ff1681526020016000820160079054906101000a900460ff1660ff1660ff1681525050905082565b61273c6127bf565b6002805473ffffffffffffffffffffffffffffffffffffffff19166001600160a01b0392909216919091179055565b6127736127bf565b6001600160a01b0381166127b6576040517f1e4fbdf7000000000000000000000000000000000000000000000000000000008152600060048201526024016102a3565b6122a281612b49565b6000546001600160a01b031633146122b7576040517f118cdaa70000000000000000000000000000000000000000000000000000000081523360048201526024016102a3565b6040805142602082015244918101919091526bffffffffffffffffffffffff1933606090811b82168184015232901b16607482015260009082906088016040516020818303038152906040528051906020012060001c61286591906132d7565b92915050565b6040805160038082526080820190925260609160009190816020015b60408051606081018252600080825260208083018290529282015282526000199092019101816128875790505090506000805b60038110156129db578481600381106128d5576128d5613172565b6020020151156129c95760408051606081018252600080825260208201819052918101919091526002546001600160a01b031663ef7c895987846003811061291f5761291f613172565b60200201516040518263ffffffff1660e01b815260040161294291815260200190565b606060405180830381865afa15801561295f573d6000803e3d6000fd5b505050506040513d601f19601f82011682018060405250810190612983919061330f565b60ff90811660408501529081166020840152168152835181908590859081106129ae576129ae613172565b602002602001018190525082806129c4906131f8565b935050505b806129d3816131f8565b9150506128ba565b50909392505050565b60008060008360ff16600003612a035750600191506000905080612a9e565b8360ff16600103612a3c57605a612a1a6064612805565b10612a2e5750600091506001905081612a9e565b506000915081905080612a9e565b8360ff16600203612a565750600091508190506001612a9e565b60405162461bcd60e51b815260206004820152600f60248201527f696e76616c6964206162696c697479000000000000000000000000000000000060448201526064016102a3565b9193909250565b80600103612b45576064612aba6005846132d7565b600003612ac657506103e85b6003546040517f79c65068000000000000000000000000000000000000000000000000000000008152336004820152602481018390526001600160a01b03909116906379c6506890604401600060405180830381600087803b158015612b2b57600080fd5b505af1158015612b3f573d6000803e3d6000fd5b50505050505b5050565b600080546001600160a01b0383811673ffffffffffffffffffffffffffffffffffffffff19831681178455604051919092169283917f8be0079c531659141344cd1fd0a4f28419497f9722a3daafe3b4186f6b6457e09190a35050565b828054828255906000526020600020906002028101928215612eda5760005260206000209160020282015b82811115612eda57828260008201816000016000820160009054906101000a900460ff168160000160006101000a81548160ff0219169083151502179055506000820160019054906101000a900460ff168160000160016101000a81548160ff0219169083151502179055506000820160029054906101000a900460ff168160000160026101000a81548160ff0219169083151502179055506000820160039054906101000a900460ff168160000160036101000a81548160ff021916908360ff1602179055506000820160049054906101000a900460ff168160000160046101000a81548160ff021916908360ff1602179055506000820160059054906101000a900460ff168160000160056101000a81548160ff021916908360ff1602179055506000820160069054906101000a900460ff168160000160066101000a81548160ff021916908360ff1602179055506000820160079054906101000a900460ff168160000160076101000a81548160ff021916908360ff160217905550505060018201816001016000820160009054906101000a900460ff168160000160006101000a81548160ff0219169083151502179055506000820160019054906101000a900460ff168160000160016101000a81548160ff0219169083151502179055506000820160029054906101000a900460ff168160000160026101000a81548160ff0219169083151502179055506000820160039054906101000a900460ff168160000160036101000a81548160ff021916908360ff1602179055506000820160049054906101000a900460ff168160000160046101000a81548160ff021916908360ff1602179055506000820160059054906101000a900460ff168160000160056101000a81548160ff021916908360ff1602179055506000820160069054906101000a900460ff168160000160066101000a81548160ff021916908360ff1602179055506000820160079054906101000a900460ff168160000160076101000a81548160ff021916908360ff1602179055505050505091600201919060020190612bd1565b50612ee6929150612eea565b5090565b5b80821115612ee657805467ffffffffffffffff1990811682556001820180549091169055600201612eeb565b6001600160a01b03811681146122a257600080fd5b600060208284031215612f3e57600080fd5b8135612f4981612f17565b9392505050565b6040516060810167ffffffffffffffff81118282101715612f8157634e487b7160e01b600052604160045260246000fd5b60405290565b600060608284031215612f9957600080fd5b82601f830112612fa857600080fd5b612fb0612f50565b806060840185811115612fc257600080fd5b845b81811015612fdc578035845260209384019301612fc4565b509095945050505050565b600060208284031215612ff957600080fd5b5035919050565b80511515825260208101511515602083015260408101511515604083015260ff606082015116606083015260ff608082015116608083015260a081015161304c60a084018260ff169052565b5060c081015161306160c084018260ff169052565b5060e081015161307660e084018260ff169052565b505050565b6020808252825182820181905260009190848201906040850190845b818110156130d25783516130ac848251613000565b8501516130bd610100850182613000565b50928401926102009290920191600101613097565b50909695505050505050565b600080604083850312156130f157600080fd5b50508035926020909101359150565b610200810161310f8285613000565b612f49610100830184613000565b60006060828403121561312f57600080fd5b82601f83011261313e57600080fd5b613146612f50565b80606084018581111561315857600080fd5b845b81811015612fdc57805184526020938401930161315a565b634e487b7160e01b600052603260045260246000fd5b60006020828403121561319a57600080fd5b81518015158114612f4957600080fd5b634e487b7160e01b600052601160045260246000fd5b600060ff821660ff81036131d6576131d66131aa565b60010192915050565b60ff8281168282160390811115612865576128656131aa565b60006001820161320a5761320a6131aa565b5060010190565b600081518084526020808501945080840160005b8381101561325f578151805160ff9081168952848201518116858a0152604091820151169088015260609096019590820190600101613225565b509495945050505050565b6001600160a01b038616815284602082015260a06040820152600061329260a0830186613211565b82810360608401526132a48186613211565b91505060ff831660808301529695505050505050565b6000602082840312156132cc57600080fd5b8151612f4981612f17565b6000826132f457634e487b7160e01b600052601260045260246000fd5b500690565b805160ff8116811461330a57600080fd5b919050565b60008060006060848603121561332457600080fd5b61332d846132f9565b925061333b602085016132f9565b9150613349604085016132f9565b9050925092509256fea26469706673582212202822128a74d083bb1dd975e8dd3ff84d668c2febee4ac129ca768242bca5246a64736f6c63430008140033",
  "linkReferences": {},
  "deployedLinkReferences": {}
}