{
  "_format": "hh-sol-artifact-1",
  "contractName": "ExPopulusCardGameLogic",
  "sourceName": "contracts/ExPopulusCardGameLogic.sol",
  "abi": [
    {
      "inputs": [
        {
          "internalType": "address",
          "name": "_cards",
          "type": "address"
        },
        {
          "internalType": "address",
          "name": "_token",
          "type": "address"
        }
      ],
      "stateMutability": "nonpayable",
      "type": "constructor"
    },
    {
      "inputs": [
        {
          "internalType": "address",
          "name": "owner",
          "type": "address"
        }
      ],
      "name": "OwnableInvalidOwner",
      "type": "error"
    },
    {
      "inputs": [
        {
          "internalType": "address",
          "name": "account",
          "type": "address"
        }
      ],
      "name": "OwnableUnauthorizedAccount",
      "type": "error"
    },
    {
      "anonymous": false,
      "inputs": [
        {
          "indexed": false,
          "internalType": "address",
          "name": "player",
          "type": "address"
        },
        {
          "indexed": false,
          "internalType": "uint256",
          "name": "gameHash",
          "type": "uint256"
        },
        {
          "components": [
            {
              "internalType": "uint8",
              "name": "attack",
              "type": "uint8"
            },
            {
              "internalType": "uint8",
              "name": "health",
              "type": "uint8"
            },
            {
              "internalType": "uint8",
              "name": "ability",
              "type": "uint8"
            }
          ],
          "indexed": false,
          "internalType": "struct ExPopulusCardGameLogic.CardData[]",
          "name": "playerDeck",
          "type": "tuple[]"
        },
        {
          "components": [
            {
              "internalType": "uint8",
              "name": "attack",
              "type": "uint8"
            },
            {
              "internalType": "uint8",
              "name": "health",
              "type": "uint8"
            },
            {
              "internalType": "uint8",
              "name": "ability",
              "type": "uint8"
            }
          ],
          "indexed": false,
          "internalType": "struct ExPopulusCardGameLogic.CardData[]",
          "name": "enemyDeck",
          "type": "tuple[]"
        },
        {
          "indexed": false,
          "internalType": "uint8",
          "name": "result",
          "type": "uint8"
        }
      ],
      "name": "BattleResult",
      "type": "event"
    },
    {
      "anonymous": false,
      "inputs": [
        {
          "indexed": true,
          "internalType": "address",
          "name": "previousOwner",
          "type": "address"
        },
        {
          "indexed": true,
          "internalType": "address",
          "name": "newOwner",
          "type": "address"
        }
      ],
      "name": "OwnershipTransferred",
      "type": "event"
    },
    {
      "inputs": [
        {
          "internalType": "uint256[3]",
          "name": "ids",
          "type": "uint256[3]"
        }
      ],
      "name": "battle",
      "outputs": [],
      "stateMutability": "nonpayable",
      "type": "function"
    },
    {
      "inputs": [],
      "name": "cards",
      "outputs": [
        {
          "internalType": "contract ExPopulusCards",
          "name": "",
          "type": "address"
        }
      ],
      "stateMutability": "view",
      "type": "function"
    },
    {
      "inputs": [
        {
          "internalType": "uint256",
          "name": "data",
          "type": "uint256"
        }
      ],
      "name": "decodeState",
      "outputs": [
        {
          "components": [
            {
              "internalType": "bool",
              "name": "abilityUsed",
              "type": "bool"
            },
            {
              "internalType": "bool",
              "name": "frozen",
              "type": "bool"
            },
            {
              "internalType": "bool",
              "name": "shielded",
              "type": "bool"
            },
            {
              "internalType": "uint8",
              "name": "health",
              "type": "uint8"
            },
            {
              "internalType": "uint8",
              "name": "ability",
              "type": "uint8"
            },
            {
              "internalType": "uint8",
              "name": "attack",
              "type": "uint8"
            },
            {
              "internalType": "uint8",
              "name": "index",
              "type": "uint8"
            },
            {
              "internalType": "uint8",
              "name": "length",
              "type": "uint8"
            }
          ],
          "internalType": "struct ExPopulusCardGameLogic.State",
          "name": "",
          "type": "tuple"
        }
      ],
      "stateMutability": "pure",
      "type": "function"
    },
    {
      "inputs": [
        {
          "components": [
            {
              "internalType": "bool",
              "name": "abilityUsed",
              "type": "bool"
            },
            {
              "internalType": "bool",
              "name": "frozen",
              "type": "bool"
            },
            {
              "internalType": "bool",
              "name": "shielded",
              "type": "bool"
            },
            {
              "internalType": "uint8",
              "name": "health",
              "type": "uint8"
            },
            {
              "internalType": "uint8",
              "name": "ability",
              "type": "uint8"
            },
            {
              "internalType": "uint8",
              "name": "attack",
              "type": "uint8"
            },
            {
              "internalType": "uint8",
              "name": "index",
              "type": "uint8"
            },
            {
              "internalType": "uint8",
              "name": "length",
              "type": "uint8"
            }
          ],
          "internalType": "struct ExPopulusCardGameLogic.State",
          "name": "state",
          "type": "tuple"
        }
      ],
      "name": "encodeState",
      "outputs": [
        {
          "internalType": "uint256",
          "name": "",
          "type": "uint256"
        }
      ],
      "stateMutability": "pure",
      "type": "function"
    },
    {
      "inputs": [
        {
          "internalType": "uint256",
          "name": "",
          "type": "uint256"
        },
        {
          "internalType": "uint256",
          "name": "",
          "type": "uint256"
        }
      ],
      "name": "gameTurns",
      "outputs": [
        {
          "internalType": "uint256",
          "name": "",
          "type": "uint256"
        }
      ],
      "stateMutability": "view",
      "type": "function"
    },
    {
      "inputs": [
        {
          "internalType": "uint256",
          "name": "gameHash",
          "type": "uint256"
        }
      ],
      "name": "getGameTurns",
      "outputs": [
        {
          "components": [
            {
              "components": [
                {
                  "internalType": "bool",
                  "name": "abilityUsed",
                  "type": "bool"
                },
                {
                  "internalType": "bool",
                  "name": "frozen",
                  "type": "bool"
                },
                {
                  "internalType": "bool",
                  "name": "shielded",
                  "type": "bool"
                },
                {
                  "internalType": "uint8",
                  "name": "health",
                  "type": "uint8"
                },
                {
                  "internalType": "uint8",
                  "name": "ability",
                  "type": "uint8"
                },
                {
                  "internalType": "uint8",
                  "name": "attack",
                  "type": "uint8"
                },
                {
                  "internalType": "uint8",
                  "name": "index",
                  "type": "uint8"
                },
                {
                  "internalType": "uint8",
                  "name": "length",
                  "type": "uint8"
                }
              ],
              "internalType": "struct ExPopulusCardGameLogic.State",
              "name": "playerState",
              "type": "tuple"
            },
            {
              "components": [
                {
                  "internalType": "bool",
                  "name": "abilityUsed",
                  "type": "bool"
                },
                {
                  "internalType": "bool",
                  "name": "frozen",
                  "type": "bool"
                },
                {
                  "internalType": "bool",
                  "name": "shielded",
                  "type": "bool"
                },
                {
                  "internalType": "uint8",
                  "name": "health",
                  "type": "uint8"
                },
                {
                  "internalType": "uint8",
                  "name": "ability",
                  "type": "uint8"
                },
                {
                  "internalType": "uint8",
                  "name": "attack",
                  "type": "uint8"
                },
                {
                  "internalType": "uint8",
                  "name": "index",
                  "type": "uint8"
                },
                {
                  "internalType": "uint8",
                  "name": "length",
                  "type": "uint8"
                }
              ],
              "internalType": "struct ExPopulusCardGameLogic.State",
              "name": "enemyState",
              "type": "tuple"
            }
          ],
          "internalType": "struct ExPopulusCardGameLogic.Turn[]",
          "name": "",
          "type": "tuple[]"
        }
      ],
      "stateMutability": "view",
      "type": "function"
    },
    {
      "inputs": [
        {
          "components": [
            {
              "internalType": "bool",
              "name": "abilityUsed",
              "type": "bool"
            },
            {
              "internalType": "bool",
              "name": "frozen",
              "type": "bool"
            },
            {
              "internalType": "bool",
              "name": "shielded",
              "type": "bool"
            },
            {
              "internalType": "uint8",
              "name": "health",
              "type": "uint8"
            },
            {
              "internalType": "uint8",
              "name": "ability",
              "type": "uint8"
            },
            {
              "internalType": "uint8",
              "name": "attack",
              "type": "uint8"
            },
            {
              "internalType": "uint8",
              "name": "index",
              "type": "uint8"
            },
            {
              "internalType": "uint8",
              "name": "length",
              "type": "uint8"
            }
          ],
          "internalType": "struct ExPopulusCardGameLogic.State",
          "name": "playerState",
          "type": "tuple"
        },
        {
          "components": [
            {
              "internalType": "bool",
              "name": "abilityUsed",
              "type": "bool"
            },
            {
              "internalType": "bool",
              "name": "frozen",
              "type": "bool"
            },
            {
              "internalType": "bool",
              "name": "shielded",
              "type": "bool"
            },
            {
              "internalType": "uint8",
              "name": "health",
              "type": "uint8"
            },
            {
              "internalType": "uint8",
              "name": "ability",
              "type": "uint8"
            },
            {
              "internalType": "uint8",
              "name": "attack",
              "type": "uint8"
            },
            {
              "internalType": "uint8",
              "name": "index",
              "type": "uint8"
            },
            {
              "internalType": "uint8",
              "name": "length",
              "type": "uint8"
            }
          ],
          "internalType": "struct ExPopulusCardGameLogic.State",
          "name": "enemyState",
          "type": "tuple"
        }
      ],
      "name": "getTurn",
      "outputs": [
        {
          "internalType": "uint256",
          "name": "",
          "type": "uint256"
        }
      ],
      "stateMutability": "pure",
      "type": "function"
    },
    {
      "inputs": [],
      "name": "owner",
      "outputs": [
        {
          "internalType": "address",
          "name": "",
          "type": "address"
        }
      ],
      "stateMutability": "view",
      "type": "function"
    },
    {
      "inputs": [
        {
          "internalType": "address",
          "name": "",
          "type": "address"
        }
      ],
      "name": "records",
      "outputs": [
        {
          "internalType": "uint256",
          "name": "wins",
          "type": "uint256"
        },
        {
          "internalType": "uint256",
          "name": "losses",
          "type": "uint256"
        },
        {
          "internalType": "uint256",
          "name": "draws",
          "type": "uint256"
        },
        {
          "internalType": "uint256",
          "name": "streak",
          "type": "uint256"
        }
      ],
      "stateMutability": "view",
      "type": "function"
    },
    {
      "inputs": [],
      "name": "renounceOwnership",
      "outputs": [],
      "stateMutability": "nonpayable",
      "type": "function"
    },
    {
      "inputs": [
        {
          "internalType": "address",
          "name": "_cards",
          "type": "address"
        }
      ],
      "name": "setCards",
      "outputs": [],
      "stateMutability": "nonpayable",
      "type": "function"
    },
    {
      "inputs": [
        {
          "internalType": "address",
          "name": "_token",
          "type": "address"
        }
      ],
      "name": "setToken",
      "outputs": [],
      "stateMutability": "nonpayable",
      "type": "function"
    },
    {
      "inputs": [],
      "name": "token",
      "outputs": [
        {
          "internalType": "contract ExPopulusToken",
          "name": "",
          "type": "address"
        }
      ],
      "stateMutability": "view",
      "type": "function"
    },
    {
      "inputs": [
        {
          "internalType": "address",
          "name": "newOwner",
          "type": "address"
        }
      ],
      "name": "transferOwnership",
      "outputs": [],
      "stateMutability": "nonpayable",
      "type": "function"
    },
    {
      "inputs": [
        {
          "internalType": "uint256[3]",
          "name": "ids",
          "type": "uint256[3]"
        }
      ],
      "name": "validate",
      "outputs": [],
      "stateMutability": "view",
      "type": "function"
    }
  ],
  "bytecode": "0x60806040526000196001553480156200001757600080fd5b5060405162002024380380620020248339810160408190526200003a916200010c565b33806200006157604051631e4fbdf760e01b81526000600482015260240160405180910390fd5b6200006c816200009f565b50600280546001600160a01b039384166001600160a01b0319918216179091556003805492909316911617905562000144565b600080546001600160a01b038381166001600160a01b0319831681178455604051919092169283917f8be0079c531659141344cd1fd0a4f28419497f9722a3daafe3b4186f6b6457e09190a35050565b80516001600160a01b03811681146200010757600080fd5b919050565b600080604083850312156200012057600080fd5b6200012b83620000ef565b91506200013b60208401620000ef565b90509250929050565b611ed080620001546000396000f3fe608060405234801561001057600080fd5b50600436106100f55760003560e01c8063715018a611610097578063e350e5c911610066578063e350e5c914610303578063f2fde38b14610316578063fc0c546a14610329578063ff0b17d61461033c57600080fd5b8063715018a6146102b75780638da5cb5b146102bf578063bec8f3c2146102d0578063e1beb977146102f057600080fd5b80634537a22e116100d35780634537a22e14610148578063469e90671461022457806358a4903f1461027957806363c5633e146102a457600080fd5b8063144fa6d7146100fa5780632a74b2e01461010f57806338f73fa214610122575b600080fd5b61010d610108366004611939565b61034f565b005b61010d61011d366004611995565b610386565b610135610130366004611afa565b610d52565b6040519081526020015b60405180910390f35b610217610156366004611b31565b604080516101008082018352600080835260208084018290528385018290526060808501839052608080860184905260a080870185905260c080880186905260e09788019590955287519586018852600160f88a901c81168114875260f78a901c811681149487019490945260f689901c84169093149685019690965260ff60ee88901c81169185019190915260e687901c81169584019590955260de86901c85169083015260d685901c84169082015260ce9390931c9091169082015290565b60405161013f9190611bc5565b610259610232366004611939565b60046020526000908152604090208054600182015460028301546003909301549192909184565b60408051948552602085019390935291830152606082015260800161013f565b60025461028c906001600160a01b031681565b6040516001600160a01b03909116815260200161013f565b61010d6102b2366004611995565b610d7c565b61010d611009565b6000546001600160a01b031661028c565b6102e36102de366004611b31565b61101d565b60405161013f9190611bd4565b6101356102fe366004611c37565b611374565b61010d610311366004611939565b6113a5565b61010d610324366004611939565b6113dc565b60035461028c906001600160a01b031681565b61013561034a366004611c59565b611430565b610357611534565b6003805473ffffffffffffffffffffffffffffffffffffffff19166001600160a01b0392909216919091179055565b3233146103da5760405162461bcd60e51b815260206004820152600c60248201527f6f6e6c792077616c6c657473000000000000000000000000000000000000000060448201526064015b60405180910390fd5b6103e381610d7c565b60006103f2600154600061157a565b600081815260056020526040812091925061040c846115e8565b9050600061048f600260009054906101000a90046001600160a01b03166001600160a01b031663d8fc7a626040518163ffffffff1660e01b8152600401606060405180830381865afa158015610466573d6000803e3d6000fd5b505050506040513d601f19601f8201168201806040525081019061048a9190611c76565b6115e8565b90506000604051806101000160405280600015158152602001600015158152602001600015158152602001846000815181106104cd576104cd611ccb565b60200260200101516020015160ff168152602001846000815181106104f4576104f4611ccb565b60200260200101516040015160ff1681526020018460008151811061051b5761051b611ccb565b60200260200101516000015160ff168152602001600060ff168152602001845160ff16815250905060006040518061010001604052806000151581526020016000151581526020016000151581526020018460008151811061057f5761057f611ccb565b60200260200101516020015160ff168152602001846000815181106105a6576105a6611ccb565b60200260200101516040015160ff168152602001846000815181106105cd576105cd611ccb565b6020908102919091018101515160ff908116835260008383018190528751909116604093840152825161010081018452818152918201819052918101829052606081018290526080810182905260a0810182905260c0810182905260e08101919091529091506040805161010081018252600080825260208201819052918101829052606081018290526080810182905260a0810182905260c0810182905260e081019190915260005b86518560c0015160ff16108015610695575085518460c0015160ff16105b15610be75784511580156106a857508351155b1561082b5760018086528452600254608080870151908601516040517f6887eee800000000000000000000000000000000000000000000000000000000815260ff9283166004820152911660248201526001600160a01b0390911690636887eee890604401602060405180830381865afa15801561072a573d6000803e3d6000fd5b505050506040513d601f19601f8201168201806040525081019061074e9190611ce1565b1561075e57849250839150610765565b8392508491505b6000806000610778866080015185611761565b151560208801529015156040880152925082156107c65760e085015160ff1660c08601528a6107a78989610d52565b8154600181018355600092835260209092209091015550610be7915050565b8460200151610823576107dd856080015185611761565b91151560408801529250905081156108075760e086015160ff1660c08701528a6107a78989610d52565b80801561081657508560400151155b1561082357600160208701525b5050506108e5565b8451610898576001855260808501516000906108479083611761565b151560208801529015156040880152905080156108925760e085015160ff1660c0860152886108768787610d52565b8154600181018355600092835260209092209091015550610be7565b506108e5565b83516108e5576001845260808401516000906108b49083611761565b151560208901529015156040870152905080156108e35760e086015160ff1660c0870152886108768787610d52565b505b8460200151806108f6575083604001515b156109d3578360a0015160ff16856060015160ff16116109b25760c0850180519061092082611d14565b60ff1660ff168152505086518560c0015160ff160361095f57876109448686610d52565b81546001810183556000928352602090922090910155610be7565b6109ad85888760c0015160ff168151811061097c5761097c611ccb565b6020026020010151602081015160ff908116606084015260408201518116608084015290511660a082015260009052565b610b99565b8360a00151856060018181516109c89190611d33565b60ff16905250610b99565b8360200151806109e4575084604001515b15610a6b578460a0015160ff16846060015160ff1611610a555760c08401805190610a0e82611d14565b60ff1660ff16815250508360e0015160ff168460c0015160ff1603610a3857876109448686610d52565b6109ad84878660c0015160ff168151811061097c5761097c611ccb565b8460a00151846060018181516109c89190611d33565b8360a0015160ff16856060015160ff1611610a975760c08501805190610a9082611d14565b60ff169052505b8460a0015160ff16846060015160ff1611610ac35760c08401805190610abc82611d14565b60ff169052505b86518560c0015160ff161480610ae657508360e0015160ff168460c0015160ff16145b15610af657876109448686610d52565b8360a0015160ff16856060015160ff1611610b2d57610b2885888760c0015160ff168151811061097c5761097c611ccb565b610b4a565b8360a0015185606001818151610b439190611d33565b60ff169052505b8460a0015160ff16846060015160ff1611610b7c576109ad84878660c0015160ff168151811061097c5761097c611ccb565b8460a0015184606001818151610b929190611d33565b60ff169052505b87610ba48686610d52565b8154600181018355600092835260208084209091019190915586018190526040860152600060208501819052604085015280610bdf81611d4c565b915050610677565b336000908152600460209081526040808320815160808101835281548152600182015493810193909352600281015491830191909152600301546060820152885160c088015191929160ff16148015610c47575087518660c0015160ff16145b15610c685760408201805190610c5c82611d4c565b90525060009050610cc0565b88518760c0015160ff1603610c995760208201805190610c8782611d4c565b90525050600060608201526002610cc0565b815182610ca582611d4c565b90525060608201805190610cb882611d4c565b905250600190505b3360009081526004602090815260409182902084518082559185015160018201559184015160028301556060840151600390920191909155610d059060ff8316611823565b7f6aeaa88470c08aa431fe4452b98ae2afdd6dc449509ae67ba2487e570951abbd338c8b8b85604051610d3c959493929190611dbe565b60405180910390a1505050505050505050505050565b600080610d5e84611430565b90506000610d6b84611430565b60801c919091179150505b92915050565b60025481516040516331a9108f60e11b8152600481019190915233916001600160a01b031690636352211e90602401602060405180830381865afa158015610dc8573d6000803e3d6000fd5b505050506040513d601f19601f82011682018060405250810190610dec9190611e0e565b6001600160a01b031614158015610e035750805115155b80610e96575060025460208201516040516331a9108f60e11b8152600481019190915233916001600160a01b031690636352211e90602401602060405180830381865afa158015610e58573d6000803e3d6000fd5b505050506040513d601f19601f82011682018060405250810190610e7c9190611e0e565b6001600160a01b031614158015610e965750602081015115155b80610f29575060025460408083015190516331a9108f60e11b8152600481019190915233916001600160a01b031690636352211e90602401602060405180830381865afa158015610eeb573d6000803e3d6000fd5b505050506040513d601f19601f82011682018060405250810190610f0f9190611e0e565b6001600160a01b031614158015610f295750604081015115155b15610f765760405162461bcd60e51b815260206004820152601660248201527f796f75206d757374206f776e20616c6c2063617264730000000000000000000060448201526064016103d1565b602081015181511480610f8d575060408101518151145b8015610f995750805115155b80610fb9575060408101516020820151148015610fb95750602081015115155b156110065760405162461bcd60e51b815260206004820152601260248201527f696473206d75737420626520756e69717565000000000000000000000000000060448201526064016103d1565b50565b611011611534565b61101b60006118c7565b565b600081815260056020908152604080832080548251818502810185019093528083526060949383018282801561107257602002820191906000526020600020905b81548152602001906001019080831161105e575b505050505090506000815167ffffffffffffffff81111561109557611095611956565b60405190808252806020026020018201604052801561115a57816020015b61114760408051610140810182526000918101828152606082018390526080820183905260a0820183905260c0820183905260e0820183905261010082018390526101208201929092529081908152604080516101008101825260008082526020828101829052928201819052606082018190526080820181905260a0820181905260c0820181905260e082015291015290565b8152602001906001900390816110b35790505b50905060005b825181101561136c57604051806040016040528061125285848151811061118957611189611ccb565b6020026020010151604080516101008082018352600080835260208084018290528385018290526060808501839052608080860184905260a080870185905260c080880186905260e09788019590955287519586018852600160f88a901c81168114875260f78a901c811681149487019490945260f689901c84169093149685019690965260ff60ee88901c81169185019190915260e687901c81169584019590955260de86901c85169083015260d685901c84169082015260ce9390931c9091169082015290565b8152602001611339608086858151811061126e5761126e611ccb565b6020026020010151901b604080516101008082018352600080835260208084018290528385018290526060808501839052608080860184905260a080870185905260c080880186905260e09788019590955287519586018852600160f88a901c81168114875260f78a901c811681149487019490945260f689901c84169093149685019690965260ff60ee88901c81169185019190915260e687901c81169584019590955260de86901c85169083015260d685901c84169082015260ce9390931c9091169082015290565b81525082828151811061134e5761134e611ccb565b6020026020010181905250808061136490611d4c565b915050611160565b509392505050565b6005602052816000526040600020818154811061139057600080fd5b90600052602060002001600091509150505481565b6113ad611534565b6002805473ffffffffffffffffffffffffffffffffffffffff19166001600160a01b0392909216919091179055565b6113e4611534565b6001600160a01b038116611427576040517f1e4fbdf7000000000000000000000000000000000000000000000000000000008152600060048201526024016103d1565b611006816118c7565b8051602082015160408301516060840151608085015160a086015160c087015160e09097015160f89690961b60f79590951b9490941760f69390931b9290921760ee9190911b7e3fc00000000000000000000000000000000000000000000000000000000000161760e69190911b7d3fc000000000000000000000000000000000000000000000000000000000161760de9190911b7c3fc0000000000000000000000000000000000000000000000000000000161760d69290921b7b3fc00000000000000000000000000000000000000000000000000000169190911760ce9190911b7a3fc000000000000000000000000000000000000000000000000000161790565b6000546001600160a01b0316331461101b576040517f118cdaa70000000000000000000000000000000000000000000000000000000081523360048201526024016103d1565b6040805142602082015244918101919091526bffffffffffffffffffffffff1933606090811b82168184015232901b16607482015260888101829052600090839060a8016040516020818303038152906040528051906020012060001c6115e19190611e2b565b9392505050565b6040805160038082526080820190925260609160009190816020015b60408051606081018252600080825260208083018290529282015282526000199092019101816116045790505090506000805b60038110156117585784816003811061165257611652611ccb565b6020020151156117465760408051606081018252600080825260208201819052918101919091526002546001600160a01b031663ef7c895987846003811061169c5761169c611ccb565b60200201516040518263ffffffff1660e01b81526004016116bf91815260200190565b606060405180830381865afa1580156116dc573d6000803e3d6000fd5b505050506040513d601f19601f820116820180604052508101906117009190611e4d565b60ff908116604085015290811660208401521681528351819085908590811061172b5761172b611ccb565b6020026020010181905250828061174190611d4c565b935050505b8061175081611d4c565b915050611637565b50909392505050565b60008060008460ff16600003611780575060019150600090508061181c565b8460ff166001036117ba57605a61179860648661157a565b106117ac575060009150600190508161181c565b50600091508190508061181c565b8460ff166002036117d4575060009150819050600161181c565b60405162461bcd60e51b815260206004820152600f60248201527f696e76616c6964206162696c697479000000000000000000000000000000000060448201526064016103d1565b9250925092565b806001036118c3576064611838600584611e2b565b60000361184457506103e85b6003546040517f79c65068000000000000000000000000000000000000000000000000000000008152336004820152602481018390526001600160a01b03909116906379c6506890604401600060405180830381600087803b1580156118a957600080fd5b505af11580156118bd573d6000803e3d6000fd5b50505050505b5050565b600080546001600160a01b0383811673ffffffffffffffffffffffffffffffffffffffff19831681178455604051919092169283917f8be0079c531659141344cd1fd0a4f28419497f9722a3daafe3b4186f6b6457e09190a35050565b6001600160a01b038116811461100657600080fd5b60006020828403121561194b57600080fd5b81356115e181611924565b634e487b7160e01b600052604160045260246000fd5b6040516060810167ffffffffffffffff8111828210171561198f5761198f611956565b60405290565b6000606082840312156119a757600080fd5b82601f8301126119b657600080fd5b6119be61196c565b8060608401858111156119d057600080fd5b845b818110156119ea5780358452602093840193016119d2565b509095945050505050565b801515811461100657600080fd5b8035611a0e816119f5565b919050565b60ff8116811461100657600080fd5b8035611a0e81611a13565b6000610100808385031215611a4157600080fd5b6040519081019067ffffffffffffffff82118183101715611a6457611a64611956565b8160405280925083359150611a78826119f5565b818152611a8760208501611a03565b6020820152611a9860408501611a03565b6040820152611aa960608501611a22565b6060820152611aba60808501611a22565b6080820152611acb60a08501611a22565b60a0820152611adc60c08501611a22565b60c0820152611aed60e08501611a22565b60e0820152505092915050565b6000806102008385031215611b0e57600080fd5b611b188484611a2d565b9150611b28846101008501611a2d565b90509250929050565b600060208284031215611b4357600080fd5b5035919050565b80511515825260208101511515602083015260408101511515604083015260ff606082015116606083015260ff608082015116608083015260a0810151611b9660a084018260ff169052565b5060c0810151611bab60c084018260ff169052565b5060e0810151611bc060e084018260ff169052565b505050565b6101008101610d768284611b4a565b6020808252825182820181905260009190848201906040850190845b81811015611c2b578351611c05848251611b4a565b850151611c16610100850182611b4a565b50928401926102009290920191600101611bf0565b50909695505050505050565b60008060408385031215611c4a57600080fd5b50508035926020909101359150565b60006101008284031215611c6c57600080fd5b6115e18383611a2d565b600060608284031215611c8857600080fd5b82601f830112611c9757600080fd5b611c9f61196c565b806060840185811115611cb157600080fd5b845b818110156119ea578051845260209384019301611cb3565b634e487b7160e01b600052603260045260246000fd5b600060208284031215611cf357600080fd5b81516115e1816119f5565b634e487b7160e01b600052601160045260246000fd5b600060ff821660ff8103611d2a57611d2a611cfe565b60010192915050565b60ff8281168282160390811115610d7657610d76611cfe565b600060018201611d5e57611d5e611cfe565b5060010190565b600081518084526020808501945080840160005b83811015611db3578151805160ff9081168952848201518116858a0152604091820151169088015260609096019590820190600101611d79565b509495945050505050565b6001600160a01b038616815284602082015260a060408201526000611de660a0830186611d65565b8281036060840152611df88186611d65565b91505060ff831660808301529695505050505050565b600060208284031215611e2057600080fd5b81516115e181611924565b600082611e4857634e487b7160e01b600052601260045260246000fd5b500690565b600080600060608486031215611e6257600080fd5b8351611e6d81611a13565b6020850151909350611e7e81611a13565b6040850151909250611e8f81611a13565b80915050925092509256fea2646970667358221220e384bad7742b48d11e31ff3f1642742d6705a0ed8ad52b05423479999c6ada9a64736f6c63430008140033",
  "linkReferences": {},
  "deployedLinkReferences": {}
}